:020000040800F2
:10000000F0FF00100D9A0608C9F1000809DB04088A
:10001000AD9A0608AD9A0608AD9A060800000000E1
:10002000000000000000000000000000C5F1000812
:10003000C1F1000800000000BDF10008719C040837
:10004000AD9A0608AD9A0608AD9A0608AD9A06085C
:10005000AD9A0608AD9A06080DEC040839ED0408BF
:10006000FDEC0408C1EC040885EC0408F57E0608E4
:10007000E57E0608D57E0608C57E0608B17E060820
:100080009D7E0608897E0608AD9A0608AD9A060888
:10009000AD9A0608AD9A0608AD9A060849EC040820
:1000A00081870408018804087187040825880408EA
:1000B000F5870408E5870408D5870408CD88060875
:1000C000D5880608C1880608C9880608AD9A0608BA
:1000D000AD9A060881A00408C59F0408099F04087A
:1000E000D1EB0408AD9A06081109010861870408DC
:1000F0009187040851870408B5870408757E0608AF
:10010000AD9A0608C55B0608C5870408AD9A0608BF
:100110004D9E0408919D0408D5080408C1080408F0
:10012000617E06084D7E0608397E0608257E060893
:10013000117E0608AD9A0608AD9A0608AD9A060823
:10014000AD9A0608AD9A0608AD9A060841EB00087C
:10015000FD7D0608E97D0608D57D0608D59C0408C6
:10016000B5880608BD880608AD9A0608AD9A060847
:10017000AD9A0608AD9A0608AD9A0608AD9A06082B
:08018000AD9A0608AD9A0608CD
:08018800BC9506000100000017
:100190000E020100020000000C5C00206C5C0020DC
:1001A00000000000E809000814020100050000003A
:1001B000383E0020705C002000000000EA090008C2
:1001C0001302010004000000C4240020785C002019
:1001D00000000000F00900080D1001007000000090
:1001E000B05A00207C5C002000000000ADFB03083A
:1001F0000400080080000000F0590020EC5C0020A2
:1002000000000000000000000902010001000000E1
:10021000985900206C5D002000000000F4090008DF
:10022000FD010100240000003C590020705D002009
:10023000000000001F6B0408FB010100010000002A
:10024000F8580020945D0020000000002970050887
:10025000FC01010009000000C4570020985D002047
:100260000000000031700508F701010006000000E1
:10027000B8570020A45D002000000000F609000827
:10028000F901010004000000B4570020AC5D00201B
:1002900000000000C96B0408160215003F000000B2
:1002A00058310020B05D00200000000025700508D6
:1002B0003400010010000000A8560020F05D00206E
:1002C000000000001D990208110201000800000052
:1002D00080560020005E002000000000FC0900089D
:1002E000121201000400000078560020085E002071
:1002F00000000000040A000818200100320000007D
:10030000445600200C5E0020000000008D79050896
:10031000122001001100000064550020405E002002
:1003200000000000080A0008000201000B000000A5
:10033000A0520020545E00200000000081700508DB
:10034000FF1101000600000048520020605E0020FE
:100350000000000015700508081203000F000000DF
:1003600054520020685E00200000000099700508CB
:10037000FA01010003000000404C0020785E0020DC
:1003800000000000597005080A80010028000000E4
:10039000084C00207C5E0020000000005D14020874
:1003A000061001001C0000003C310020A45E00206B
:1003B00000000000157105080202010003000000A2
:1003C000B0280020C05E00200000000000000000F7
:1003D0000C0201000400000090280020C45E0020F0
:1003E0000000000089700508110001000C000000E9
:1003F0005E400020C85E002000000000EDF303080E
:10040000FE01010014000000643F0020D45E0020C3
:1004100000000000B56F0508FD0701007600000030
:1004200088B4002000B50020000000001578010805
:10043000261001000E00000088B5002078B50020CD
:1004400000000000B91B01080B3001001A00000079
:1004500040AF0020C8B50020000000001C0A0008C2
:100460001F300100240000007CAE0020E4B5002015
:1004700000000000380A0008050201000400000026
:100480000CB1002008B60020000000005C0A000843
:10049000030101000A000000C0AE00200CB60020DD
:1004A0000000000051160108220201001C0100009A
:1004B00064CD00201CD0002000000000FD7905085C
:1004C0000C200600CC000000E0CB002038D100203A
:1004D0000000000041F20308010201000B000000CF
:1004E00084CB002004D200200000000071700508B9
:1004F0001B0201001000000058CB002010D2002089
:1005000000000000017105081B1001000C00000034
:100510000CB8002020D2002000000000897E0108D5
:1005200021020100F00000008CB600202CD2002037
:10053000000000005DA0010823120100100000006F
:1005400060C800201CD3002000000000600A0008E2
:10055000371001002E000000C8CA00202CD3002054
:1005600000000000700A00081610010006000000DC
:1005700058C800205CD30020000000009E0A00083C
:100580002F10010022000000F8CF002064D30020CB
:1005900000000000A40A00081E000100090000007D
:1005A00080C7002088D3002000000000C60A000891
:1005B0000510010006000000C4C7002094D30020ED
:1005C00000000000D00A0008F5810100680000006A
:1005D0001CB600209CD3002000000000D990010828
:1005E000232001001000000004C8002004D40020D3
:1005F0000000000071150208F62101000C00000047
:1006000048DF002038E1002000000000D80A000880
:100610001C0202001C000000ECDE002088E100202B
:1006200000000000057705082820010018000000E0
:1006300008DF0020A4E10020000000005D2E020879
:100640000412010002000000F8E00020BCE10020DC
:1006500000000000E40A00080F0201000100000091
:10066000F4E00020C0E1002000000000E60A0008DD
:100670001400010004000000E4DE0020C4E10020BA
:1006800000000000E80A0008012001000C00000042
:1006900024D70020C8E1002000000000EC0A000878
:1006A0000EF003009E0100000CD50020D4E10020D4
:1006B000000000006599020813000100040000001A
:1006C000DCDA002074E3002000000000F80A0008D3
:1006D000010101000400000058D4002078E300204C
:1006E0000000000000000000000101000400000004
:1006F00050D400207CE3002000000000FC0A000829
:1007000002010100030000004CD4002080E300201F
:10071000000000007DF20308190001000500000040
:10072000A8ED002070EE002000000000000B000883
:100730001A0001000E00000030ED002078EE0020CD
:1007400000000000060B0008203201000A00000033
:10075000FCEB002088EE0020000000004199020818
:10076000150010007000000094E9002094EE0020B5
:1007700000000000000000002A00080060000000E7
:10078000F0ED002004EF002000000000F5980208C2
:100790002C0004001000000074EF002064EF002023
:1007A00000000000CD9602082B001200240000007B
:1007B000A8EF002084EF002000000000A1960208AE
:1007C000292014007800000034E70020CCEF00203E
:1007D00000000000000000001902010010000000ED
:1007E00068E6002044F00020000000006170050869
:1007F00003000100010000000CF4002040F4002080
:100800000000000000000000031201003D00000095
:10081000B4F3002044F4002000000000140B000892
:1008200025201E002C01000018F1002084F4002077
:100830000000000000000000101001000200000095
:10084000ACF00020B0F5002000000000520B0008C2
:10085000F821010006000000F4F00020B4F50020AB
:1008600000000000540B0008020001000C00000012
:1008700050FE0020E4FE0020000000000000000008
:1008800029020100400000009CF80020F0FE00203A
:10089000000000005A0B00080A02010014000000CA
:1008A0000CF8002050FF0020000000000DF20308AB
:1008B00028020400040000008803012064050120D0
:1008C00000000000FD70050827020400040000007D
:1008D000840301206805012000000000F170050874
:1008E0001F02080010000000E00001206C0501203C
:1008F00000000000CD6F05081A0201003C00000056
:10090000A40001207C0501200000000011790508E9
:10091000381001000100000084FF0020B80501200C
:10092000000000009A0B00080B1201003C000000C0
:10093000AC0B012028120120000000009C0B0008D5
:100940000D12010014000000F011012064120120BA
:1009500000000000D80B00080702010002000000A0
:10096000941101207812012000000000EC0B000817
:100970001D02020006000000501101207C1201201F
:100980000000000000000000060203000C00000050
:100990005C110120841B0120000000008D770508F8
:1009A000390001000500000068110120901B0120A2
:1009B0000000000049700508270001000400000045
:1009C000980C0120981B012000000000EE0B00088D
:1009D0001002010001000000B0570120AC570120B7
:0809E00000000000F20B00080A
:1009E8000000000000FF00000000010000000000FF
:1009F800010000000000000001010101FFFFFFFFEE
:100A080000000001000005533430350000000002EA
:100A180000000000AE014A015E012C0164000200E2
:100A2800000001000A019A01001E0A0000020000ED
:100A380000000000000100000005000001020300A2
:100A4800000000000000000000000000000000009E
:100A58000080070000000000000000000000000007
:100A6800000000000000000020003200C800D0078D
:100A780096001400320028004C044006000550007F
:100A880014000F00080064000100010005000A00BE
:100A98000000F4019600C4090000190000000000DD
:100AA800000000000000000000000000000000003E
:100AB8000000000000000000000000000000000529
:100AC80001000000000000002000030100000000F9
:100AD8000000000001000000020200000000000009
:100AE80003000023E8036400040A000114001E0048
:100AF80000204030900100000000280100007E0521
:100B0800EA05B4053200E803D00700000000000041
:100B180000000000000000000000000000000000CD
:100B280000000000000000000000000000000000BD
:100B380000000000000000000000000000000000AD
:100B48000000000000000000010000050101F401A0
:100B58001400000000000000000000000000000079
:100B6800000000000000000000000000000000007D
:100B7800000000000000000000000000000000006D
:100B8800000000000000000000000000000000005D
:100B9800000000000000000000000000000000004D
:100BA800000000000000000000000000000000003D
:100BB800000000000000000000000000000000002D
:100BC800000000000000000000000000010000001C
:100BD800000000000000000000000000000000000D
:0B0BE80000000000003C2003000000A3
:100BF3000403090412010002EF0201408304563288
:100C0300000201020301000012010002020200407F
:100C1300830440570002010203010800FFFFFFFFA6
:100C2300006002401060024000000000000000006D
:100C3300000B0000000000000000000000000000A6
:100C43000060024028600240010000000000000034
:100C5300060C00000000000000000000000000007F
:100C630000600240406002400200000000000000FB
:100C7300100D000000000000000000000000000054
:100C830000600240586002400300000000000000C2
:100C9300160E00000000000000000000000000002D
:100CA3000060024070600240040000000000000089
:100CB300200F000000000000000000000000000002
:100CC3000060024088600240050000000000000050
:100CD30026100000000000000000000000000000DB
:100CE30000600240A0600240060000000000000017
:100CF30030110000000000000000000000000000B0
:100D030000600240B86002400700000000000000DD
:100D1300362F00000000000000000000000000006B
:100D23000064024010640240000000000000000064
:100D33000038000000000000000000000000000078
:100D4300006402402864024001000000000000002B
:100D53000639000000000000000000000000000051
:100D630000640240406402400200000000000000F2
:100D7300103A000000000000000000000000000026
:100D830000640240586402400300000000000000B9
:100D9300163B0000000000000000000000000000FF
:100DA3000064024070640240040000000000000080
:100DB300203C0000000000000000000000000000D4
:100DC3000064024088640240050000000000000047
:100DD30026440000000000000000000000000000A6
:100DE30000640240A064024006000000000000000E
:100DF300304500000000000000000000000000007B
:100E030000640240B86402400700000000000000D4
:100E13003646000000000000000000000000000053
:100E23007D00000015830008118300080D8300086E
:100E330001830008FD820008098300080583000878
:100E430000000000E99A00086DAD000899910008C0
:100E5300ADAE0008C19B00089983000871830008A8
:100E630055830008CDA60008FD8A000859860008AE
:100E730021920008A1920008599400088583000874
:100E83005D8300084D830008010000000000803FDF
:100E9300493801084D3D0108C5380108790F01089B
:100EA3005D110108890F0108A50F0108510F010801
:100EB300410F0108000000000000000009022000AB
:100EC300010104C0320904000002080650050705A9
:100ED300810240000007050102400000090264008E
:100EE300030100C0320904000001030000000921CE
:100EF300110100012236000705830309000A080BCC
:100F030001020202010009040100010202010005BD
:100F13002400100105240100020424020205240612
:100F23000102070582030800FF09040200020A0008
:100F33000000070501024000000705810240000090
:100F430009024300020100C0320904000001020249
:100F530001000524001001052401000104240202FC
:100F63000524060001070582030800FF09040100A8
:100F7300020A000000070501024000000705810284
:100F830040000000FF00000000FF00000000000020
:100F93000000AA550701000001AA55050100000839
:100FA30038DD0608FF1FFF1F05010905A101A10088
:100FB3000501093009310932093309350934093684
:100FC30009371581257F75089508810205091901DF
:100FD300290815002501950875018102C0C000008C
:100FE30009022200010100E03209040000010301AB
:100FF30002000921110100012236000705830309BC
:10100300000A0000000000000102030401020304BF
:10101300060708092D202D2D202D2D2D2D202D2DBA
:101023002D2D000000000000000000000000000063
:10103300000000AA550B010000AA5505010000AAF3
:10104300550902000000AA5503009F00010000009B
:10105300C0120000C0B500200000000098B50020B9
:101063000000000001000000D4850708DC850708A4
:101073000000000005F30308A0860100040000003F
:10108300000000000000000000000000000000005D
:10109300000000000000000000000000000000004D
:1010A3000000000000000000D4850708E48507085D
:1010B30000000000797D0408E8030000040000003C
:1010C300000000000000000000000000000000001D
:1010D300000000000000000000000000000000000D
:1010E3000000000000000000EC850708000000007D
:1010F30000000000415C03087D000000FF000000C9
:1011030000000000000000000000000000000000DC
:1011130000000000000000000000000000000000CC
:101123000000000000000000940B0808000000000D
:1011330000000000F17303087D000000FF000000C1
:10114300000000000000000000000000000000009C
:10115300000000000000000000000000000000008C
:101163000000000000000000989A0708000000003B
:101173000000000015B803087D000000FF00000018
:10118300000000000000000000000000000000005C
:10119300000000000000000000000000000000004C
:1011A3000000000000000000F485070800000000B4
:1011B30000000000A9730408E80300000300000016
:1011C300000000000000000000000000000000001C
:1011D300000000000000000000000000000000000C
:1011E3000000000000000000F88507080000000070
:1011F3000000000009270308102700000300000077
:1012030000000000000000000000000000000000DB
:1012130000000000000000000000000000000000CB
:101223000000000000000000A807080800000000FC
:10123300AD920208BDDB04085F76000005000000E4
:10124300000000000000000000000000000000009B
:10125300000000000000000000000000000000008B
:101263000000000000000000380B08080000000028
:10127300000000007DF904081027000001000000B1
:10128300000000000000000000000000000000005B
:10129300000000000000000000000000000000004B
:1012A30000000000000000000486070800000000A2
:1012B30000000000F1670408E803000005000000D7
:1012C300000000000000000000000000000000001B
:1012D300000000000000000000000000000000000B
:1012E3000000000000000000108607080000000056
:1012F3000000000015FA0308204E00000300000060
:1013030000000000000000000000000000000000DA
:1013130000000000000000000000000000000000CA
:101323000000000000000000208607080000000005
:1013330000000000FDF70308204E0000030000003A
:10134300000000000000000000000000000000009A
:10135300000000000000000000000000000000008A
:1013630000000000000000003086070800000000B5
:1013730000000000BD790408400D030003000000D5
:10138300000000000000000000000000000000005A
:10139300000000000000000000000000000000004A
:1013A3000000000000000000408607080000000065
:1013B300000000007930040810270000010000003D
:1013C300000000000000000000000000000000001A
:1013D300000000000000000000000000000000000A
:1013E300000000000000000048860708000000001D
:1013F30000000000F5AC0108102700000300000006
:1014030000000000000000000000000000000000D9
:1014130000000000000000000000000000000000C9
:1014230000000000000000004C86070800000000D8
:1014330000000000096A0208A08601000100000004
:101443000000000000000000000000000000000099
:101453000000000000000000000000000000000089
:101463000000000000000000548607080000000090
:10147300000000003172040850C3000001000000A6
:101483000000000000000000000000000000000059
:101493000000000000000000000000000000000049
:1014A30000000000000000005C8607080000000048
:1014B3000000000001700408A08601000000000085
:1014C3000000000000000000000000000000000019
:1014D3000000000000000000000000000000000009
:1014E30000000000000000006886070800000000FC
:1014F30000000000E96B0408A8610000010000007F
:1015030000000000000000000000000000000000D8
:1015130000000000000000000000000000000000C8
:1015230000000000000000007486070800000000AF
:101533000000000009070208A08601000100000066
:101543000000000000000000000000000000000098
:101553000000000000000000000000000000000088
:101563000000000000000000808607080000000063
:1015730000000000BDA50408A00F0000010000004A
:101583000000000000000000000000000000000058
:101593000000000000000000000000000000000048
:1015A30000000000000000008C8607080000000017
:1015B30000000000050202081027000001000000DF
:1015C3000000000000000000000000000000000018
:1015D3000000000000000000000000000000000008
:1015E30000000000000000009886070800000000CB
:1015F300000000003DF30308A00F000001000000FD
:1016030000000000000000000000000000000000D7
:1016130000000000000000000000000000000000C7
:101623000000000000000000A4860708000000007E
:10163300000000002DDC01081A4100000100000039
:101643000000000000000000000000000000000097
:101653000000000000000000000000000000000087
:101663000000000000000000A8860708000000003A
:101673000000000089160108102700000100000087
:101683000000000000000000000000000000000057
:101693000000000000000000000000000000000047
:1016A3000000000000000000B486070800000000EE
:1016B300000000001145020850C3000001000000B3
:1016C3000000000000000000000000000000000017
:1016D3000000000000000000000000000000000007
:1016E3000000000000000000B886070800000000AA
:1016F30000000000CD1F0108400D030000000000A2
:1017030000000000000000000000000000000000D6
:1017130000000000000000000000000000000000C6
:101723000000000000000000C08607080000000061
:10173300000000000DF40308400D0300000000004A
:101743000000000000000000000000000000000096
:101753000000000000000000000000000000000086
:101763000000000000000000C88607080000000019
:1017730000000000B5EA010850C3000003000000A8
:101783000000000000000000000000000000000056
:101793000000000000000000000000000000000046
:1017A3000000000000000000D486070800000000CD
:1017B300000000004D0D040840420F00000000002F
:1017C3000000000000000000000000000000000016
:1017D3000000000000000000000000000000000006
:1017E3000000000000000000E08607080000000081
:1017F30000000000D1FE030850C3000000000000F9
:1018030000000000000000000000000000000000D5
:1018130000000000000000000000000000000000C5
:1018230000000000000000000100000000000100B3
:10183300E0010000FFFFFFFF01007EFFFFFFFFFF4E
:101843000800000042570200000001064257020050
:101853000000010601FFFF00FFFFFFFF0101010080
:10186300750A0208000000000000000070E7060887
:10187300CCD8002020D900208D230208B5210208EE
:1018830000000000BCFF060861F901080000000029
:101893000000000020FF06082D24020800000000BD
:1018A30000000000D8FE0608000000000000000051
:1018B3000000000088FD0608000000000000000092
:1018C3000000000040FE06080000000000000000C9
:1018D30000000000ECFD060800000000000000000E
:1018E30091200208A1DA0020FF2D202D2D202D2D7F
:1018F3002D2D202D2D2D00000000000000000000E4
:101903000000000000000000FFFFFFFF1D2702088A
:10191300000000000000000018FD060801000000A0
:10192300FA000000010000000100000001000000B7
:1019330000010101000000001ED700200000F40197
:10194300010000001CD700200000F401010000008A
:101953001AD700200000F4010100000018D700206E
:101963000000F4010100000016D700200000F4017C
:101973000100000014D700200000F4010100000062
:1019830012D700200000F40101000000AD1202088C
:10199300711202080000000098E9060802D700202F
:1019A3000532010010D700206400F401010000009B
:1019B3000ED700206400C4090100000000D70020F6
:1019C300E803D00701000000FED60020E803D0079B
:1019D30001000000FCD60020E803D007010000004E
:1019E300FAD600201E00B80B0100000008D7002023
:1019F30005000F00010000000AD7002003000A00C1
:101A030001000000F8D600201E00F40101000000D0
:101A13000CD700200200000024EA0608F6D60020B6
:101A2300140064000100000004D700203200E80322
:101A330001000000F4D600200000C80001000000EF
:101A4300CDD6002000C80100CCD6002000500100F4
:101A5300CBD60020005A0100C9D6002002000000A6
:101A630030EA0608E0910708E8910708465B002082
:101A73000100C40900000000445B00200100C40908
:101A830000000000425B00200100C40900000000C8
:101A9300405B00200100C409000000003C5B002003
:101AA3000100C409000000003E5B00200100C409DE
:101AB300000000003A5B00200100C40900000000A0
:101AC300385B00200100C4090000000077D4002027
:101AD30000C8010076D4002000C8010074D400209F
:101AE3000000FFFF0A00000072D400200100C800BC
:101AF3000100000070D40020320030753200000075
:101B03006ED400207EFF1400050000006CD400207A
:101B130005002C01050000006AD40020055A0500C9
:101B230067D4002000FF010069D4002002000000F8
:101B3300FC0F002065D400200300000058DF0608D6
:101B430066D4002000FF010068D4002002000000DA
:101B5300FC0F002064D400200300000058DF0608B7
:101B63000112020891110208000000003CEA060875
:101B730034D70020EE02CA080100000032D700204B
:101B830000C801006400000031D7002000C8010034
:101B93006400000030D700200200000048EB060874
:101BA3005ED400200000803E050000005CD40020CD
:101BB30080C1803E0500000056D400200083007DD4
:101BC3000500000054D4002080C1803E05000000C1
:101BD3004FD4002000FF01004AD400206400F40128
:101BE3000100000048D400200400000054EB060864
:101BF30047D400200200000068EB0608FDD4002053
:101C03000D00000074EB0608FAD400200064010004
:101C1300F8D40020320010270A000000F6D4002078
:101C23000D00000074EB0608F5D400200D00000041
:101C330074EB0608F4D4002002000000ACEB0608A5
:101C4300000000000000000000000000B8EB0608E0
:101C53003AD700203E000000F0EB060838D70020FA
:101C63000100FF7F0100000037D7002002000000C1
:101C7300ECEC0608FFD4002003000000FCEC06088F
:101C8300FED4002003000000FCEC0608BAD60020B6
:101C9300000A0100B8D600200000E803010000009C
:101CA300B6D600200000E80301000000B4D60020EF
:101CB3000000E80301000000B2D600200000E803A2
:101CC30001000000AAD600200000E8030100000084
:101CD300B0D600200000E80301000000AED60020CB
:101CE3000000E80301000000ACD60020001401004E
:101CF300C8D60020020000000CED0608C6D600205E
:101D03000000F40101000000C4D600200000F4012B
:101D130001000000C2D600200000F4010100000011
:101D2300C0D600200000F40101000000BED6002050
:101D33000000A00F01000000BCD600200000A00F8F
:101D430001000000E1D6002019640100E0D6002064
:101D53000200000018ED0608DED60020E803D007D5
:101D63000A000000DCD60020006401000A00000025
:101D7300D1D6002000640100D0D600200064010009
:101D8300D8D60020006401000A000000D7D6002046
:101D9300006401000A000000D6D6002000640100A0
:101DA3000A000000DBD6002000FF01000A0000004B
:101DB300DAD6002000FF01000A000000D9D6002077
:101DC30000FF01000A000000D5D6002001FF01003A
:101DD3000A000000D4D6002001FF01000A00000021
:101DE300D3D6002001FF01000A00000008D500201F
:101DF3000000F4010100000006D500200000A00F40
:101E03000100000004D500200000A00F0100000025
:101E130002D500200000A00F0100000000D5002023
:101E23000000A00F01000000F1DA002000C801004B
:101E3300F0DA002000640100EFDA00200064010002
:101E4300EEDA002000640100EDDA002000640100F6
:101E5300ECDA0020FF080100EBDA00200164010046
:101E6300F9100208BD1002080000000024ED060866
:101E7300F4DA002001320100F3DA0020010000004F
:101E830094ED0608F2DA0020040000009CED060839
:101E9300EADA002000640100E8DA00201400E80315
:101EA30001000000E6DA0020E80330750A000000B4
:101EB300E4DA002000C80100E3DA002000C80100D2
:101EC300E2DA002000C80100E1DA0020003201005C
:101ED300F6DA0020004B0100F5DA002004000000D0
:101EE300B0ED0608E0DA0020006401000A000000FB
:101EF30004DB00200000D00701000000FFDA00200F
:101F030000C80100FEDA002000C80100FDDA00204D
:101F130000C8010002DB00200000D0070100000020
:101F2300FCDA002000C80100FBDA002000C8010031
:101F3300FADA002000C8010000DB00200000D0070F
:101F430001000000F9DA002000C80100F8DA0020DF
:101F530000C80100F7DA002000C80100B10E020832
:101F6300990E020800000000C4ED0608F1D4002019
:101F7300005A0100F0D4002000C80100EED4002074
:101F8300E803D0070100000000000000000000008B
:101F9300D120020860EE060853544D3332463430E4
:101FA3003500000063D400200003010062D4002048
:101FB30000030100D50D0208890D0208000000008E
:101FC300B4EE0608490D0208010D020800000000E6
:101FD30050EF0608210E0208012702080000000046
:101FE300D0EF060860D40020010301008913020822
:101FF3005D1302080000000028F306088D0C020898
:10200300490C02080000000098F30608C10E0208FC
:10201300552802080000000034F406081D2C0208AD
:10202300B513020800000000DCF40608110F0208D3
:10203300000000000000000068F50608ED0F02082C
:10204300950F020800000000CCF506088110020875
:10205300451002080000000074F60608098702080C
:10206300351102080000000000F70608F3D600202F
:1020730001060100590F0208250F020800000000A5
:10208300FCF706083D86020821290208000000002B
:102093006CF8060851870208E929020800000000CD
:1020A300BCF90608F2D6002001030100690E0208FC
:1020B300390E02080000000090FA0608A9870208FA
:1020C3000000000000000000F4FA0608D10C02082A
:1020D300E92602080000000074FB06080000000067
:1020E300000000000000000000FC0608691102085F
:1020F300612A02080000000070FC060800000000CE
:10210300000000000000000088FE0608B8B00020B0
:102113009CFF2C0100000000FCDB0020E0150C17E5
:10212300000000008CCF002002000000C0FE060863
:1021330043D4002002000000CCFE06083ED4002059
:1021430088136F170100000040D4002088136F1715
:10215300000000008A5B0020000000000000000077
:10216300885B00200000000000000000865B002068
:102173000000000000000000845B0020000000005D
:1021830000000000825B002000000000000000004F
:10219300805B00200000000000000000E805002034
:1021A300000000000000000014D400200300000021
:1021B300200007083CD4002088136F17010000009B
:1021C30002B1002088136F17000000002D0B0208D6
:1021D300000000000000000030000708E5D90020DF
:1021E300010000008400070804B100200100000082
:1021F30090000708FAB000200200000098000708CA
:10220300000000000000000000000000A400070818
:10221300190B02080000000000000000400107083D
:102223000000000000000000000000009401070807
:102233000000000000000000000000000402070886
:1022430042D40020020000003C020708FEB0002038
:10225300E0150C1700000000D6010101FFFFFFFF8E
:102263000000803F000000000000000000000000AC
:10227300000000000000000000000000000000005B
:1022830000000000000000000000803F000000008C
:1022930000000000000000000000803F000000007C
:1022A30000000000000000000000803F000000006C
:1022B3000000000000000000010000000000FA43DD
:1022C3000000FA430000803F893204080000000048
:1022D3000000000000000000FFFFFFFFFF00000000
:1022E3000000000040FF0020080000000000000084
:1022F30030FF002008000000A13701086D1001081D
:1023030039370108000000003D0F01082140010892
:1023130089360108D53201080000000000000000E2
:10232300FD0E010825830008198300082591000884
:102333004191000809910008ED900008D190000830
:1023430059370108491001088D36010800000000C3
:10235300150F0108D93201085D360108353201082D
:102363000000000000000000090F0108685E0C0077
:10237300FFFFFFFF02010000A00F0000B80B0000E9
:1023830002FFFF01FFFF00009C070808000008028E
:102393000503030000000000A40708080100080269
:1023A3000504030000000000A8AF07080200FE01B7
:1023B3000110030000000000489507080300140201
:1023C3000003000000000000AC07080804001F021F
:1023D3000200080000000000B407080805001F02FF
:1023E3000201080000000000FFFFFFFF1A030000C6
:1023F30000000000000000000000000000000000DA
:1024030000000000000000000403090412010002A0
:1024130000000040830420570002010203010B0067
:102423003580050809800508AD7F0508C9710508D1
:10243300C97F05086D7F0508C5710508D41A0020FA
:10244300298105084981050819810508A97105082D
:10245300D58005088D80050899710508B01A0020FC
:10246300457A0508B1710508AD710508A571050820
:10247300917A0508A17105089D710508185607088A
:10248300BD3F0108291001089D3E0108000000001E
:102493000000000035360108453501080000000042
:1024A3000000000000000000F10E01085172050851
:1024B3004572050899810508B5810508FD71050870
:1024C3007D81050861810508FFFFFFFF1F000000F4
:1024D3001C0000001F0000001E0000001F00000081
:1024E3001E0000001F0000001F0000001E0000006F
:1024F3001F0000001E0000001F0000000068214CA8
:10250300B85F0708F81A002001250000C054070827
:102513000100000050C30000008002021F00000001
:1025230053544D202020202050726F647574202056
:102533002020202020202020302E30310080020255
:102543001F00000053544D202020202050726F6440
:10255300757420202020202020202020302E303190
:102563004F1601084B160108431601082D140108E4
:10257300351F0108611F0108911E01083916010862
:10258300291601081916010809160108251401085E
:10259300010101FF01000000F4010000FF00000041
:1025A3002A000000000004010000000000000002F7
:1025B3001000000007000000000000000000000001
:1025C300010203040607080901000000681B00203C
:1025D30000000000000000000000000000000000F8
:1025E30000000000000000000000000000000000E8
:1025F30000000000000000000000000000000000D8
:1026030000000000000000000000000000000000C7
:1026130000000000000000000000000000000000B7
:1026230000000000000000000000000000000000A7
:0828000000C00F0800001008E1
:10800000F0B401292A4C2B4D23684FF0000694BF91
:1080100000270127EE626662A6626763676B47EA24
:1080200042076763EE63EC6B002A38D144F4957421
:10803000EC631C6824F001041C601C68E407FCD499
:10804000490289085960D8601968EAB921F04001ED
:10805000196019498B421DD018494FF47410C8603B
:10806000196841F01E011960596941F08001596198
:10807000196841F00101196022B90E4AD36A43F030
:108080000803D362F0BC704741F0400119600A490F
:108090008B42E1D14FF0746041F8500CE0E744F0BE
:1080A0001A04EC63EC6A44F00804EC62C1E700BF18
:1080B000C81B0020002C01405864024000640240AC
:1080C0001148002302461178032902F1060216D056
:1080D0000133062BF7D10D4AD36D052B0ED0591C59
:1080E00003EB4303D16500EB4303032040F2EB3184
:1080F00040F2FF32187059809A807047704703EB46
:10810000430300EB4303F0E7001C0020C81B0020E2
:1081100070B4C3080D4CE25C00F00706B24004EBFB
:10812000D004D2B20020C6F108038B4228BF0B4610
:10813000C3F108052A419840C91A40EA02004FF0ED
:10814000000614F8012FEED170BC7047681C0020A7
:10815000084AD2E9343199420AD0D118013391F852
:10816000D8100170C3F30A03C2F8D0300120704761
:1081700000207047C81B0020064AD2F8D838D2F831
:10818000DC28934294BF4FF400600020013B9B1A0F
:1081900018447047C81B0020012380F851307047F5
:1081A00007B501A8FFF7D4FF0028FAD09DF8040016
:1081B00003B05DF804FB044BD3E93403984288BF55
:1081C00003F50063181A7047C81B00200120704790
:1081D000024BC3F8E028C3F8E4187047C81B00201E
:1081E000024BC3F8E828C3F8EC187047C81B0020FE
:1081F0007047704730B4134DD5E934239A4286BF97
:1082000003F50064A21A9A1A0A44B2F5006F13D853
:10821000A9B101444A1E013810F8014FE918824201
:1082200003F1010381F8D840C3F30A03F4D1C5F880
:10823000D430002030BC7047022030BC7047084664
:10824000F8E700BFC81B0020212838B50C4605D030
:1082500022282ED0202813D0002038BD0029FBD0A2
:10826000072AF9D11A4BD3F8F00893F8F41893F8C9
:10827000F52893F8F638206021716271A371EBE75D
:108280000029E9D0072AE7D1114DD5F8E4381BB110
:108290000968D5F8E0089847206821796279A379C0
:1082A000C5F8F00885F8F41885F8F52885F8F6384B
:1082B000D2E70029D0D0022ACED1054AD2F8EC3834
:1082C000002BC9D00988D2F8E8089847C4E700BF56
:1082D000C81B0020024B0020C3F8F808704700BFFD
:1082E000C81B0020044B00200522C3F8F828C3F85F
:1082F000EC08C3F8E4087047C81B0020704700BFB3
:10830000704700BF704700BF704700BF704700BF95
:10831000704700BF704700BF042301480B807047BF
:108320008801002010B4074A074B92F8FC08122479
:1083300003F114020C8001280CBF184610465DF8AA
:10834000044B7047C81B00208C0100200048704778
:10835000501C002000487047501C0020034B93F82D
:108360008400032894BF002001207047C81B002010
:10837000034B93F88400032894BF0020012070472A
:10838000C81B0020034B93F88400003818BF01205D
:10839000704700BFC81B0020034B93F884000038CF
:1083A00018BF0120704700BFC81B0020A0B1826821
:1083B0000D4B12B107229A7070471978DA600329C1
:1083C0004FF004000CBF80214FF48071C3E901110C
:1083D0001A611A7598707047034B41F2E4710122DB
:1083E0005A545A70704700BFE88E00200378022B61
:1083F00010D0006908B9012070470C4B1B78032B83
:108400000EBF0B4B80B24FF6F773984294BF00201B
:10841000012070470549436841F650028A58B3EB82
:10842000422F2CBF01200020704700BFE88E0020A3
:10843000F7FFFF0F0378022B14D030B4104A4368C3
:10844000006941F6480402F5C2511559096841F620
:108450003C042B4012595B0A023801FB00301044E7
:1084600030BC7047064B426841F6340141F630009B
:108470005958185800EB410000EB5220704700BFDC
:10848000E88E002010B5094CD4F8BC201389990758
:10849000FCD513891B06F9D40A2041F027FAD4F839
:1084A000C000BDE8104045F007BB00BFC81B00205E
:1084B0000E4B70B5D3F8BC4041F00AFBA3890546CA
:1084C00042F20F7623899B0705D52046FF21BDE8A0
:1084D00070405FF017BD41F0FBFA401BB042F1DD88
:1084E000204646F059FEC0B270BD00BFC81B002038
:1084F00070B505460E460924FFF7DAFFFF2803D1C1
:10850000013CF9D1012070BDFE2801D0022070BDD0
:10851000064933462A46D1F8BC0000215FF03CFDF5
:10852000FFF7C6FFFFF7C4FF002070BDC81B002087
:108530002DE9F04383B040F040060C0E05460A0AD0
:10854000080C95238DF801408DF804108DF800601B
:108550008DF802008DF803208DF805300824FFF710
:10856000A7FFFF2802D0013CF9D125BB1E4BD3F851
:10857000BC40A3890627E84642F20F76B8F1000F07
:1085800030D018F8015B41F0A3FA814623899A079D
:1085900015D5ADB2A58141F09BFA05462389DB07CD
:1085A00017D5013FA389E9D10924FFF781FFFF28EF
:1085B00002D1013CF9D1FF2003B0BDE8F08341F0C6
:1085C00087FAA0EB0900B042E0DD204646F0E4FD6A
:1085D000EAE741F07DFA401BB042DFDD204646F07D
:1085E000DBFDE1E7FF25CEE7C81B0020F8B5194FFA
:1085F0000023C7F88030FFF75BFFD7F8BC4041F09D
:1086000067FAA389054642F20F7623899B0710D5A6
:108610002046FD215FF076FCFFF74AFFFF2811D1CD
:10862000FFF746FFFF280DD10423022087F884308E
:10863000F8BD41F04DFA401BB042E6DD204646F061
:10864000ABFDE9E7D7F800397B670923002087F8FD
:108650008430F8BDC81B00202DE9F8431A4C94F86B
:108660008460042E0546894690461F4608D0082E91
:1086700002D00020BDE8F883FFF7B8FF0228F8D148
:10868000D4F8C00045F012FA94F87A3093B9690230
:108690001120FFF74DFF98B9D4F80039C4F8609065
:1086A0000522C4E91B87656684F88420636701207E
:1086B000BDE8F88329461120FFF73AFF0028EBD0E8
:1086C000FFF7E0FED5E700BFC81B00202DE9F04111
:1086D000684C00234FF4F0722021064604F608107F
:1086E00084F8043964F023FD04F6E8204FF4F072B6
:1086F000202164F01CFD94F8C90C10B194F8CA2C28
:108700001AB900252846BDE8F08144F0DFFE07468F
:10871000C4F8D40C45F0AEF905460028F1D00FB1ED
:108720002323FB800921384640F0B0FCD4F8D40C58
:10873000514F45F0C1F994F8CA0C013840B246F0E7
:108740006DFE0223102184F8CC3CC4F8D00C5FF0FD
:10875000F1FB798D494846F0D5FCD4F8D40C45F0AE
:10876000A5F9FF218C205AF0FBF88046D4F8D40CF0
:1087700045F0A2F9D4F8D00C04215FF0DBFBB8F18E
:108780001B0F05D0D4F8D40C202140F07FFCB8E7B3
:10879000D4F8D43C012284F804290BB12322DA80D6
:1087A000798D364846F0AEFCD4F8D40C45F07EF90D
:1087B00040210A205AF0D4F8FF218A205AF0D0F83C
:1087C000C0F38013D4F8D40C84F8D83C45F074F985
:1087D000D4F8D00C04215FF0ADFB94F8C83C012B19
:1087E0003FD0022B37D0CBB394F8D93C182B08D10B
:1087F00094F8D82C7B8DA4F8DC6CA4F8DE2CA4F8BB
:10880000E03C798D1D4846F07DFC798D1B4846F093
:1088100079FCD4F8D40C45F049F9022100205AF033
:108820009FF8D4F8D40C45F047F90421D4F8D00CC3
:108830005FF080FB94F8E92C94F8EA3C94F8E81C8B
:1088400084F8E41CC2F12002C3F1100384F8EB2C7D
:1088500084F8EC3C56E708237B85C5E710237B852D
:10886000C2E7002EF7D094F8D83C002B14BF0823A1
:108870001023F1E7C81B0020880100209428002065
:108880002DE9F84F564B984210D003F56853083342
:10889000984267D0534B0020A3F8480DA3F8540D1D
:1088A000C3F84C0DC3F8500DBDE8F88F4D4C4E4E3B
:1088B00002224FF0000BC4F8F02C04F6F445D94620
:1088C0004FF4007A4FF48078F26A01275A455946EE
:1088D000BB4403D0D4F8640D52F0A0FC94F8682D8A
:1088E00085F82420D4F8640DA5F804A04FF0007298
:1088F0004FF48031A960EA60A5F8108085F81290E5
:10890000A5F806802F762862B72152F07DFED4F8B4
:10891000F02C364B6F76934545F8283BD4DB84F832
:10892000569DD4F8F01CB4F8F82CD4F8003DD4F8D7
:10893000FC0CB4F8045DC4F86C3D12FB01F203FBBF
:1089400001F3A4F8482DB4F8FA1C294AC4F84C0DD8
:10895000C4F8503DA4F8545DA4F84A1DC4F8442D51
:108960000120A1E71F4C204E0223C4F8F03C04F67E
:10897000F4454FF0000B4FF4806A4FF040094FF47C
:108980000068F26A01275A455946BB4403D0D4F81F
:10899000640D52F043FCD4F8641D94F8682D2962EC
:1089A00085F824204FF400314FF00062C5E902122F
:1089B000A5F804A0A5F81090A5F80680AF74FFF7FD
:1089C0007FFB28466F7652F071FDD4F8F02C094BEE
:1089D00045F8283B9345D4DB84F8567DA1E700BFDA
:1089E0001971EF00C81B002088010020D0D10608B3
:1089F00028D20608FCD10608F8B51A4C94F8703D48
:108A0000002BFBD159B301444E1E451ED4F8DC287F
:108A1000D4F8D81815F8017F531CC3F30A038B420E
:108A20002CBF4FF400600020C91A224401440129E0
:108A300082F8747DC4F8DC380FD1012041F074F85D
:108A4000D4F8D838D4F8DC188B4294BF4FF40062C5
:108A500000225B1A1344012BEFD0B542D6D100207F
:108A6000F8BD00BFC81B002010B590F850100023BF
:108A700080F8503081B10B4CD4F8F82872B1D4F89A
:108A8000F828052A0CD13C30D4F80039FFF7B4FFA0
:108A9000D4F80039012010BD0120FCE71046FAE7A8
:108AA0001846F8E7C81B0020002280F85120DBE7B9
:108AB00090F85020531C0244DBB280F8503082F80A
:108AC0003C1090F851200AB1132B00D9CCE7704725
:108AD00010B5094CD4F8F838084611465BB1D4F803
:108AE000F838052B07D1002AD4F8003903DDFFF749
:108AF00083FFD4F8003910BDC81B00202DE9F843CE
:108B00004379574D002B14BF0122002285F8B02075
:108B100003D185F88430BDE8F88390F8018008F12E
:108B2000FF3676B2044630460F4646F077FC022305
:108B3000C5F8BC0085F8B8302378002B63D1E47801
:108B4000002C54D14FF48071D5F8BC00C5F8C0405A
:108B50005FF0F0F94FF47A7040F0E6FFD5F8C0000E
:108B600044F0AAFFD5F8BC404FF00A08A38942F2AE
:108B70000F764FF0FF090BE0A4F80C9040F0A8FF2F
:108B800007462389D9072CD5B8F10108A3890DD050
:108B900040F09EFF074623899807EDD440F098FFE8
:108BA000C01BB042F7DD204646F0F6FAD5F8BC10FF
:108BB0002C4B0A8992070AD50A8912F0800206D145
:108BC000D5F8001985F8782001236967A1E7013BF2
:108BD000EFD195F8782085F88430531C85F87830EB
:108BE00099E740F075FFC01BB042CADDDBE72046C5
:108BF00044F06CFC044608B11E23C38009212046C2
:108C000040F044FA9EE706EB86063E44414696F95C
:108C10000320002041F064FC064630B1406841F07A
:108C20004DFCB36885F8CE3018B9002385F8C43000
:108C300085E70D4A431E02EB4311303291F848603C
:108C400002EB4313C5F8C830002EEED11723A1F86C
:108C500048305DF0E3FE012385F8C4306FE700BFC4
:108C6000C81B0020A1860100880100202DE9F04FDB
:108C7000CF4DDFF87083DFF8789384460F461646B1
:108C80000FCD44462DED068B0FC40FCD0FC495E8D4
:108C900007008BB099F87E34029684E80700CDE98E
:108CA00006C7042B00F25C81DFE813F0BD015A0116
:108CB00055010500CD019FEDBF8ADFEDBF8ABF4999
:108CC000C8F81C10BE49BF4BBF4AC8F8181002991B
:108CD000002918BF134638EE887AF5EE006A86EE52
:108CE00087AAC8F82430B94FB94B03930026DFEDAB
:108CF000B97A9FEDB99A28EE278AF0EE679A079B1A
:108D0000B34200F02281039B13F8014B039306F159
:108D1000010B5FFA8BF2002C00F09881DFF8D4C2CF
:108D2000002303E00133152B00F0908103EB430196
:108D30005D001CF80100A042F4D14944049291F86E
:108D40009914002900F08A8120463FF075FF0368DE
:108D50000593824618463FF05BFF9AF805103FF0F6
:108D60008BFF90F800C0BCF1000F40F06F8109EB61
:108D700005002509013D049A80F8D9240321052D19
:108D800080F8D814059B04F00F0000F23781934C53
:108D900004EB450CBCF8B0C04CFA00FE1EF0010E0E
:108DA00000F03E81012303FA00F0013800EA0C00D4
:108DB0002544049260F0B2FC95F8BC50DFF838C24C
:108DC000049A28440CEBC0050321A971EA715CF8F0
:108DD00030007D6100F13F4101F57E0104EB9124FB
:108DE000012394F8C4109AF8082001F01F044909DF
:108DF000032903FA04F300F00E81042900F0068130
:108E0000022900F0FE80AB880893B3FA83F3C3F124
:108E10001F03C3F3CC0100EB810103F007030C6ACD
:108E20009B000F259D4024EA05040C620C6A02FA9F
:108E300003F323430B62022308A909930BF038FCC8
:108E4000DAF80030029A002A00F0A280B9F87C24F7
:108E500000EE102AB8EEC00AFCEEC07A17EE901AA7
:108E60005F4A934200F08180A2F5806293427CD0F9
:108E700002F58042934278D002F58062934274D02A
:108E800002F58062934270D0D9F8042850084FF65A
:108E9000FF73B0FBF1F21A44120CB0FBF2F202982D
:108EA000002865D0B2FBF1F199F87E0404288BB25A
:108EB00063D007EE902AF8EE676A66EE887A29EEAC
:108EC000677A99F87F0406990091A6EEA87A019036
:108ED00051463846C7ED027A87ED037A37F0E2F95A
:108EE000002E60DD7B68D8F8382093425DD0012EDB
:108EF00059D0D8F85020934257D0022E53D0D8F8EA
:108F00006820934251D0032E4DD0D8F88020934250
:108F10004BD0042E47D0D8F89820934245D0052E48
:108F200041D0D8F8B02093423FD0062E3BD0D8F89D
:108F3000C820D31A18BF01235E460122082E3B74B5
:108F40007A7407F118077FF4DAAE26480BB0BDEC4F
:108F5000068BBDE8F08F9FED248AF0EE488AAEE6DE
:108F60009FED228AF0EE488AA9E6D9F804088EE738
:108F700099F87E04042819469BD107EE901A07EE53
:108F8000102AF8EE677AF8EE476A67EEA97A96E754
:108F9000B0EE4A0A049361F01FFDFCEEC07A049B18
:108FA00017EE901A5CE70123C6E70023C4E700BF71
:108FB00054D20608ACC5A737ACC5A736D1F703080D
:108FC000B56B0408E9ED0308A96B0408480000101C
:108FD000433100206F12833A00007A44D0D1060852
:108FE0000004014014000010282930386F120339A2
:108FF000C02C002058310020C4310020C7F814C014
:1090000020E717494C6C23434B64FCE614490C6B76
:1090100023430B63F7E612490C6C23430B64F2E61F
:10902000C7F814E00EE79FED0F8A0F4BC8F8183011
:1090300000230E4A069301230293C8F81C200C4B10
:10904000F0EE488A47E69FED0B8AEEE70A4A084BA6
:10905000C8F81C20C8F82430002077E70B68FFDE32
:10906000003802406F12833AB56B0408D1F7030849
:10907000A96B040800000000E1F00308F8B5114EE8
:10908000D6F80448054600680F4664080BF014FA49
:10909000B4FBF7F1B1F5803F03D3012CFAD9640892
:1090A000F6E72246284689B23FF044FC41F26C03C1
:1090B000054AF25028460549BDE8F84000223FF035
:1090C000B9BB00BFC02C002005FD01082C3D0020CD
:1090D00010B5044C04480A4621460AF02FF82046F1
:1090E00010BD00BF343D0020EC84070810B5044CCF
:1090F00004480A4621460AF021F8204610BD00BF68
:10910000343D0020FC84070810B5044C04480A468E
:1091100021460AF013F8204610BD00BF343D002060
:109120000885070810B5044C04480A4621460AF091
:1091300005F8204610BD00BF343D00201485070807
:1091400010B5044C04480A46214609F0F7FF2046B2
:1091500010BD00BF343D00202085070810B50C4C21
:1091600094F8CD200023C4F880300AB1094AD367AF
:109170005CF088FD20B10423022084F8843010BD07
:10918000D4F800396367092384F8843010BD00BF28
:10919000C81B0020B83D002070B50D4D95F88430F7
:1091A000042B04460E460AD0082B06D1EB6F8342EF
:1091B0000CD0FFF7D3FF022801D0012070BD082397
:1091C000C5E91F4685F88430022070BD022070BDBD
:1091D000C81B002010B509F085FF104C58B194F859
:1091E0008430032B12D894F878300133DBB2072B8C
:1091F00084F8783003D9002384F8843010BDD4F883
:1092000000396367012384F8843010BDD4F8BC00B2
:109210004FF480715EF08EFEE5E700BFC81B0020B2
:1092200070B51E4C94F88430042B06460D4608D0C9
:10923000082B22D1E36F83422DD0FFF7D7F9022804
:109240001BD1D4F8C00044F031FC00213720FFF7D7
:109250006FF929461720FFF76BF9B0B994F87A3007
:109260006BB971021920FFF763F970B90823C4E9DB
:109270001F6584F88430022070BD012070BD314626
:109280001920FFF755F90028F0D0FFF7FBF8FFF79A
:10929000A1FF032070BD022070BD00BFC81B0020CD
:1092A0002DE9F04F95B0CDE902236A4C0646884679
:1092B00094F88430042B0DD0082B07D1E36FB34210
:1092C00000F0C480FFF792F90228F1D0012015B018
:1092D000BDE8F08FD4F8C00044F0E8FB94F87A3091
:1092E000002B40F0998071021820FFF721F9002827
:1092F00040F0A68094F88450FFF7DAF8082D0CBFF0
:10930000FC21FE21D4F8BC90019140F0E1FBB9F8BA
:109310000C300199054642F20F77B9F808309807EA
:109320004BD548465EF0EEFD94F8C430002B52D089
:1093300005A80AF0D7FE94F8CE20D4F8BC30D4F8B3
:10934000C810CDF81C8052060C334868059206936D
:1093500040220023CDE90C3308920F934FF4806232
:109360000A930E934FF400730B9209930AF0F8FEE0
:10937000D4F8C83005A958680AF0C6FED4F8C83039
:10938000D4F8BC2059680B6843F001030B60938844
:109390009BB243F0020393800299E1660399C4F8FB
:1093A00060800122062300206666216784F8682019
:1093B00084F8843015B0BDE8F08F019140F088FB4F
:1093C000431BBB420199A8DD484645F0E5FE94F8F1
:1093D000C430002BACD1D4F8BC50CDF80480AB899C
:1093E0004FF4807B42F20F79019BBBB113F8017BF4
:1093F000019340F06DFB82462B899A0710D5BFB2CE
:10940000AF8140F065FB07462B89DB0712D5BBF126
:10941000010BAB89E8D1BFE7314665E7FF27E8E7F5
:1094200040F056FBA0EB0A004845E5DD284645F034
:10943000B3FEB1E740F04CFBC01B4845E4DDF5E767
:10944000FFF720F8FFF7C6FE032040E7FFF730F8EC
:10945000FC2157E7C81B00202DE9F04F944C94F8ED
:10946000B07087B0002F00F0AF8194F8842042F2F2
:109470000F75531E082B00F28180DFE813F0930074
:10948000BC004A017F006D000900FA007F00E70080
:1094900094F8C430002B40F02682D4F8BC6094F8D5
:1094A00068A0236EB28903EB0A2A4FF4807BBAF1DD
:1094B000000F00F0C9821AF8018B40F009FB8146C9
:1094C0003389980740F1C8811FFA88F8A6F80C8004
:1094D00040F0FEFA80463389D90740F1C881BBF1DC
:1094E000010BB389E3D194F868300133DBB2022B6E
:1094F00084F868303FD1D4F8BC6040F0E9FAB38911
:10950000804633899A0740F19C81304600215EF005
:10951000F9FCD4F8BC6040F0DBFAB38980463389AB
:109520009B0740F18381304600215EF0EBFCFEF7A3
:10953000BFFF00F01F00052800F0A882FFF74AFED9
:10954000E66E002E00F0C9810022236F616E0120BB
:10955000B04794F884208CE7206E4FF40071FEF73A
:10956000C7FF012800F0A481022800F0A881064668
:10957000002800F0ED8194F88420531EDBB2022B0A
:1095800000F22C81D4F80039616F5B1AC82B00F20D
:109590002181A2F10807B7FA87F77F09384607B09B
:1095A000BDE8F08FD4F8C00044F080FA00210846EE
:1095B000FEF7BEFF0646FEF765FF012EDBD1002356
:1095C000D4F8C00084F8793044F070FA40F2AB115E
:1095D0000820FEF7ADFF052800F08281012800F089
:1095E0000181FEF74FFF94F87920002A00F0618294
:1095F000022384F88430D4F8C00044F057FA94F879
:109600007930022B0CBF4FF0804600260021372016
:10961000FEF78EFF31462920FEF78AFF0646FEF749
:1096200031FF002EA7D194F87930022B00F0A481ED
:1096300084F87A60D4F8C00044F038FA0021092098
:10964000FEF776FFB0B3FEF71DFF94E70826FEF79E
:109650002FFFFF2800F03082013EF8D1636FD4F86D
:109660000029FA33934286D2FFF7B4FD94F88420A0
:10967000FFE6FEF71DFFFF284FF0080605D0013E6C
:10968000ECD0FEF715FFFF28F9D1D4F88030002286
:10969000012B84F8782040F21582E26F0821013214
:1096A000013BC4E91F2384F884100A4671E700BF18
:1096B000C81B0020C7481021FEF71AFF06460028E5
:1096C000C1D101217F20FEF723FD01288046BAD1B8
:1096D00030460221FEF71CFD002800F0B881012869
:1096E000B1D116213A20FEF713FD01308002C4F8F3
:1096F0008800FEF7C7FED4F8C00044F0D7F9002177
:109700000A20FEF715FF002840F08381032384F828
:109710008430102102A8FEF7EBFE00287FF42BAF67
:109720009DF815309DF816109DF810209DF80960E1
:109730009DF80A001B01DBB243EA111303F5FA633B
:10974000A4F89A30DDF8113001F00F0184F89C1074
:109750001BBA110902F00F0240EA062084F89810A3
:1097600084F899209DF808109DF80B20C4F89430D7
:10977000039BC4F89030A4F88C0084F88E1084F811
:109780008F20FEF77FFE94F87A3073B9D4F8C000CA
:1097900044F08CF94FF400711020FEF7C9FE064624
:1097A000FEF770FE002E7FF45FAFD4F8BC000421FA
:1097B0005EF0C0FB002204233846C4F8802084F801
:1097C000843007B0BDE8F08F384684F8847007B065
:1097D000BDE8F08FFFF7FEFC94F88420042A7FF4A4
:1097E000D8AEDBE6D4F8BC600DF1080AB3893B467D
:1097F0004FF0040B57464FF0FF099A4640F068F9C6
:109800008046338998073AD5A6F80C9040F060F965
:1098100080463389D90744D5B3899BB20FB107F885
:10982000013BBBF1010BE9D1574632E040F050F962
:10983000A0EB0800A8427FF772AE304645F0ACFCC2
:1098400075E640F045F9A0EB0800A8427FF759AE55
:10985000304645F0A1FC5CE640F03AF9A0EB090087
:10986000A8427FF72DAE304645F096FC3BE640F02F
:109870002FF9A0EB0800A8427FF72DAEF3E740F0E8
:1098800027F9A0EB0800A842BBDD3046574645F05B
:1098900083FC9DF80B30AB2B04BF022384F8793096
:1098A0009FE640F015F9A0EB0800A842B1DDECE717
:1098B000636FD4F8002964339342BFF45CAEFEF7C3
:1098C000E1FDFFF787FCE66E3EB100221046236FF4
:1098D000616EB04794F88420CBE594F88420C8E505
:1098E00084F879607DE6D4F8C8303B485968D3F8ED
:1098F0001CE03A4E3A4B994288BF30461EF0005F5A
:1099000000F095804668DFF8DCC006EA0E0616EA2D
:109910000C0F3FF43EAE0EEA0C03C3600B68D4F8A4
:10992000BC6023F001030B603389D80703D5B389EA
:109930003389D907FBD433899A07FCD533891B06B1
:10994000F9D4B38823F002031B041B0CB380D4E5C5
:10995000FEF798FDE56E84F87860042384F884307F
:10996000002D3FF41BAED4E91821236F3046A847E1
:1099700094F88420531E01E6D4F8C00044F096F811
:1099800031463A20FEF7D4FDD4F8BC6001900DF1C9
:10999000080AB3893B464FF0040B57464FF0FF09C6
:1099A0009A4640F095F8804633899A071CD5A6F868
:1099B0000C9040F08DF880463389DB0730D5B389B1
:1099C0009BB20FB107F8013BBBF1010BE9D1574640
:1099D00014E000BF681C00200060024000640240E8
:1099E0000F6402407D0F7D0F40F072F8A0EB08007D
:1099F000A842D9DD3046574645F0CEFB019B43B91E
:109A0000FEF740FD029B1BBAC3F3807384F87A30E3
:109A100010E6FEF737FDFFF7DDFB94F8842028E51C
:109A200040F056F8A0EB0800A842C5DDE2E7066862
:109A3000DFF8B0C006EA0E0616EA0C0F3FF4A9AD37
:109A40000EEA0C03836069E74FF0FF0835E5042157
:109A50002C20FEF75DFB032106464E20FEF758FB47
:109A60000C2181463620FEF753FB09F10209431C05
:109A700003FA09F308FA06F6A3FB0601430A43EAD0
:109A8000C153C4F88830FEF7FDFC34E6E56ED4F827
:109A900000396367072284F88420002D3FF479ADF4
:109AA000D4E91821236F0120A84794F88420531E7D
:109AB00064E584F884206CE5FEF7E4FC042384F874
:109AC00084306BE508D0042384F88430FEF7DAFC98
:109AD00094F88420531E51E5FEF788FD02287FF498
:109AE0004AADB0E57D0F7D0F70B54379234C002B57
:109AF00014BF0123002384F8B03003D1002384F87D
:109B0000843070BD1E4D002195F98320032040F064
:109B1000E7FC0028F2D04668304640F0CFFC84F8DD
:109B2000CC000028EAD095F88130003B18BF012313
:109B3000304684F8CD305DF03DF809F0D3FA38B9FD
:109B400094F8783084F88400013384F8783070BD5C
:109B50005CF082F940B194F878300022013384F847
:109B6000783084F8842070BDD4F8002984F8780017
:109B70000123626784F8843070BD00BFC81B0020D9
:109B8000B83D002010B55CF067F958B10B4C94F863
:109B900078300133DBB2072B84F8783003D9002307
:109BA00084F8843010BD09F09DFA0028F7D0D4F86D
:109BB00000396367012384F8843010BDC81B00207E
:109BC0002DE9F041874C94F8B050002D00F0F7805B
:109BD00094F88420844F0226531E082B40D8DFE8D7
:109BE00003F036389D3F674F153F05005CF04AF89B
:109BF000002840F0EB80636FD4F80029FA339342D9
:109C00002BD2FFF7BFFF94F88420E5E75CF03AF829
:109C10000028F0D0D4F880300022012B84F878207E
:109C200040F2D880E16F94F8CD00013B0131C4E9E6
:109C30001F1308B16C4BDA67082284F88420A2F164
:109C40000805B5FA85F56D092846BDE8F08184F868
:109C500084605CF017F8002841D194F88420531EEA
:109C6000DBB2022B09D8D4F80039616F5B1AC82B1C
:109C7000E5D9FFF787FF94F88420042ADFD1E3E7D2
:109C8000236B002BDBD1E66ED4F800396367072223
:109C900084F88420002ED2D0D4E91821236F01202B
:109CA000B047DAE7636FD4F8001964338B42C6D249
:109CB000D4F82C80B8F1000FF4D15BF0E3FF00285A
:109CC000A1D0E66E84F87880042384F88430002ED6
:109CD0007AD0D4E91821236F4046B047BDE75BF046
:109CE00087FD0028B9D197F88530002BA3F1020336
:109CF000B3FA83F314BF022201225B0984F87920AE
:109D000084F87A305BF074FD00287FF47AAFD7F8DE
:109D1000D030C4F88830032384F884305BF068FDC9
:109D200000289AD1304BC4F8800093F8B460B3F89F
:109D3000B600D3F8B8E0D3F8B8C0D3F8B870D3F809
:109D4000B82084F88E6093F8BC10A4F88C0093F8C7
:109D5000BD6084F8922093F8BD00D3F8C020C4F809
:109D60009420B3F8C680B3F8C62084F89310B3F8F3
:109D7000C610C2F30B1343EA182303F00F0301F0DC
:109D80000F024FEA1E6E4FEA1C4C3F0A360900F0E4
:109D90000F0003F5FA63042184F8990084F88FE03A
:109DA00084F890C084F8917084F89860A4F89A3090
:109DB00084F89C2084F884102846BDE8F08184F85B
:109DC00084502846BDE8F08105463DE7042384F829
:109DD000843039E7FAD1FFF7C1F994F88420531E93
:109DE0003EE700BFC81B0020B83D00202DE9F04F22
:109DF000C14C94F8E01083B00546C1F34001D4F89B
:109E0000E80043F05FFE94F8E010D4F8E400C943A2
:109E100001F001016F1E43F055FEFBB20193002DCE
:109E200000F0D080B54EDFF8DC82B54D4FF0100960
:109E3000D4F8E80043F02AFED4F8E40043F026FE0C
:109E4000B4F8F030002B40F04E8194F8F210D4F8C2
:109E5000F40043F037FE4FF0FA0A4FF47A71012014
:109E6000D8F80430C3F30803002B40F00F81EFF360
:109E70001183002B40F00A81D6F80029D5F808C0DC
:109E8000D6F800399A42F7D1D4F818319C45F3D866
:109E9000D4F8147101FB07F3A3EB0C03B3FBF7F346
:109EA00001FB0232D8F80430C3F30803002B40F062
:109EB000AB80EFF31183002B40F0A680D6F8003979
:109EC000D5F808B0D6F80079BB42F7D1D4F81871AC
:109ED000BB45F3D8D4F8147101FB07FCACEB0B0CB9
:109EE000BCFBF7FC01FB03C39B1AB3F57A7FD9D304
:109EF000BAF1010AB4D1D4F8E80043F0C7FDD4F8B0
:109F0000E40043F0C3FDB4F8F030002B40F0DF80F4
:109F100094F8F210D4F8F40081F0010143F0D2FD7E
:109F2000FA204FF47A714FF0010CD8F80430C3F3E3
:109F30000803002B40F08980EFF31183002B40F0E1
:109F40008480D6F80029D5F808E0D6F800399A427E
:109F5000F7D1D4F818319E45F3D8D4F814A101FBF9
:109F60000AF3A3EB0E03B3FBFAF301FB0232D8F8BA
:109F70000430C3F3080343BBEFF311832BBBD6F8C4
:109F80000039D5F808B0D6F80079BB42F7D1D4F83B
:109F90001871BB45F3D8D4F814A101FB0AFEAEEB4F
:109FA0000B0EBEFBFAFE01FB03E39B1AB3F57A7FAF
:109FB000DDD30138B9D1019B5F1EFBB2FF2B0193AA
:109FC0007FF436AF03B0BDE8F08FEFF3118A89F369
:109FD0001288AF682B68DB0344BFC4F810C1AF68B8
:109FE000D6F80039D4F810E15FFA8AFA8AF31188BA
:109FF000D4F814A1734401FB0AFEAEEB070EBEFBBE
:10A00000FAFE01FB03E3D0E7EFF3118E89F3128828
:10A01000D5F808B02B68DF0344BFC4F81001D5F8A9
:10A0200008B0D6F80039D4F810C15FFA8EFE8EF36E
:10A030001188D4F81471634401FB07FCACEB0B0CE2
:10A04000BCFBF7FC01FB03C34EE7EFF3118E89F372
:10A050001288D5F808A02B68DA0344BFC4F810C1F1
:10A06000D5F808A0D6F80039D4F810215FFA8EFE92
:10A070008EF31188D4F814E11A4401FB0EF3A3EB1C
:10A080000A03B3FBFEF301FB023270E7EFF3118C1E
:10A0900089F31288D5F808E02B68DB0344BFC4F8C5
:10A0A0001001D5F808E0D6F80039D4F810215FFA8D
:10A0B0008CFC8CF31188D4F814711A4401FB07F35B
:10A0C000A3EB0E03B3FBF7F301FB0232EAE6D4F88D
:10A0D0000C31002B3FF424AFD4F8F830C3F800A0C3
:10A0E00084F809A11CE7D4F80C31002B3FF4B3AE7F
:10A0F0003FF0DEFDAFE600BFB83D0020C81B0020EA
:10A1000010E000E000ED00E02DE9F04FBD4CBE4E48
:10A1100094F8E010D4F8E800DFF8F482BB4D83B087
:10A12000C1F3400143F0CEFC94F8E010D4F8E40011
:10A13000C94301F0010143F0C5FC052301934FF031
:10A140001009D4F8E80043F0A1FCD4F8E40043F08F
:10A150009DFCB4F8F030002B40F04C8194F8F210E4
:10A16000D4F8F40043F0AEFC32274FF47A710120AA
:10A17000D8F80430C3F30803002B40F00F81EFF34D
:10A180001183002B40F00A81D6F80029D5F808C0C9
:10A19000D6F800399A42F7D1D4F818319C45F3D853
:10A1A000D4F814E101FB0EF3A3EB0C03B3FBFEF3B5
:10A1B00001FB0232D8F80430C3F30803002B40F04F
:10A1C000AB80EFF31183002B40F0A680D6F8003966
:10A1D000D5F808B0D6F800C96345F7D1D4F818C14E
:10A1E000E345F3D8D4F814E101FB0EFCACEB0B0C07
:10A1F000BCFBFEFC01FB03C39B1AB3F57A7FD9D3EA
:10A20000013FB5D1D4F8E80043F040FCD4F8E400B5
:10A2100043F03CFCB4F8F030002B40F0E08094F8C0
:10A22000F210D4F8F40081F0010143F04BFC32202D
:10A230004FF47A710127D8F80430C3F30803002BD8
:10A2400040F08B80EFF31183002B40F08680D6F82E
:10A250000029D5F808E0D6F800399A42F7D1D4F8A9
:10A2600018319E45F3D8D4F814A101FB0AF3A3EBEF
:10A270000E03B3FBFAF301FB0232D8F80430C3F348
:10A28000080343BBEFF311832BBBD6F80039D5F895
:10A2900008B0D6F800E97345F7D1D4F818E1F345D2
:10A2A000F3D8D4F814A101FB0AFEAEEB0B0EBEFBF3
:10A2B000FAFE01FB03E39B1AB3F57A7FDDD3013885
:10A2C000B9D1019B5F1E17F0FF0301937FF439AFF3
:10A2D00003B0BDE8F08FEFF3118A89F31288D5F847
:10A2E00008B02B68DB0344BFC4F81071D5F808B080
:10A2F000D6F80039D4F810E15FFA8AFA8AF31188A7
:10A30000D4F814A1734401FB0AFEAEEB0B0EBEFBA6
:10A31000FAFE01FB03E3CEE7EFF3118E89F3128817
:10A32000D5F808B02B68DB0344BFC4F81001D5F89A
:10A3300008B0D6F80039D4F810C15FFA8EFE8EF35B
:10A340001188D4F814E1634401FB0EFCACEB0B0C58
:10A35000BCFBFEFC01FB03C34EE7EFF3118E89F358
:10A360001288D5F808A02B68DA0344BFC4F810712E
:10A37000D5F808A0D6F80039D4F810215FFA8EFE7F
:10A380008EF31188D4F814E11A4401FB0EF3A3EB09
:10A390000A03B3FBFEF301FB02326EE7EFF3118C0D
:10A3A00089F31288D5F808E02B68DA0344BFC4F8B3
:10A3B0001001D5F808E0D6F80039D4F810215FFA7A
:10A3C0008CFC8CF31188D4F814C11A4401FB0CF3F3
:10A3D000A3EB0E03B3FBFCF301FB0232EAE6D4F875
:10A3E0000C31002B3FF423AFD4F8F8301F6084F811
:10A3F00009711CE7D4F80C31002B3FF4B5AE3FF0E7
:10A4000057FCB1E6B83D0020C81B002010E000E07A
:10A4100000ED00E000F01F0240090123032803FAC9
:10A4200002F304D004280CD0022805D07047074A54
:10A43000116C0B4313647047044A516C0B43536413
:10A440007047024A116B0B43136370470038024098
:10A4500000285FD00368374A2DE9F04103F13F44FB
:10A4600004F57E0402EB9422012492F8C42002F049
:10A470001F055209032A04FA05F456D0042A4FD0C6
:10A48000022A48D08588B5FA85F0C0F11F00C0F3D4
:10A49000CC0603EB860600F0070082000F24306A2A
:10A4A000944020EA04003062306A01FA02F202436A
:10A4B000002132624FF0010E0A464FF0030C0227D2
:10A4C0000EFA02F838EA050002F101021CD1186800
:10A4D0000CFA01F420EA04001860186807FA01F683
:10A4E00006431E609E6826EA04069E60986898608F
:10A4F000586820EA0800586058685860D86820EA10
:10A500000400D860D868D860102A01F10201D7D1C0
:10A51000BDE8F0817047084A556C2C435464B1E79C
:10A52000054A156B2C431463ACE7034A156C2C43A6
:10A530001464A7E7D0D106080038024058B18388D8
:10A540004FF00042B3FA83F332FA03F303D0024927
:10A550000A6813430B607047003C0140134B0268CC
:10A56000196821EA02011960596821EA020159605B
:10A5700019680A431A609968026821EA0201996021
:10A58000D96821EA0201D9604179102907D001F187
:10A59000804303F59E3319680A431A60704799682F
:10A5A00011439960D9680A43DA607047003C014062
:10A5B000002864D0F0B58388B3FA83F3202B0A46D1
:10A5C00085B00446C3F11F0143D02D4D2D4E05EB40
:10A5D00081037718C3F81C21002197F8CC703EF056
:10A5E00055FDB4F804C02268274CBCFA8CFCCCF1B1
:10A5F0001F0303F0FC0101F1804101F59C3103F0E0
:10A60000030398004FF00F0E02F13F438A680EFAE1
:10A6100000FE22EA0E0203F57E038A60C3F387235D
:10A62000834088684FF0004222FA0CF203433D4415
:10A630008B6002A8626101234FF400618DF80E3037
:10A640000292ADF80C10FFF789FF95F85C31F02B02
:10A6500001D805B0F0BD3E44F02196F8DC308DF80D
:10A66000043003224FF4807301A885F85C118DF843
:10A670000520ADF8063009F0DDFC05B0F0BD7047EF
:10A68000B83D0020D0D10608003C014010B4B8B15C
:10A690000D4CD4F86431102B05D15DF8044B052125
:10A6A00000203EF0DBBF03EB4302224482F8691135
:10A6B00001210B4482F8680182F86A11C4F8643100
:10A6C0005DF8044B704700BFB83D0020C0782021E2
:10A6D000DCE700BF2DE9F04FDFF8A4A32DED028BDE
:10A6E0009AF8AC110022CAE96722CAE9692297B038
:10A6F000CAF8982119B19AF8AD218AF898219AF8E8
:10A70000AE211AB19AF8AF218AF8A7219AF8B2219E
:10A710001AB19AF8B3218AF8A2219AF8B0211AB195
:10A720009AF8B1218AF89D219AF8B43105935A1EFE
:10A73000D3B257B203937B1C00F0AA80C54AC64E21
:10A7400052F83790029602EBC70200231279019368
:10A7500008EE102A1D46344698462678394630467B
:10A7600045F0ECFE83463046BBF1000F1ED042F0B0
:10A77000ADFEEA1D1321D2B220B14FF0000E82715E
:10A7800080F807E03EF082FC207845F009FF4FF0AA
:10A79000070308F1010223714FF0010384F80280DE
:10A7A0006070CDF804B05FFA82F8E3700135042DD3
:10A7B00004F10504D1D118EE100A029ECDF81080E4
:10A7C000FFF728FEA549A64A4868024042F44032F5
:10A7D0004A600FB9019B5BB9A24C4820FFF71AFEF3
:10A7E000204602215EF088F8A26842F00102A260D1
:10A7F0009A489C4A4168BAF8B64141F40001416068
:10A80000516821F480515160916B21F4401141F461
:10A8100080119163D16841F46001D160956B85F43A
:10A820004011C1F3015101EB81011F2000FA01FC2D
:10A8300025EA0C0C112505FA01F141EA0C0191639E
:10A84000D16841F4E011D160956BC5F30151C1F1BC
:10A850000401C9B201EB810188404FF0100C25EAD8
:10A8600000000CFA01F108439063E4B1BAF8B811A2
:10A87000CAF8C041A1B1BAF8BA21CAF8C41162B18C
:10A88000019B7948521A90FBF2F2CAF8C8216BB9C1
:10A8900017B0BDEC028BBDE8F08F744A1288EFE769
:10A8A000734A1188E7E7734A1488DFE7484604993A
:10A8B0005EF022F8684B012003F114080723F278B8
:10A8C000441CE4B252B375783279A5F10A0101EB68
:10A8D000410105EB450C092D03FA01FE03FA0CFBBF
:10A8E00002FA01F140F29F80D9F80C2022EA0E0E04
:10A8F00041EA0E01C9F80C10421E02EB82021F2130
:10A90000062801FA02FC05FA02F272D8D9F83410CE
:10A9100021EA0C010A432046C9F834200536B04527
:10A92000CDD1D9F80820039942F40072C9F8082063
:10A93000D9F8082042F48072C9F80820D9F8082014
:10A94000574442F00102C9F8082097F9BC210220BF
:10A950003FF0C6FD044600289AD0466830463FF0D6
:10A96000ADFD454B421E03EB421393F84850002DBA
:10A970008ED1059983F84910062283F848200028D3
:10A9800086D030463FF09AFD5CF048F8606809F0E8
:10A99000E7FB07A809F0A6FB049EA26837480792C8
:10A9A000012E8CBF4FF4806300230D9309F14C03FB
:10A9B0004FF48072CDE90A56089309904FF40033A2
:10A9C00060680C9507A94FF400674FF40056CDE975
:10A9D0001023CDE90E7609F097FB6268136843F007
:10A9E00001031360D9F8083043F08043C9F80830F8
:10A9F0004EE7C11FA0F10D0201EB81014FF01F0EC8
:10AA000002EB82020C280EFA01FC0EFA02F005FAA3
:10AA100001F113D8D9F8302022EA0C021143204664
:10AA2000C9F830107AE7D9F8101002FA0CF221EACE
:10AA30000B0B42EA0B02C9F810205DE7D9F82C1085
:10AA400005FA02F221EA00010A432046C9F82C2047
:10AA500064E700BFB4D20608503F00200023014045
:10AA6000E030FCFF00200140803801002E7AFF1FFB
:10AA70002C7AFF1F2A7AFF1F88010020843F0020C4
:10AA8000B83D00202DE9F84F2E4F00EBC00407EB36
:10AA90008404D4F8D8612EB1054694F8E90100F099
:10AAA000FF0820B14FF000084046BDE8F88F894606
:10AAB0009A4693463FF00CF84FEA49010123C9B288
:10AAC00084F8EA1184F8EBB184F8ED3184F8EE8172
:10AAD00084F8EC3184F8E93184F8E881B288C4F86C
:10AAE000F0A191058146C4F8F4A11DD43388DA059C
:10AAF00010D442F20F7405E03EF0EAFFA0EB090328
:10AB0000A34215DC33889B05F6D433889BB243F40B
:10AB100080733380B3889BB243F440734FF00108D5
:10AB2000B3804046BDE8F88F98464046BDE8F88FB0
:10AB3000B7F8403201339BB22846A7F840325DF0A7
:10AB400073FBB1E7B83D002070B5464E96F842421F
:10AB500004EB440306EBC303650093F84432032B74
:10AB60006ED8DFE803F059291E02254406EBC5051F
:10AB7000D5F84802002870D196F8A4329C425FD0E4
:10AB8000013404F00302934286F8422258D002EBCB
:10AB9000420406EBC4040223C4F8480284F8443299
:10ABA00070BD2B1906EBC303D3F8482272B1013AEA
:10ABB000C3F84822002070BD2B1906EBC303D3F85D
:10ABC0004822002AF3D1022283F84422254406EBCE
:10ABD000C50595F85032013BDBB285F850328BBB8E
:10ABE000214B96F8A462D3F83012D5F84C02621CBF
:10ABF00002F003024B1E0324B242034485F8444290
:10AC0000B3FBF1F0C5F848021AD0994218D80138C0
:10AC1000C5F84802012070BD44F0BAFD80B1124B66
:10AC20002C44D3F8302206EBC404012102F51C5356
:10AC300084F844120F33B3FBF2F3C4F8483270BD0A
:10AC4000012070BD084BD3F83022012002F2E73317
:10AC5000B3FBF2F3C5F8483270BD0138C5F84802BD
:10AC6000002070BDB83D002088010020054B93F8FE
:10AC7000A522002AFBD1D3F8083E03491B6801F145
:10AC80000C001847B83D0020604000202DE9F84F27
:10AC90003249DFF8D4B091F8851001240229074623
:10ACA00019461046CBF82C404FF000022C4C1D46A4
:10ACB00018BF7F02FDF7A4F92A4B63626B02A362FF
:10ACC000E36A40F2FF5943F093034FF400704FF4EE
:10ACD0008A62E3620121C4F83890A0601020E2602B
:10ACE0005AF0D2FE012D40F251434E46C4F838903E
:10ACF000CA4640F252488EBF4FF0120998464FF0B4
:10AD000011090A25C4F838A00121A7604846C4F8F3
:10AD10000C805AF0B9FE03464FF0000C40F2774227
:10AD200001213720A6632BB900231846CBF8283021
:10AD3000BDE8F88FA663C4F808C0E2605AF0A4FE2C
:10AD4000013DA6630028EFD015F0FF05DAD10346D8
:10AD5000CBF82C50CBF82830BDE8F88FB83D002058
:10AD6000002C014000E1F505C81B00202DE9F84347
:10AD7000184C94F88460042E0546894690461F4678
:10AD800008D0082E02D00020BDE8F883FEF7E6F9CF
:10AD90000228F8D101234A4628460021FFF776FF12
:10ADA00050B1FEF7EFFEE56E002DECD00022236FD0
:10ADB000616E1046A847E6E7D4F80039C4F8609001
:10ADC0000522C4E91B87656684F884206367012037
:10ADD000BDE8F883C81B00202DE9F84F2F49DFF8A4
:10ADE000C49091F885101E4602292D4B07464FF05E
:10ADF000010418BF4702012E40F259481C6398BF56
:10AE00004FF48B683B469346474640F2FF55B046A9
:10AE10008CBF4FF0190A4FF0180A0A241E4640F260
:10AE2000FF53C9F838300121C9F808605046C9F805
:10AE30000C705AF029FE03464FF0000C40F27742A6
:10AE400001213720C9F83850A3B95846414601229C
:10AE5000FDF7D6F84646134A134B536276029662C4
:10AE6000D36A43F09103D3620D4B002108469962E7
:10AE7000BDE8F88FC9F83850C9F808C0C9F80C20E7
:10AE80005AF002FE013CC9F838500028DDD014F019
:10AE9000FF04C4D1024B1C63BDE8F88FB83D00200D
:10AEA000C81B0020002C014000E1F5052DE9F0470A
:10AEB000374C82B005460E461746984694F88400F3
:10AEC00004280CD0082806D1E36FAB4207D0FEF768
:10AED00045F90228F2D0012002B0BDE8F087DFF882
:10AEE000B8A02666DAF87C906566C9F34F210F2971
:10AEF0004FEA592223D8D4F880300193FBB194F85B
:10AF0000CD00E0B1B9F5005F13D0224831464FF4CF
:10AF10000072484462F0AAF809F50072C2F34F21AA
:10AF20001029CAF87C204FEA522202D0019B012B43
:10AF300021D192B2013A174EAD1A0B4600E001231F
:10AF400032462846062601250021E766C4F87080AF
:10AF500084F8685084F88460FFF73EFF0028BBD077
:10AF6000FEF710FEE66E86B12846236F616E002262
:10AF7000B0470320B0E7E26F013B01320421C4E98E
:10AF80001F2384F884100220A6E70320A4E700BF53
:10AF9000C81B0020E85E0020B83D00202DE9F047E6
:10AFA0002D4D95F80C3E022B82B004460F461646F6
:10AFB0001DD0012B03D0002002B0BDE8F08795F929
:10AFC000108EB8F1FF3FF6D0B8F1030FF3DC00911B
:10AFD000134695F8111E024640465DF0B7FA002868
:10AFE000E9D0404602B0BDE8F0475DF05FBBD5F860
:10AFF000143E13B11A689B885383D5F810AE3EF007
:10B0000067FDBAF80C30804642F20F79BAF8083082
:10B010009B0714D5214650465CF074FF3346D5F8A3
:10B02000100E3A4600215CF0B7FFD5F8143E83B10C
:10B030001A689B881383012002B0BDE8F0873EF0B8
:10B0400047FDA0EB08034B45E0DD504644F0A4F873
:10B05000E4E70120B0E700BFB83D002030B4057838
:10B06000022D14D0012D02D0002030BC70470446C0
:10B0700090F90400084B421C83F84C5EF4D003287E
:10B08000F2DC0A4603F64C63617930BCFAE430BC6A
:10B09000012244F059B900BFB83D002010B50C4C56
:10B0A00094F80C3E022B11D1D4F8140E42F004FD9A
:10B0B000D4F8140E08B12123C38001213DF0E6FF2E
:10B0C000BDE810400348082144F01CB810BD00BF83
:10B0D000B83D0020C44B002073B50D4E05460C460C
:10B0E000FF230A46014630468DF8073044F02CF91C
:10B0F00001230DF1070245F08001304644F0F2F8DB
:10B100009DF80700031B5842584102B070BD00BFB4
:10B11000C44B0020094B93F87E34042B08D9053B1F
:10B12000032B08D801231A4600B10370104670475C
:10B1300000230122F8E700231A46F5E7C02C00207F
:10B14000F0B40D6800240CE0BCF1050F18D8A0F194
:10B1500037030A2B14D104EB840415F8010B03EB1D
:10B160004404A0F13003DEB2092EA0F16107A0F182
:10B17000410CF0D9052FE7D8A0F157030A2BEAD0EC
:10B180000D601460F0BC70479FED737A07EE901A63
:10B1900020EE070AF8EE677A27EE800AFDEEC07A05
:10B1A00017EE903A2033402B00F2C780DFED6B7A28
:10B1B000B4EEE70AF1EE10FAF0EE407A0CDD9FED06
:10B1C000686ADFED686AB0EE677AB4EEE67AF1EEAF
:10B1D00010FA77EEC67AF6DC9FED637AF4EEC77A62
:10B1E000F1EE10FA0CD59FED5E6ADFED606AB0EE0D
:10B1F000677AB4EEE67AF1EE10FA77EE867AF6D454
:10B200009FED5B7AF4EEC77AF1EE10FA00F38D80D1
:10B210009FED587AF4EEC77AF1EE10FA44BF9FED35
:10B22000527A77EE677A27EEA76ADFED535A9FEDE1
:10B23000537ADFED536AA6EE257A67EE865AE6EE7C
:10B24000076AB6EE007AE5EEA67A27EE877ADFED9A
:10B25000486A70EE267ABDEEE76A16EE103A2033A1
:10B26000402B67D8B4EEE60AF1EE10FA0CDDDFED04
:10B270003C5A9FED3C6AF0EE676AF4EEC66AF1EE66
:10B2800010FA77EEE57AF6DCDFED376AF4EEE67A6F
:10B29000F1EE10FA0CD5DFED325A9FED346AF0EE84
:10B2A000676AF4EEC66AF1EE10FA77EEA57AF6D484
:10B2B000DFED2F6AF4EEE67AF1EE10FA40DDDFED15
:10B2C000276A76EEE77A67EEA75A9FED2B5A9FED35
:10B2D0002B6ADFED2B6AA5EE856A27EEA55AE5EE0F
:10B2E000866AB8EE006AE5EE267A67EE867AC7EEE1
:10B2F000206A0023836143610362C361B7EE006A81
:10B3000076EE865A76EE666A86EE257A67EE277ABC
:10B3100066EE876AC0ED017AC0ED037A80ED007AAF
:10B3200080ED027AC0ED046A70479FED0C7A77EEEB
:10B33000677A78E7DFED137AD9E79FED127A86E72F
:10B34000DFED0C6AF4EEE67AF1EE10FA44BFDFEDC1
:10B35000066A76EEE77AB6E727D4D236DB0F4940A5
:10B36000DB0FC940E4CB1641DB0F49C0E4CB16C16B
:10B37000DB0FC93FDB0FC9BF92E741B99730083CEB
:10B3800015A82ABE000000002DE9F0418C4B82B0C8
:10B3900093F84D2E0190002A40F00C8193F8702E06
:10B3A000B3F8721EDFED876AB3F8748E864D07EE30
:10B3B000102A07EE901AB8EEC76AB7EE007AB3F813
:10B3C0006E1EA5F80081F0EE475A4FEA4804E6EEFB
:10B3D000665A8C42B8BF0C46A6EE267AA6B2012168
:10B3E000F8EEE77AA5F8046167EEA67AC5ED3D5A56
:10B3F00085ED3E7AC5ED3F7A83F84D1E002A00F0B8
:10B40000D680DDED017A9FED710AF8EE677AA4B27D
:10B4100080EE270A5FF026FB6400B0FBF4F4012CF9
:10B42000B8BF0124E4B2B0FBF4F39BB2074685F841
:10B43000084100EE103ABBEEED0A85ED430A5FF0DD
:10B4400011FB634BDFED636AB8FBF0F0A3FB07373A
:10B45000FF0807EE907AF8EEE77A022886EEA77AE0
:10B46000B8BF02205C4985F8100100239FED5B1AEC
:10B470009FED5B6ADFED5B1ADFED5B5A9FED5B2AA8
:10B48000DFED5B2A9FED5B3ADFED5B3A9FED5B4AB8
