:020000040800F2
:10000000F0FF0010C128070831D700083DDF0408C1
:100010006129070861290708612907080000000015
:100020000000000000000000000000002DD70008C4
:1000300029D700080000000025D700086D9C04089F
:10004000612907086129070861290708612907084C
:100050006129070861290708650E05082D0E0508A6
:10006000F50D0508BD0D0508850D050855D40608D4
:100070003DD4060825D406080DD40608F5D3060895
:10008000DDD30608C5D306086129070861290708DA
:100090006129070861290708612907084D0D05082E
:1000A000CD8E0408558F0408BD8E04087D8F04088A
:1000B000458F0408358F0408258F04083912070876
:1000C00045120708211207082D12070861290708A1
:1000D00061290708819E0408719E0408619E040836
:1000E000150D050861290708EDFA0008AD8E040812
:1000F000DD8E04089D8E0408058F0408ADD3060824
:1001000061290708C9AF0608158F04086129070887
:10011000519E0408419E04086D18040859180408EB
:1001200095D306087DD3060865D306084DD3060887
:1001300035D30608612907086129070861290708DE
:100140006129070861290708612907081DD00008EF
:100150001DD3060805D30608EDD20608319E040813
:1001600009120708151207086129070861290708FD
:10017000612907086129070861290708612907081B
:08018000612907086129070845
:0828000000C00F0800001008E1
:10800000012380F851307047012070477047704756
:10801000014B196058607047381E00200846114611
:10802000F6E700BF014B9960D8607047381E00200A
:1080300008461146F6E700BF034B1869052814BF30
:1080400000200120704700BF381E0020034B5869F4
:108050009B69C01AC0F30A00704700BF381E002099
:10806000F4E700BF38B504460D46FFF7EFFF28449C
:10807000B0F5006F13D8A5B10B4B5B69621E611997
:108080000139094DE81812F8014F04770133C3F3A1
:108090000A038A42F6D1044A5361002038BD022007
:1080A000FCE70020FAE700BF381E0020F0B4124AB7
:1080B00093695569AB421AD0D9B1421E06460844AD
:1080C000411E0D4F1046FC18247F02F8014F01336A
:1080D000C3F30A030230801BAB4204D08A42F1D1C1
:1080E000054A936101E0044B9D61F0BC704700209C
:1080F000FBE70846F9E700BF381E002007B501215D
:1081000001A8FFF7D3FF0028F9D09DF8040003B0C1
:108110005DF804FB08B5FFF799FFC0F5006008BDE6
:10812000F8E700BF10B50C4621281ED022282ED01B
:10813000202801D0002010BD0029FBD0072AF9D14A
:10814000194BDB681BB10968174A90689847226889
:10815000154BC3F81C28227983F82028627983F80C
:108160002128A27983F82228E4E70029E2D0072A0F
:10817000E0D10D4BD3F81C280A6093F820280A712F
:1081800093F821284A7193F822388B71D2E700299D
:10819000D0D0022ACED1044B5B68002BCAD009880C
:1081A000014A10689847C5E7381E00200020014B9F
:1081B00018617047381E0020034B05221A61002009
:1081C0005860D860704700BF381E0020704700BF5D
:1081D000704700BF704700BF704700BF704700BFC7
:1081E000704700BF704700BF04230B8000487047F2
:1081F00088010020054B93F82438012B044800F136
:10820000140318BF184612230B807047381E002035
:108210008C010020C0EB0010C0000649A1FB00311A
:10822000401A01EB5001890800228A4202F1010242
:10823000FBD17047254992240048704788260020CA
:10824000034B93F84C08032894BF0020012070478B
:10825000381E0020034B93F84C08003818BF01204B
:10826000704700BF381E00200378022B05D000693C
:1082700070B9012000F0010070470C4A41F650032C
:10828000D2584368B3EB422F2CBF01200020704727
:10829000064B1B78032B0EBF054B80B24FF6F773CE
:1082A000984294BF00200120E4E700BF4066002010
:1082B000F7FFFF0F074B1B78022B03BF030A0B606E
:1082C000C0B2C0F3D4131CBF0B6000F07F0010607D
:1082D000704700BF406600200378022B15D010B411
:1082E0000369023B0F4A02F5C2510968406841F632
:1082F000480414592040400A01FB030041F63C03A6
:10830000D35818445DF8044B7047064A41F63403CD
:10831000D15841F63003D35803EB4103406803EBD7
:108320005020704740660020837B042B0DD0074B04
:1083300041F2C8615A5801325A5042600422827395
:1083400041F2CC615A5801325A50704740660020C1
:10835000034B1B78032B0CBF80204FF480707047B9
:108360004066002008B588B183681BB10B4B07221B
:108370009A7008BDFFF7ECFF084B58609860002228
:10838000DA601A611A7504229A70F2E7034B01222F
:1083900041F2E4715A545A70EBE700BF4066002086
:1083A00008B5FFF7D5FF034B1B6803FB00F0400245
:1083B00008BD00BF807E002058B9064A41F2E47330
:1083C000D35C1BB941F2E4730121D154014B01226A
:1083D0005A7070474066002038B5154B00240FE0F6
:1083E00004F5B174134B03EB04139A711FE00228D8
:1083F00014BF0020012011E0013410330B2C16D0E3
:10840000987B0028F8D01D688D42F5D1002AE7D06E
:10841000094B03EB44239A42E9D00020FFF7CCFF3D
:1084200004F5B174034B03EB04140123A37138BDAD
:10843000587C002040660020586600202DE9F84F47
:10844000074688461546994612F0020A27D000389A
:1084500018BF0120FFF7B0FF002800F00781884A0D
:1084600041F63803D058E0B1134602F5C252126803
:1084700041F63C015B5802FB003087422CBF0020D4
:108480000120FFF799FF002800F0F4807D4A4FF0AB
:10849000FF36B646B446B3460024794B4DE0012082
:1084A000D8E70120EDE704F5B173754A02EB031339
:1084B0009B790BBB2646002E66DB714A02EB061346
:1084C00041F218615F5041F2C860115801311150FA
:1084D00041F21C60195006F5B173180102EB031349
:1084E0001150002199809971DA7902F0800261F3CC
:1084F000C712DA7134460DE0114641F2C8628B585A
:1085000001338B5004F5B17212018B50B4F1FF3F6F
:1085100000F0B28004F5B173594A02EB03139E795F
:10852000042E00F29E80DFE806F03B57A9575A0060
:108530002646013410320B2CBDD011688F42B2D0C8
:10854000917B0029F4D00129F3D104F5B17103EB3B
:108550000111C97911F0010FEBD104F5B17103EBF1
:108560000111C97911F07E0FE3D104F5B17103EB6C
:108570000111C979C90905D191688B45D9D9A64698
:108580008B46D6E7A446D4E7BCF1000F01DB664674
:1085900093E7BEF1000FB8BF002668DB76468CE794
:1085A00015F0010F3DD104F5B173354A02EB031309
:1085B000EA10D97962F3C711D971B9F1030F44D91F
:1085C0004FF6FF73994528BF994604F5B1722C49BF
:1085D00001EB0212A2F80490BAF1000F38D115F0A5
:1085E000040F08D004F5B173254A02EB0313DA79BE
:1085F00042F00102DA7115F0100F0BD004F5B172E0
:108600001F4B03EB0212D379C3F34501013161F330
:108610004603D3711C4B03EB4424C8F800400126E9
:1086200025E01A4BD3F81C399D680023184A1649D7
:1086300001EB44213846A847C8B104F5B174104B8A
:1086400003EB041302229A7111E04FF00009BCE71A
:1086500041F2186303EB041309481844FFF764FE62
:10866000BDE70020FFF7A8FE022600E00226304604
:10867000BDE8F88F0026FAE70026F8E70026F6E7BF
:1086800040660020587C002058660020381E0020DC
:10869000D983000870B582B00446C06918B90125B5
:1086A000284602B070BD0E460023032201A9FFF741
:1086B000C5FE05460128F3D1208CC043C0F3C0306D
:1086C000FFF77AFE00B3B4F920305901019A02EBAA
:1086D0004313012E0FD0022E0BD03EB12278032A75
:1086E0000CD0E28C9A82A28C5A83D9E7E268DA61D4
:1086F000F4E7E5205054A268DA61EFE700221A7728
:108700005A779A77DA77ECE70225C9E72DE9F04F37
:1087100087B006460C461546FFF71AFE019003AADD
:1087200004A92068FFF7C6FDA6B3731EDBB2012BB8
:108730003CD84FF0010A2268954228D9012E8CBFFF
:108740004FF0000B4FF0010B3B4E06F5BD5808F102
:10875000080806F5C15909F11009D8F8003023B10D
:1087600041F2C4717158914227D0D9F800700023AA
:10877000092205A9049807443846FFF75FFE01283F
:108780002ED0022816D0A8B12268AA42E5D32560CF
:1087900003200FE0DDF804A00398B0FA80F0400950
:1087A000FFF70AFE0028C6D1022003E00020FFF7F1
:1087B00003FE022007B0BDE8F08F06F5C25109683C
:1087C0004802013B03EB4123B3FBF0F31344B3FB3B
:1087D000FAF20AFB12320AB153449B1A2360D3E720
:1087E000059A10E0039B32F81330B3FA83F35B0968
:1087F0005B4515D0236853442360039B5344039384
:1088000001998B4212D23378022BEBD0032B01D08B
:108810000220CFE7039B52F8233023F07043E4E7B4
:108820002368AB42C6D325600320C3E7049B013312
:10883000049300230393A7E74066002030B585B07A
:108840000D4601AA02A9FFF735FD0D4A41F6300396
:10885000D0580023032203A9029C2044FFF7EEFD19
:10886000012801D005B030BD054B1B78022B019AC1
:10887000039B0CBF23F8125043F82250F2E700BFCD
:1088800040660020F8B504463B4F07F5C156183640
:1088900094F83450052D67D8DFE805F003273842F7
:1088A0004C573268023204F130010120FFF72EFFED
:1088B000012807D00238C0B2012853D8052384F814
:1088C0003430E5E7226B41F64403FA50226107F5A4
:1088D000C2531968E36803EB4123E360E36A03B919
:1088E0006262012384F83430D2E74FF0FF31206B0D
:1088F000FFF7A4FF012839D1E36A1BB1022384F8F2
:108900003430C5E7032384F83430C1E7216BE06AD3
:10891000FFF794FF01282BD1032384F83430B7E705
:1089200000212046FFF7B6FE012823D1042384F856
:108930003430ADE794F82830082B01D0012511E040
:10894000002384F8283001250CE094F82830082B07
:1089500004BF002384F82830074A41F2E57301215F
:10896000D15402252846F8BD0025FBE70025F9E78C
:108970000025F7E70025F5E74066002030B585B013
:1089800004460846154602AA03A9FFF793FC039B79
:10899000114941F6300288586CB141F634028C58C6
:1089A00018440023012201A92044FFF747FD0128B4
:1089B00003D005B030BD0024F2E7074B1B78022B33
:1089C000029A019B0EBF33F8123053F8223023F085
:1089D00070432B60EDE700BF4066002070B5154680
:1089E000037E13F0080F11D00A4A41F2C473D6581F
:1089F0004C1CB4428CBF00200120FFF7DDFCB442C8
:108A000006BF00232B602C60012070BD0020FFF703
:108A1000B5FFFAE74066002038B50024174841F258
:108A2000D063C454164B10E0144B04F5B17203EB41
:108A300002120421917141F2CC615A5801325A500C
:108A40001BE0013410330B2C17D053F80E5C8D4211
:108A5000F7D11D78032DF4D1002AE5D0094D05EB9F
:108A60004420824214BF00200120FFF7A5FC05EB43
:108A7000041303F5B05301229A7338BD40660020F9
:108A8000667C00205866002010B5094BC01A48BF0C
:108A900000F2FF104412B0F5B05F2CBF002001209F
:108AA000FFF78AFC002814BF20464FF0FF3010BDAE
:108AB00058660020F0B401F00706CB0800EBD105A2
:108AC000C15CB14014469AB1C9B200200746C6F154
:108AD0000803A34228BF23469840C3F1080211416E
:108AE000084315F8011F3E46E41AF0D1F0BC704768
:108AF0001046FBE70048704788260020034B93F898
:108B00004C08032894BF002001207047381E002025
:108B1000836D1B6A5B681B78FF2B09D190F8F030DE
:108B20005A1E80F8F020002B14BF0120022070474D
:108B300000207047826D136A5B681B78FF2B0ED094
:108B400090F8F030013BDBB280F8F0300BB101203F
:108B50007047136A5B6800221A7002207047002079
:108B6000704700BF034B93F84C08003818BF012032
:108B7000704700BF381E00200B4890F8203900EBEA
:108B8000C30080F824191202C0F828290133DBB28F
:108B9000042B19BF044A82F82039034B002208BF76
:108BA00083F82029704700BF381E002020230B8047
:108BB00000487047B401002064230B8000487047D0
:108BC000D401002043230B80004870473802002066
:108BD00008B5094BD3F8F400FF280AD00749D1F8AB
:108BE000442901F64811FFF79DFA034BFF22C3F811
:108BF000F420002008BD00BF88010020381E00209E
:108C000008B5FFF7E5FF08BD08B5D0F8E4355B6AA5
:108C10009847002008BD00BF08B5D0F8E4351B6AAE
:108C20009847002008BD00BF10B50446D0F8E435D1
:108C30001B689847D4F8E8359B689847002010BD1A
:108C400008B5D0F8E435DB6903B19847002008BDCA
:108C500008B590F8123180F81331042380F81231EE
:108C6000D0F8E835DB689847002008BD10B5044609
:108C7000D0F8E8351B699847032384F812310020A7
:108C800010BD00BF11F0800F17D101EB810300EB85
:108C9000C303012283F8762301F07F0283F8742353
:108CA0001946002381F8753300EB82014A6D136881
:108CB00043F4001313600020704701F07F0101EBC3
:108CC000810300EBC303012283F81E2183F81C11EA
:108CD00083F81D2100EB81018A691368002B03DBF7
:108CE00043F400131360E6E743F08043F8E700BF66
:108CF00030B411F0800F1ED101F07F0101EB810231
:108D000000EBC20282F87413002382F875331A460E
:108D100000EB8104656D012404FA01F161F31F4346
:108D20006FF3CF322A600169CA6922EA0303CB617B
:108D3000002030BC704701F07F0101EB810300EBA4
:108D4000C30383F81C11012483F81D41002213463C
:108D500000EB8105AD6904FA01F161F30F03DFE770
:108D600010B504468121FFF7C3FF01212046FFF71C
:108D7000BFFF0020014B83F8500910BD381E0020B2
:108D800010B504468121FFF7B3FF01212046FFF70C
:108D9000AFFF82212046FFF7ABFFFFF707FA002065
:108DA00010BD00BF38B504460D468321FFF7A0FF74
:108DB00029462046FFF7E4FF002038BDF0B411F04B
:108DC000800F37D101F07F0101EB810400EBC40477
:108DD00004F55D7401EB810500EBC50585F874139E
:108DE000002685F875631746C5F87C2385F8773328
:108DF000022B43D0002500EB8102566D012202FABE
:108E000001F161F31F45326812F4004F0BD167F393
:108E10000A0263F39342E38863F3995242F080526B
:108E200042F4004232600269D3692B43D3610020CF
:108E3000F0BC704701F07F0101EB810400EBC4043A
:108E400004F58E7401EB810500EBC50585F81C1156
:108E5000012685F81D611746C5F8242185F81F31C4
:108E6000A5F82211022B0CD0002500EB8102966997
:108E7000012202FA01F161F30F05C4E70025257113
:108E8000B9E700252571F0E710B50446002340221C
:108E90001946FFF793FF0023402280212046FFF769
:108EA0008DFF012384F81231D4F8E8355B68A0788F
:108EB0009847002010BD00BF094B182262F306033B
:108EC000426D1361C378012B00D07047436D00F2EF
:108ED000CC525A61436D1A684FF080221A60F4E751
:108EE0000000086010B504468021FFF7CBFE00218A
:108EF0002046FFF7C7FE2046FFF7DEFF10BD00BF8C
:108F000070B44B78012B1ED00A7800EB8202536DAF
:108F10001D681B694C69002C47D18C6804F07F04E4
:108F200043F4002364F30603526D1361C378012BED
:108F300040D045F004450B7800EB8300436D1D6085
:108F4000002070BC70478269156813694C69C4B908
:108F50006FF3060343F400231361C378012B1DD084
:108F600045F004451560C378002BE9D14B69002B0F
:108F7000E6D00269506B097801238B4003435363A9
:108F8000DEE78E68B44286BF4E6106F07F0404F0CF
:108F90007F0464F3060343F40023DDE70B7800EB62
:108FA00083039B690C695C61DAE78C684C6104F0AF
:108FB0007F04B5E70B7800EB83035B6D0A695A61A8
:108FC000B7E700BFF0B44B78012B22D00E7800EB4E
:108FD0008606726D136815694A69002A78D18A6815
:108FE000C2F31202012767F3DC4562F31205726DCA
:108FF0001561C278012A79D0CA78012A7DD043F060
:1090000004430A7800EB8200426D13600020F0BC3C
:1090100070470B7800EB83039C69236825694A69D4
:10902000AAB96FF31205012262F3DC452561C2780B
:10903000012A1BD0CA78012A40D04A69FAB10469D2
:10904000656B0E780122B2402A43626314E062F33A
:1090500012058E683244013AB2FBF6F262F3DC4547
:10906000CA78012A08BF62F35E75DFE70A7800EB71
:10907000820292690C695461CA78012A1ED043F0B9
:1090800004430A7800EB820292691360CB78012BCB
:10909000BCD1C378002BB9D18B8A03330A7800EB9B
:1090A0008200D0F8D0409810B0D0CA68002352F89F
:1090B000041B216001339842F9D1A7E70269926845
:1090C00012F4807F0CBF43F0005343F08053D6E787
:1090D0008C682244013AB2FBF4F2C2F309073A4623
:1090E00004FB02F2C2F312024A617CE70A7800EB49
:1090F0008202526D0C6954617EE74A7912B143F0E5
:1091000000537CE743F0805379E700BF70B501F06E
:109110007F0404EB840100EBC10101F58E7104EBC7
:10912000840500EBC505012685F81D6185F81C4105
:10913000C5F82821C5F82C210022C5F83421C5F82E
:1091400030311CB9FFF7DCFE002070BDFFF73AFF9D
:10915000FAE700BF2A4BD3F854390F2B05D05A1C1D
:10916000274BC3F8542900207047254B0022C3F831
:10917000542993F85839002BF5D1214BD3F85C29A9
:10918000D3F860399A42EED070B51D4BD3F85C2904
:10919000D3F860399A421A4B87BFD3F85C49C4F5BB
:1091A0000064D3F86049D3F85C3998BFE41A144BD3
:1091B000C3F86449402C19D9012283F85829402664
:1091C0000F4DD5F85C2905F6681133460A44812114
:1091D000FFF79CFFD5F85C393344C3F30A03C5F8A5
:1091E0005C39A41BC5F86449002070BDA6B2402EAE
:1091F000034B0CBF0222012283F85829E0E700BF8D
:10920000381E002008B5FFF7A5FF08BD70B51D4B3F
:1092100093F85839012B03D0022B29D0002070BDC0
:10922000184BD3F864491CB9002283F85829F5E794
:10923000402C07D8A6B2402E05D1124B022283F84B
:10924000582900E040260F4DD5F85C2905F6681135
:1092500033460A448121FFF759FFD5F85C3933447E
:10926000C3F30A03C5F85C39A41BC5F86449D5E704
:1092700000231A468121FFF749FF024B002283F8A1
:109280005829CBE7381E002010B50446042380F887
:10929000113100231A461946FFF738FF2046FFF721
:1092A0000BFE002010BD00BF10B51346C0F83C21D6
:1092B000C0F83821022280F811210A460021FFF768
:1092C00025FF002010BD00BF10B50C7814F060041D
:1092D00027D0202C50D14B78023B092B1DD8DFE83A
:1092E00003F0160A1C1C1C1C1C1C10058A78264B3B
:1092F0001A67002445E001222449FFF7D5FF002426
:109300003FE04B881B0A204A5367002439E00122C2
:109310001F49FFF7C9FF002433E0FFF7E3FD0224F4
:109320002FE04B780A2B1ED00B2B21D0062B03D01D
:109330008A78154B9A6724E04B881B0A222B06D0AB
:10934000212B0AD000210A46FFF7AEFF19E0CA8898
:10935000362A28BF36220F49F6E7CA88092A28BFCD
:1093600009220D49F0E701220C49FFF79DFF08E0B3
:109370008A78054B9A6704E001220849FFF794FFB9
:109380000024204610BD00BF302F0020A02F002059
:10939000A42F002080020020CA020020A82F002055
:1093A00070B584B0044690F8CC158DF8081090F88C
:1093B000CD658DF8096090F8CF3590F8CE5505EB66
:1093C0000325ADB2ADF80A5090F8D13590F8D0250C
:1093D00002EB032292B2ADF80C2090F8D30594F87A
:1093E000D23503EB00239BB2ADF80E30C4F8403108
:1093F000012084F8110101F01F00012800F0AB8169
:10940000022800F0C88138B101F080012046FFF742
:1094100039FC002004B070BD092E00F29781DFE80E
:1094200016F01E017B0195013901950187000A00A4
:109430009501FF00AE00ADF806302B0A013B062B6C
:1094400071D8DFE803F0041D297070666B00D4F852
:10945000EC351B680DF10601A0789847BDF8062091
:10946000002AD6D0BDF80E30002BD2D09A4228BFA9
:109470001A46ADF8062001462046FFF715FFC8E75B
:10948000D4F8E4359B6A0DF10601A07898470223D1
:109490004370C4F8F005E1E7EDB2052D34D8DFE8FC
:1094A00005F0030B131B232BD4F8EC355B680DF18F
:1094B0000601A0789847D1E7D4F8EC359B680DF108
:1094C0000601A0789847C9E7D4F8EC35DB680DF1C0
:1094D0000601A0789847C1E7D4F8EC351B690DF177
:1094E0000601A0789847B9E7D4F8EC355B690DF12F
:1094F0000601A0789847B1E7D4F8EC359B690DF1E7
:109500000601A0789847A9E702A92046FFF7EAFCE0
:109510007FE702A92046FFF7E5FC7AE702A920468B
:10952000FFF7E0FC75E702A92046FFF7DBFC70E7D8
:1095300013431FD194F81231032B12D005F07F068C
:1095400084F81461002365F30A13226911680B4340
:1095500013602046FFF798FE46B1022384F81231CB
:1095600057E702A92046FFF7BDFC52E7012384F824
:1095700012314EE702A92046FFF7B4FC49E7EDB2ED
:10958000B24B83F87C50012D0AD894F81231022B8B
:109590000BD0032B1BD002A92046FFF7A3FC38E712
:1095A00002A92046FFF79EFC33E765B1012184F84C
:1095B0001011032384F812312046FFF735FB2046B3
:1095C000FFF762FE25E72046FFF75EFE21E7A5B123
:1095D00094F8101101291FD0D4F8E4355B682046B7
:1095E00098479A4B93F87C1084F810112046FFF7A7
:1095F0001BFB2046FFF748FE0BE7022384F81231DD
:10960000002184F81011D4F8E4355B6820469847AF
:109610002046FFF739FEFCE62046FFF735FEF8E668
:10962000012B0AD194F81231022B0BD0032B0FD04F
:1096300002A92046FFF756FCEBE602A92046FFF7F9
:1096400051FCE6E6012282492046FFF72DFEE0E6C6
:10965000012204F588712046FFF726FED9E694F82A
:109660001231023B012B10D8784B0022C3F8842022
:10967000D4F818311BB1754B0222C3F884200222A2
:1096800074492046FFF710FEC3E602A92046FFF703
:1096900029FCBEE6012D11D0022D7FF4BAAE12F0E6
:1096A000FF0F7FF4B6AE23695968130A013B042B00
:1096B0002ED8DFE803F0101D212529000123C4F86E
:1096C0001831D4F8E4359B6802A920469847204613
:1096D000FFF7DAFD9DE6012363F306115B4BC3F848
:1096E0008810012384F816312046FFF7CDFD90E65F
:1096F000022363F30611F1E7032363F30611EDE799
:10970000042363F30611E9E7052363F30611E5E794
:10971000012363F30611E1E794F81231023B012BB8
:109720000FD8012D7FF475AE0023C4F81831D4F89A
:10973000E4359B6802A9204698472046FFF7A4FD20
:1097400067E602A92046FFF7CDFB62E602A92046A4
:10975000FFF7C8FB5DE694F81231032B16D1D2B2A5
:10976000012A0ED8D4F8E4359B6802A92046984710
:10977000BDF80E30002B7FF44CAE2046FFF784FD81
:1097800047E602A92046FFF7ADFB42E602A92046C4
:10979000FFF7A8FB3DE6D3B201F06001202913D00A
:1097A000012E3ED0032E16D0002E7FF432AE94F858
:1097B0001211022900F09580032900F09B8002A974
:1097C0002046FFF78FFB24E6D4F8E4359B6802A916
:1097D000204698471DE694F81221022A06D0032A53
:1097E0000DD002A92046FFF77DFB12E613F07F0F94
:1097F0003FF40FAE19462046FFF744FA09E635B9A3
:1098000013F07F0F03D019462046FFF73BFAD4F838
:10981000E4359B6802A9204698472046FFF734FDAF
:10982000F7E594F81211022906D0032914D002A9F1
:109830002046FFF757FBECE513F07F0F3FF4E9AD4F
:1098400019462046FFF71EFAE3E500BF302F00203F
:10985000B02F0020B42F0020002D7FF4DAAD13F0DC
:109860007F0127D012F0800F28D103EB830204EB95
:10987000C20202F55D7203EB830004EBC000002519
:1098800080F8765380F8741380F8755304EB8101E7
:10989000486D01686FF35551D378023BDBB2012B61
:1098A00098BF41F080510160D4F8E4359B6802A96B
:1098B000204698472046FFF7E7FCAAE5282303FB4C
:1098C00001F303F58E7222442344002083F81E0125
:1098D00083F81C11012083F81D0104EB81018869C4
:1098E000D7E713F07F0F3FF494AD19462046FFF7FA
:1098F000C9F98EE512F0800F10D103EB830304EB5E
:10990000C30393F87633E3B1104B0122C3F88C20E4
:1099100002220F492046FFF7C7FC7AE503F07F03D8
:1099200003EB830304EBC30393F81E3123B1074B0E
:109930000122C3F88C20EBE7044B0022C3F88C20F3
:10994000E6E7024B0022C3F88C20E1E7302F00202D
:10995000BC2F002038B501F07F0404EB840100EB3C
:10996000C10101F55D7104EB840500EBC505C5F887
:109970008023C5F888330023C5F88C3385F8753308
:1099800085F87443C378012B02BF04EB84032B4694
:10999000C3F8842304EB840400EBC40494F8743308
:1099A0001BB9FFF7ADFA002038BDFFF70BFBFAE754
:1099B00010B50446114BD3F8983033B10F4B93F8E0
:1099C0009C2093F8B030134309D081212046FFF743
:1099D00059F90A4B93F8B030022B08D010BD012181
:1099E000FFF750F981212046FFF74CF9F6E71F23D6
:1099F000034A01212046FFF7ADFFEFE7302F00209B
:109A0000C02F002038B505460B4C0C4BC4F8B430C1
:109A100084F8C0100A4B002283F850290D2304F16A
:109A2000B4028121FFF772FB1F2304F19002012190
:109A30002846FFF78FFF38BD302F00205553425383
:109A4000381E002070B582B00D461446934BC3F803
:109A5000C40013785A2B00F23083DFE813F05B0068
:109A60002E032E037E002E032E032E032E032E0321
:109A70002E032E032E032E032E032E032E032E035E
:109A80002E03B9002E032E032E032E032E032E03C6
:109A90002E03DF00D3002E032E03DA002E032E0345
:109AA0002E032E032B012E035F012E032E038C01A8
:109AB0002E0330022E032E032E032E03FD022E034F
:109AC0002E032E032E032E032E032E032E032E030E
:109AD0002E032E032E032E032E032E032E032E03FE
:109AE0002E032E032E032E032E032E032E032E03EE
:109AF0002E032E032E032E032E032E032E032E03DE
:109B00002E032E032E032E032E032E032E032E03CD
:109B10002E03FF00614BD3F8983063B95F4BD3F845
:109B2000C8309B6808469847064670B95B4B0022D0
:109B3000A3F8CC206AE020220521584B93F89D0021
:109B4000FFF71AF84FF0FF3660E03A22022128466C
:109B5000FFF712F84FF0FF3658E0514B03F11201B6
:109B6000002203F8012F9942FBD14E4B70221A704C
:109B70000C22DA71494B93F8CE304B4A92F82029E7
:109B80009A4218D04749484A02EBC30292F8240986
:109B9000887092F82909087392F828294A730133CA
:109BA000DBB2042B19BF3D4A82F8CE303B4B00227A
:109BB00008BF83F8CE20394B1222A3F8CC2023799A
:109BC000934200F28282354AA2F8CC3000261DE092
:109BD000637813F0010F40F07C82304AD2F8C8302D
:109BE00001EBC105DB6903EB85052B790533217991
:109BF0008B4228BF0B46A2F8CC30002B40F06E827F
:109C0000002603E00026254BA3F8CC60304602B0C6
:109C100070BD0026214BA3F8CC60F7E71F4B08224C
:109C2000A3F8CC20214C04F10F03214914441878E7
:109C300001F80109A34203F1FF33F8D1174BD3F820
:109C4000C830DB682846984706460028DED0154A0B
:109C5000937863F07F0393700026D7E70F4B0822B9
:109C6000A3F8CC20114C04F11703114910341878D3
:109C700001F80109A34203F1FF33F8D1074BD3F8F0
:109C8000C830DB682846984706460028BED0054AFB
:109C9000D37863F07F03D3700026B7E7302F00201E
:109CA0003F56002040560020381E00205845070827
:109CB00047560020C14B03F10C01002203F8012B91
:109CC0008B42FBD1BE4BD3F8C8305B686A4601A912
:109CD000284698470646C8B9B84B0822DA70019959
:109CE0004A1E100E1871100C5871120A9A7101391F
:109CF000D97102221A72009A110C5972110A9972C2
:109D0000DA72AF4B0C22A3F8CC207FE73A22022173
:109D10002846FEF731FF4FF0FF3677E7A849D1F824
:109D2000C8305B6801F1D002D43128469847064616
:109D3000C8B9A348D0F8D4104A1EA04B140E1C700A
:109D4000140C5C70120A9A700139D970D0F8D020C6
:109D5000110E1971110C5971110A9971DA710823D8
:109D6000A0F8CC3052E73A2202212846FEF704FF41
:109D70004FF0FF364AE7934B93F85039002B37D119
:109D80008F4B93F99C30002B6DDA8D4BD3F8C83094
:109D90009B680846984700286FD1A278E3781B0497
:109DA00043EA026362791343227943EA0223844A35
:109DB000C2F8D830E079217A41EA0021C2F8DC10FB
:109DC0005818D2F8D42090425FD87E4A022082F8F8
:109DD00050097B48D0F8D02002FB03F3C0F8D830FC
:109DE00002FB01F1C0F8DC10D0F89820914254D168
:109DF00073494FF48053A1F8CC30D1F8DC409C4239
:109E000028BF1C46D1F8D020B4FBF2F3D1F8D8001B
:109E1000D1F8C8100E699BB2B0FBF2F26749284630
:109E2000B047002843DB664D2346644A8121D5F8BC
:109E3000C400FFF76BF9D5F8D8302344C5F8D83003
:109E4000D5F8DC301B1BC5F8DC30D5F8BC20141B62
:109E5000C5F8BC40002B40F03A815A4B032283F8EE
:109E600050290026D2E620220521554B93F89D006B
:109E7000FEF782FE4FF0FF36C8E63A22022128465E
:109E8000FEF77AFE4FF0FF36C0E621220521284674
:109E9000FEF772FE4FF0FF36B8E620220521484B50
:109EA00093F89D00FEF768FE4FF0FF36AEE61122F4
:109EB00004212846FEF760FE4FF0FF36A6E6414B30
:109EC00093F85039002B7FD13D4B93F99C30002BF8
:109ED00048DB3B4BD3F8C8309B68084698470028BE
:109EE0004AD1374BD3F8C830DB6828469847064636
:109EF000002849D1A278E3781B0443EA026362791F
:109F00001343227943EA02232D4AC2F8D830E0797C
:109F1000217A41EA0021C2F8DC105818D2F8D42086
:109F2000904239D82648D0F8D02002FB03F3C0F87D
:109F3000D83002FB01F3C0F8DC30D0F8982093420F
:109F400032D101211F4A82F85019B3F5805F28BF32
:109F50004FF480539BB2194A1948D0F8C400FFF758
:109F6000F9FC53E620220521154B93F89D00FEF7DE
:109F700003FE4FF0FF3649E63A2202212846FEF75B
:109F8000FBFD4FF0FF3641E6272202212846FEF76F
:109F9000F3FD4FF0FF3639E6212205212846FEF772
:109FA000EBFD4FF0FF3631E620220521044B93F8FC
:109FB0009D00FEF7E1FD4FF0FF3627E640560020FA
:109FC000302F0020381E00204B49D1F8DC40B4F57A
:109FD000805F28BF4FF48054D1F8D020B4FBF2F357
:109FE000D1F8D800D1F8C8104E699BB2B0FBF2F29C
:109FF00042492846B047002817DB3F4BD3F8D8200A
:10A000002244C3F8D820D3F8DC20121BC3F8DC208C
:10A01000D3F8BC10091BC3F8BC1072B90021D3F8E7
:10A02000C400FFF7EFFC0026F0E5032204212846D8
:10A03000FEF7A2FD4FF0FF36E8E5B2F5805F28BFDE
:10A040004FF4805293B22D4A01212B48D0F8C4001E
:10A05000FFF780FC0026D9E5637813F0020F1CD1CE
:10A06000A278E3781B0443EA0263627913432279FE
:10A0700043EA02232049C1F8D830E079227A42EA43
:10A080000022C1F8DC201344D1F8D42093420CD82C
:10A090000026194BA3F8CC60B8E5242205212846F8
:10A0A000FEF76AFD4FF0FF36B0E521220521284674
:10A0B000FEF762FD4FF0FF36A8E520220521284675
:10A0C000FEF75AFD4FF0FF36A0E500269EE500267C
:10A0D0009CE50723084AA2F8CC30094D013B9BB20E
:10A0E00001331D4405490B4415F8012D03F8012DDA
:10A0F0008B42F9D1002689E5302F00204056002000
:10A100005845070838B50446394B93F850391BB108
:10A11000012B5ED0002038BD364BD3F89420C3F815
:10A12000B820D3F89820C3F8BC20B0F8B4331F2B64
:10A1300005D1304BD3F890202F4B9A420DD02D4DA6
:10A140002022052195F89D00FEF716FD022385F8D3
:10A15000B0302046FFF72CFCDCE7264B93F89D102F
:10A160000129ECD893F89E30013BDBB20F2BE6D8E7
:10A17000224AFFF767FC002822DB1D4B93F8503979
:10A18000013BDBB2022BC5D91A4BB3F8CC30DBB1A3
:10A19000184AD2F898108B4228BF0B46D2F8BC1050
:10A1A000C91AC2F8BC10002182F8C010104A04215C
:10A1B00082F85019124A81212046FEF7A7FFA9E72D
:10A1C0002046FFF7F5FBA5E700212046FFF71AFC24
:10A1D000A0E7084B03F19F0293F89D10FFF732FCB4
:10A1E000002897DA01212046FFF70CFC92E700BF18
:10A1F000381E0020302F002055534243CF2F00201F
:10A200004056002010B504460D4B93F85039022BF0
:10A2100008D0033BDBB2012B02D80021FFF7F2FB91
:10A22000002010BD074B03F19F0293F89D10FFF72C
:10A2300009FC0028F4DA01212046FFF7E3FBEFE7F1
:10A24000381E0020302F002038B5044601EB810174
:10A2500000EBC101064DB1F88C132846FDF702FF53
:10A2600040232A4601212046FFF774FB002038BD19
:10A270001030002008B5FFF7E7FF08BD70B50646AF
:10A280000C46097811F0600535D0202D2DD1E288DB
:10A2900022B311F0800F0BD0254D29466078FDF7D1
:10A2A00041FFE28829463046FEF7FEFF002520E008
:10A2B0006178204BC3F8F4101F49C1F84429C0F855
:10A2C0009423C0F89023032380F81131134601F63C
:10A2D00048120021FFF73EFB00250AE00222A118E8
:10A2E0006078FDF71FFF002503E02146FEF7FAFD29
:10A2F0000225284670BD63780A2B08D00B2B0BD0A3
:10A30000062BF6D12146FEF7EDFD0225F1E70122ED
:10A310000A49FEF7C9FFECE7A3782BB9084A0021E8
:10A32000C2F820111D46E4E72146FEF7DBFDE0E719
:10A330008027002088010020381E00205030002097
:10A34000302F002008B50B7803F00303012B03D056
:10A35000022B09D0002008BD8B8813B9FEF7B4FF8B
:10A36000F9E7FFF78BFFF6E78B88832B02D0FFF727
:10A3700085FFF0E7FEF7A8FFEDE700BF38B504461C
:10A38000022340228121FEF719FD022340220121F0
:10A390002046FEF713FD0323082282212046FEF704
:10A3A0000DFD074B02221A7700255D77FDF704FFAC
:10A3B0004023044A01212046FFF7CCFA284638BD45
:10A3C000880100201030002038B504460D460323D4
:10A3D00009228321FEF7F2FC29462046FFF7CEFF33
:10A3E000002038BD10B50446002963D190F8113122
:10A3F000022B05D094F81631012B52D0002010BD4D
:10A40000D0F83831D0F82421934217D99B1AC0F8DC
:10A410003831C178012902BFD0F828115218C0F88C
:10A4200028219BB2D0F828210021FEF76FFE0023DF
:10A430001A4619462046FFF78DFADBE7D0F83C11A3
:10A44000B1FBF2F302FB13132BB98A4203D8D0F805
:10A450004031994214D3D4F8E435DB681BB194F849
:10A460001221032A1AD0052384F8113100231A4639
:10A4700019462046FFF76EFA2046FEF71DFDB9E7A4
:10A4800000231A461946FEF741FE0021C4F8401188
:10A490000B460A462046FFF75DFAABE72046984791
:10A4A000E1E723690A4AD2F888205A60002384F839
:10A4B0001631A3E70A46D0F8E4355B69002B9DD03E
:10A4C00090F81211032999D11146984796E700BFD9
:10A4D000302F002010B5044671BB90F81131032BCA
:10A4E00001D0002010BDD0F89023D0F87C339A42E0
:10A4F00014D9D21AC0F89023C178012902BFD0F82C
:10A500008013C918C0F88013934228BF13469BB22A
:10A51000D0F880230021FFF71DFAE2E7D0F8E435F8
:10A520001B691BB190F81221032A03D02046FEF7C5
:10A53000ABFED6E79847F9E70A46D0F8E4359B69C1
:10A54000002BCED090F812110329CAD1114698479A
:10A55000C7E700BF82B000230193019B43F01003C3
:10A560000193C368019A1A61C1680B690193064B94
:10A57000019A12F0100F03D00A690192013BF7D142
:10A58000002002B0704700BF400D030082B00023DE
:10A590000193019B43F020030193019B61F38A1314
:10A5A0000193C368019A1A61C1680B690193064B54
:10A5B000019A12F0200F03D00A690192013BF7D1F2
:10A5C000002002B0704700BF400D030008B511F035
:10A5D000800F03D1FFF7BEFF002008BD01F07F010F
:10A5E000FFF7D4FFF8E700BF70B506460C460B78BE
:10A5F00013F0600549D0202D7FD14A78FE2A05D07E
:10A60000FF2A28D0FEF76EFC022577E04A88E2B9DF
:10A61000CA88012A19D113F0800F16D0384DD5F809
:10A62000C8309B699847C0B285F8240138B101222F
:10A6300005F592713046FEF737FE00255EE02146B3
:10A640003046FEF74FFC022558E021463046FEF723
:10A6500049FC022552E04A888AB9CA887AB913F0BF
:10A66000800F0CD10025274B83F85059244A012133
:10A6700082F8B0101F239032FFF76CF93EE02146BC
:10A680003046FEF72FFC022538E04B780A2B21D00C
:10A690000B2B24D0012B31D10979FFF797FF2179BA
:10A6A0003046FEF725FBA18802234022C9B230467E
:10A6B000FEF784FB124B93F8B030022B14D094F9C0
:10A6C0000420002A1ADA012B18D001213046FFF7A6
:10A6D00099F913E001220C49FEF7E6FD0EE04A88E5
:10A6E000074B83F8252109E081213046FEF7CAFA9D
:10A6F000034B002283F8B02000E00025284670BDFF
:10A70000302F0020381E00205530002070B5044640
:10A71000FEF726FB0223402281212046FEF74EFB56
:10A720000223402201212046FEF748FB00250E4B64
:10A7300083F850590D4E86F8B050D6F8C8301B68D3
:10A740002846984701212046FFF740FF81212046F7
:10A75000FFF73CFF1F2306F1900201212046FFF77F
:10A76000F9F8284670BD00BF381E0020302F0020A9
:10A7700008B5012904D08321FFF728FF002008BD78
:10A78000FEF744FDFBE700BF82B000230193C168E0
:10A790000B6901930E4B019A002A06DB0A690192AC
:10A7A000013BF8D1002002B07047019B43F0010348
:10A7B0000193019B0B61C1680B690193044B019AE2
:10A7C00012F0010FEED00A690192013BF7D1E9E7DF
:10A7D000400D0300F8B51A4A92F85839002BFBD106
:10A7E00059B3461E0844471E154C01251BE0284658
:10A7F0003FF098F9D4F86039D4F85C290133C3F3F9
:10A800000A039342F3D0D4F8603916F8012F234499
:10A8100083F86829D4F860390133C3F30A03C4F814
:10A820006039BE4209D0D4F86039D4F85C290133CC
:10A83000C3F30A039342DAD0E5E70020F8BD00BF76
:10A84000381E002010B50C46FFF7C4FF204610BD8F
:10A8500008B5034BD3F8880846F026FA08BD00BFB8
:10A86000381E002010B50F4B0022C3F8482893F87B
:10A870001A3943B960F012FC48B10A4B042283F83C
:10A880004C28022010BD084BC3F82821F2E7054CE4
:10A89000092384F84C383EF007F9C4F83C0800203E
:10A8A000F0E700BF381E0020302F002038B50546E5
:10A8B0000C46104B93F84C38042B0CD0082B14D1B9
:10A8C0000C4BD3F84438834211D0FFF7CBFF02285A
:10A8D00001D001200AE0074B082283F84C28C3F876
:10A8E0004848C3F84458022000E0012038BD022047
:10A8F000FCE700BF381E00202DE9F04F85B08146EF
:10A900000E46904601AA02A93068FDF7D3FC4E4AD4
:10A9100041F63003D358029F1F443468019D013D26
:10A920004544FDF715FD2D1B0544B5FBF0FA4445E4
:10A9300080F084803D46BA4423E00B2232E0306848
:10A94000431C414A1278022A51D001998C420AD9FB
:10A950008A00C1F10101014421440398835001336D
:10A9600004328B42F9D13368019A9B1A2344336035
:10A97000B9F1010F4AD001350023019334684445F1
:10A980005DD2AAEB050B019F07EB08031C1BFDF72B
:10A99000DFFC844228BF0446002FCED1A04294BFE2
:10A9A0000A220B225B4603A92846FDF747FD07460E
:10A9B000012844D1B9F1010FC1D9B9F1020FDAD19F
:10A9C000214B1B78022B18BF0423DDF804C0A4EB35
:10A9D0000C0203FB02F2002103980CFB030069F058
:10A9E0006AFD3368019A9B1A1C443460C3E70199DD
:10A9F0008C42B8D94A00C1F10101014421440398B5
:10AA00008352013302329942F9D1ACE74345B2D1C6
:10AA10000D4B1B78022B08D004F18044013C039BB2
:10AA20004FF0FF3243F82420A5E704F10044013C35
:10AA3000039B4FF6FF7223F814209CE7012738464A
:10AA400005B0BDE8F08F00BF40660020F0B583B0D0
:10AA50000446002914BF022700270220474E06F5AE
:10AA6000C255043594F83C30042B7AD8DFE803F063
:10AA7000035D131F6B0039462046FDF70BFE0128CE
:10AA80006FD1636B1BB1022384F83C30EAE70123EA
:10AA900084F83C30E6E7626B04F130010020FFF7F8
:10AAA0002BFF01285DD1032384F83C30DAE741F223
:10AAB000C4717358E26A72509A1A06F5C2531B6841
:10AAC00003FB02F341F2A871725802EB4322725069
:10AAD00041F2AC71725802EB43237350002106F52A
:10AAE000BD50FDF7D7FD01283BD1042384F83C304D
:10AAF000B8E78BB24FF6F772934294BF002301235D
:10AB0000EBB901AA0020FDF739FF012827D1002168
:10AB1000206BFDF793FE012821D1019B2363013BAC
:10AB20002A68934228BF13462B60216B3378032B8E
:10AB3000DFD1134B994294BF00230123E0E70423A4
:10AB400084F83C308EE794F82830042B04BF0023AF
:10AB500084F82830A36B73B120469847012003B0D6
:10AB6000F0BD0228FBD194F82830042BF7D1002344
:10AB700084F82830F3E70120F1E700BF40660020A9
:10AB8000F7FFFF0F2DE9F04104460225334F07F58B
:10AB9000BE56043694F83830032B50D8DFE803F063
:10ABA00002323D4A33682361FDF7FAFBE368034450
:10ABB000E360FDF7CDFB336803443360FDF7F0FB42
:10ABC00041F2A872BB581B1ABB50FDF7E9FB41F2DA
:10ABD000AC72BB581B1ABB50D4F81080C4F830803C
:10ABE000FDF7B6FB40446063E36A2BB9C4F82480E8
:10ABF000012384F83830CDE7FDF7AAFBA8EB00006D
:10AC00002063F5E700211648FDF744FD05460128BD
:10AC100015D1022384F83830BCE7626B04F13001AF
:10AC20000120FFF769FE0546012808D1032384F8B7
:10AC30003830AFE700212046FDF72CFD05466B1E9E
:10AC4000DBB2012B02D92846BDE8F08194F8283008
:10AC5000062B04BF002384F82830F4E74066002068
:10AC6000E07D002010B58CB0002301930DF12F0280
:10AC70000292012203928DF810300C49059106933F
:10AC8000079308938DF824200A93094C84F8180937
:10AC900004F5086401A9204646F01CFD204647F053
:10ACA00021F99DF82F000CB010BD00BF118B0008DA
:10ACB000381E002030B591B0FD238DF83F301C4C7C
:10ACC0000023C4F8483800930193012502958DF8BC
:10ACD0000C3004930DF13F020592069307958DF811
:10ACE000203009930A930B930C938DF834500E93F4
:10ACF00004F508646946204646F0ECFC204647F01F
:10AD0000F1F82846FFF7AEFFFF280AD0084C0923C8
:10AD100084F84C383DF0C8FEC4F83C08002011B05F
:10AD200030BDA4F50863042283F84C280220F6E71E
:10AD3000381E002070B590B006460D460820FFF77B
:10AD400091FFFF2823D0FE2802D0022010B070BD52
:10AD500000240194029603958DF810400594069402
:10AD60000794022308938DF824400A940B940C94C2
:10AD70000D9401238DF838300F94064D01A9284613
:10AD800046F0A8FC284647F0ADF82046DEE7012053
:10AD9000DCE700BFB826002010B58CB0002301937B
:10ADA0000DF12F020292012203928DF810300E490C
:10ADB00005910693079308938DF824200A930B4C72
:10ADC00084F8180904F5086401A9204646F082FCBD
:10ADD000204647F087F89DF82F00FF2814BF002079
:10ADE00001200CB010BD00BF358B0008381E0020BC
:10ADF00010B592B0044640F040038DF840300B0E81
:10AE00008DF841300B0C8DF842300B0A8DF8433031
:10AE10008DF8441095238DF8453010AB0093002336
:10AE20000193062202928DF80C30049305930DF1E4
:10AE30003F020692012207928DF820300F490991B6
:10AE40000A930B930C938DF834200E930820FFF790
:10AE5000A3FF00B984B90A4C082384F8183904F513
:10AE600008646946204646F035FC204647F03AF82B
:10AE70009DF83F0012B010BDFF20FBE7118B0008CA
:10AE8000381E002010B5064C04F5086047F02AF87B
:10AE90000A203EF0C1FCD4F8880845F00BFF10BD35
:10AEA000381E00202DE9F04104460F4616461D4687
:10AEB000194890F84C08042808D0082802D000202F
:10AEC000BDE8F081FFF7F6FE022823D1FFF7C0FCB2
:10AED000114B93F84238BBB961021120FFF788FF8C
:10AEE000A0B9DFF83480C8F82878C8F82C48C8F82A
:10AEF0003468C8F83858052388F84C383DF0D4FD3C
:10AF0000C8F83C080120DBE72146E6E7FFF7BAFF77
:10AF10000020D5E70020D3E7381E00200379002B5E
:10AF200014BF012200222C4B83F8782803D1002281
:10AF300083F84C287047F0B58BB0044690F90010A8
:10AF4000264846F02BFDA078002839D10024224E57
:10AF5000C6F8884806F6280406F508670121384631
:10AF600046F0FCFBC6F814491D4846F055FD014665
:10AF7000384646F0F5FB4FF47A703EF0D3FDD6F834
:10AF8000880845F097FE6C46164D0FCD0FC40FCDC7
:10AF90000FC495E8030084E803006946384646F08C
:10AFA00099FB384646F09EFF3DF07EFDC6F83C0812
:10AFB000012386F84C38002386F840380BB0F0BDEA
:10AFC00045F0A4FC044600221E2145F027FE09217D
:10AFD000204645F0CDFDBAE7381E0020B8260020F7
:10AFE000801A06007045070808B5012220218078E4
:10AFF00046F054FB08BD00BF430900F01F020121C9
:10B00000032B01FA02F004D0042B06D0022B02D04D
:10B01000704708F027B908F017B908F03FB900BF2A
:10B0200010B310B504460068174B00F13F4202F51B
:10B030007E0203EB9223012193F8403003F01F02BC
:10B040005B09032B82B001FA02F218D0042B11D055
:10B05000022B0AD0A388009369464FF080730193B6
:10B0600008F09CF902B010BD7047104608F0ECF8EB
:10B070002068EFE7104608F011F92068EAE710466B
:10B0800008F0F0F82068E5E7584507082DE9F04397
:10B0900007683B78012B93B007D0022B01D13B6AA4
:10B0A00043B1002013B0BDE8F08347F02FF913B08F
:10B0B000BDE8F083164661F07F0101220DF107051E
:10B0C0004FF000084FF00009CDE90633CDE90C89B7
:10B0D00004468DF8071003938DF8143008960B93EF
:10B0E0000E9310930295049209928DF828208DF802
:10B0F0003C20EFF31185102383F3128803681B6A49
:10B1000003B3049B02A802461BB1D3691432002B7F
:10B11000FBD13B6AF3B1996839B99A4209D01968F1
:10B1200029B15B6899680029F7D01433F3E7C3E9C4
:10B130000040EDB285F311882268136A002BFCD120
:10B140000120AFE702ABEDB23B6285F3118862F0FC
:10B150005DFAF1E71C60FFDE144A154BD2F82C2192
:10B16000B3EB920F15D2B3EBD20F14D2B3EB121F85
:10B1700013D2B3EB521F12D2B3EB921F11D2B3EB27
:10B18000D21F10D2B3EB122F34BF4FF48070802047
:10B190007047022070470420704708207047102035
:10B1A0007047202070474020704700BF302F00209C
:10B1B00080969800002800F08780F0B58788B7FA5D
:10B1C00087F3202B85B00446C3F11F0255D0DFF86A
:10B1D00008C13E4D0CEB02064FF0004005EB820229
:10B1E00030FA03F396F84860C2F8301105D0384AB7
:10B1F000116821EA030111605361206800F13F43A7
:10B2000003F57E030CEB932C01219CF8403003F0F6
:10B210001F025B09032B01FA02F24FD0042B47D027
:10B22000022B3FD0002302A90393029708F0B6F83F
:10B23000A1882068B1FA81F100F13F40C1F11F01FE
:10B2400000F57E00C9B2C0F3872007F023FAA28878
:10B250004FF00043B2FA82F23544D3404FF400611C
:10B26000012202A80293ADF80C108DF80E2007F011
:10B2700019FC95F87031F02B01D805B0F0BD154BD5
:10B280009B5D8DF80430F02103224FF4807301A8F8
:10B2900085F870118DF80520ADF8063007F012FA28
:10B2A00005B0F0BD104607F0CFFFA7882068B9E7CA
:10B2B000104607F0F3FFA7882068B3E7104607F0B1
:10B2C000D1FFA7882068ADE7704700BF302F00206E
:10B2D000003C014010DE070858450708054B93F86D
:10B2E0007721002AFBD1D3F8D83C03491B6801F130
:10B2F0000A001847302F0020AA30002008B5036844
:10B300001A78022A07D0012A01D0002008BDBDE822
:10B31000084047F011B81B6A002BF6D1012246F015
:10B32000FBFC012008BD00BF9FED727A07EE901A6A
:10B3300020EE070AF8EE677A27EE800AFDEEC07A63
:10B3400017EE903A2033402B00F2C480DFED6A7A8A
:10B35000B4EEE70AF1EE10FAF0EE407A0CDD9FED64
:10B36000676ADFED676AB0EE677AB4EEE67AF1EE0F
:10B3700010FA77EEC67AF6DC9FED627AF4EEC77AC1
:10B38000F1EE10FA0CD59FED5D6ADFED5F6AB0EE6D
:10B39000677AB4EEE67AF1EE10FA77EE867AF6D4B2
:10B3A0009FED5A7AF4EEC77AF1EE10FA00F38A8034
:10B3B0009FED577AF4EEC77AF1EE10FA44BF9FED95
:10B3C000517A77EE677A27EEA76ADFED525A9FED42
:10B3D000527ADFED526AA6EE257A67EE865AE6EEDD
:10B3E000076AB6EE007AE5EEA67A27EE877ADFEDF9
:10B3F000476A70EE267ABDEEE76A16EE103A203301
:10B40000402B64D8B4EEE60AF1EE10FA0CDDDFED65
:10B410003B5A9FED3B6AF0EE676AF4EEC66AF1EEC6
:10B4200010FA77EEE57AF6DCDFED366AF4EEE67ACE
:10B43000F1EE10FA0CD5DFED315A9FED336AF0EEE4
:10B44000676AF4EEC66AF1EE10FA77EEA57AF6D4E2
:10B45000DFED2E6AF4EEE67AF1EE10FA3DDDDFED77
:10B46000266A76EEE77A67EEA75A9FED2A5A9FED95
:10B470002A6ADFED2A6AA5EE856A27EEA55AE5EE6F
:10B48000866AB8EE006AE5EE267A67EE867AC7EE3F
:10B49000206AB7EE006A76EE865A76EE666A86EE27
:10B4A000257A80ED091A67EE277A66EE876AC0ED85
:10B4B000017AC0ED037A80ED007A80ED027AC0ED6A
:10B4C000046A70479FED0C7A77EE677A7BE7DFEDD1
:10B4D000147ADCE79FED127A89E7DFED0D6AF4EE6E
:10B4E000E67AF1EE10FA44BFDFED066A76EEE77A0F
:10B4F000B9E700BF27D4D236DB0F4940DB0FC94084
:10B50000E4CB1641DB0F49C0E4CB16C1DB0FC93FCA
:10B51000DB0FC9BF92E741B99730083C15A82ABE96
:10B52000000000002DE9F041D64EDFF8B0E3377897
:10B530002DED028B07EE100A002F42D0BEF8E23C40
:10B540009FEDD15ADFEDD15A07EE903AF8EE677AC7
:10B55000F8EE476A85EE276A0023012FC6F84C31C2
:10B5600066EEA56A36EE266AC6EE867AC6ED547A8F
:10B5700027D0022FC6F85431C6ED567A21D0032FBA
:10B58000C6F85C31C6ED587A1BD0042FC6F864317A
:10B59000C6ED5A7A15D0052FC6F86C31C6ED5C7A27
:10B5A0000FD0062FC6F87431C6ED5E7A09D0072F8A
:10B5B000C6F87C31C6ED607A03D0C6F88431C6ED9A
:10B5C000627A9EF8DC0C002800F03A81B8EE471A47
:10B5D000DFEDAF6A9EF8DD3C86ED687AC6EE815AF3
:10B5E000C6F88C0107EE903ABEF8E03CDFEDA92AE0
:10B5F0009FEDA96AC6ED655A07EE103ABEF8DE3C2B
:10B60000F8EE677AB8EEC77A06EE903A27EE066A49
:10B61000F8EE666AC6ED647A67EEA27A86ED676A2E
:10B6200067EE812AC6ED666A002F00F0E880DFED44
:10B630009B7A9B4D9FED9B3ADFED9B4A87EE872AD5
:10B64000C7EB0713A7EB071805EBC3054FEAC808BC
:10B650004FF0000CF1EE421A9FED945A08EB0504EE
:10B66000DFED933A9FED934ADFED935A2346002294
:10B6700007EE902AB8EEE77A27EE227AFDEEC77A37
:10B6800017EE901A2031402900F2DE80B4EEC37A22
:10B69000F1EE10FAF0EE477A0CDDDFED880A9FED4F
:10B6A000886AF0EE676AF4EEC66AF1EE10FA77EE99
:10B6B000E07AF6DCF4EEE47AF1EE10FA0CD5DFED88
:10B6C0007F0A9FED806AF0EE676AF4EEC66AF1EEDB
:10B6D00010FA77EEA07AF6D4F4EEC57AF1EE10FA0D
:10B6E00040F3BC8073EE677A67EEA76AB0EE440A57
:10B6F000A6EEA30A9FED746AA6EE806A66EEA70A1C
:10B70000F7EE006AE0EE867AB0EE668AB0EE666A20
:10B71000A2EE276AA1EEA78AC6EE860A88EE060A7E
:10B7200077EE057AFDEEE76A16EE901A2031402991
:10B7300000F29180B4EEC57AF1EE10FA0CDD9FEDC7
:10B740005F8ADFED5F6AB0EE677AB4EEE67AF1EE1B
:10B7500010FA77EEC87AF6DCF4EEE47AF1EE10FA3D
:10B760000CD59FED568ADFED576AB0EE677AB4EEDE
:10B77000E67AF1EE10FA77EE887AF6D4F4EEC57A2E
:10B78000F1EE10FA74DD73EE677A67EEA76AF0EEF9
:10B79000448AE6EEA38A9FED4C7AA6EEA87A26EEBE
:10B7A000A78AF8EE006AE8EE077A67EEA67A87EED7
:10B7B000867A0132904203F1280343ED040A03ED37
:10B7C000037A03ED017A43ED020A83ED000AC3ED2B
:10B7D000055AC3ED025AC3ED015AC3ED045AC3ED35
:10B7E000035A3FF745AF7834A5427FF439AF0CF5E3
:10B7F000707CBCF5346F05F570757FF42DAF9EF845
:10B80000083D9FED326A9FED327A07EE903AF8EEEE
:10B81000E77A10FB07F2C6EE276A2E4B00EE102ADD
:10B82000B8EEC00AC3ED006A20EE070A20EE010A56
:10B8300067F0ACFFBDEEC00A10EE103AC6F8E83C67
:10B84000BDEC028BBDE8F081B7EE000AF0EE400AD5
:10B85000B0EE406A64E7F0EE657AA8E7DFED1E6AB5
:10B86000F4EEE67AF1EE10FA48BF74EEE77A3BE7C1
:10B870009FED197AF4EEC77AF1EE10FA48BF74EE34
:10B88000E77A82E70400001083F9223EBD3786354F
:10B890000060EA4827D4D2360AD7233C0000484249
:10B8A00090010010DB0F4940DB0F49C0DB0FC93F9F
:10B8B00092E741B99730083C00000000DB0FC94017
:10B8C000E4CB1641E4CB16C115A82ABE5555554008
:10B8D0006E12833AE80C0010DB0FC9BF302F002036
:10B8E0002DE9F04F07EE900A2DED068B9FEDEF7AD4
:10B8F000EF4B9FEDF06AB3F80C2DEF4F93F8125D0C
:10B90000C7F8F85CB8EE679A0AEE102AC7EE096A23
:10B91000B3F80E2DDFF8E493C7F83C0D83B0DFF8E1
:10B92000E0A3CDF8049009F12C0408EE102AB3F836
:10B93000102DDFEDE27AB8EE4AAA08EE902A3AEE30
:10B940000A7AB8EEC88AF8EEE88AB4EEC78A68EEDA
:10B95000A77AF1EE10FAF4EEC66AB8BFB0EE478AE5
:10B9600007F6EC43F1EE10FAC3ED007A58BF07EE8C
:10B97000905AB6EE006A58BFF8EEE77A26EE866A6D
:10B980005CBFB7EE007AC7EE279A4FF0000244BFC3
:10B99000C7F8F82C1546C7F8FC2CC6EE087AB7EEA7
:10B9A000007AF4EEC77A48BFDFEDC59A9FEDC56A0D
:10B9B00083ED028AF1EE10FAB8BFF0EE477AFDEEA1
:10B9C000E77A83ED01AA17EE906AF8EEE77A4B4624
:10B9D000C6EEA7AA012EC7F8986FB8BF0126C7EE1A
:10B9E000276A6AEE86AAE3EC016A8AEE2A0AC3EDA8
:10B9F00000AA67F011FF0228B8BF022088EE2A0AC9
:10BA00008346C7F8A40F67F007FF23280BF1FF3B1D
:10BA1000A8BF2320411CBBF1230F019B9AF8B82536
:10BA2000C7F8A80FDFEDA87AD3ED05AAA8BF4FF09D
:10BA3000230B2329884669EE277AA8BF4FF02308F5
:10BA400014338B45C8BFD846A8EB0B07019397FB6F
:10BA5000F6F7C9ED047A0137002A40F0E380DFED04
:10BA60009B0ADFED9B5A9FED9B2A9FED9B5ADFEDD2
:10BA7000A82A9FEDA83ADFEDA83A9FED984ADFED9E
:10BA8000A71A0AF2BC5107EE902AB8EEE76A66EEF2
:10BA9000207A37EEA57AFDEEC76A16EE903A20338B
:10BAA000402B00F21582F3EE026AB4EEE66AF1EE84
:10BAB00010FA0CDDDFED944ADFED926AB0EE471A22
:10BAC000B4EEE61AF1EE10FA37EE647AF6DCB4EE74
:10BAD000C57AF1EE10FA0CD5DFED8B4ADFED8B6AFB
:10BAE000B0EE471AB4EEE61AF1EE10FA37EE247A09
:10BAF000F6D4B4EEE57AF1EE10FA40F3EC81DFED26
:10BB0000786A36EEC77A67EE076AB0EE431AA6EE99
:10BB1000A21AB0EE630AA1EE260A67EE264AA4EE48
:10BB2000807A27EE047AFDEEE76A16EE903A20332B
:10BB3000402B00F2CA81DFED6B6AB4EEE66AF1EEEB
:10BB400010FA40F3F6819FED700A9FED6E1AF0EE49
:10BB5000676AF0EE664AF4EEC14AF1EE10FA76EE4C
:10BB6000C06AF6DC9FED5E1AF4EEC14AF1EE10FAFF
:10BB700013D59FED651ADFED654AB0EE660AB4EEA7
:10BB8000E40AF1EE10FA76EE816AF6D4DFED556A3A
:10BB9000B4EEE66AF1EE10FA0CDD9FED5B6ADFEDC4
:10BBA000596AF0EE674AF4EEE64AF1EE10FA77EEE3
:10BBB000C67AF6DCF4EEC57AF1EE10FA0CD59FEDFC
:10BBC000526ADFED526AF0EE674AF4EEE64AF1EEB1
:10BBD00010FA77EE867AF6D4F4EEE57AF1EE10FA02
:10BBE00040F38181DFED3E6A76EEE77A67EEA76A81
:10BBF000F0EE434AE6EEA24AB0EE631AA4EEA61AAD
:10BC000027EEA66AE6EE017A67EE847A0132242AEC
:10BC100081ED007AC1ED017A01F108017FF433AFC3
:10BC2000DFED31AA4FF0000944E9059B44E90276B3
:10BC30004FF490720021204644F80C8C68F03BFCD5
:10BC40004FF49072A018002168F035FC274B04F5E2
:10BC50001574A342E8D1019BDFED257AC3ED00AA5C
:10BC6000012329EE279A8AF8B835002D00F02881A3
:10BC7000DFED207A204E9FED1A2ADFED172AC7EE5E
:10BC8000A81AA6F1140406F5117738EE4A8AB1EE27
:10BC9000611A69EE889ADFED0E5ADFED0E6A2346CF
:10BCA00030460022B7EE005A3CE000BF0024744941
:10BCB000302F00200000FA44040000100AD7233C73
:10BCC0000000807F398E633C9C534937C3B8B23D36
:10BCD000DB0FC93F00000000DB0F49C072F97F3F56
:10BCE000DB0F494000001042BC297E3FC8160010FF
:10BCF00027D4D23600004842040D0010A00F0010D7
:10BD0000FC100010E4CB1641DB0FC940E4CB16C198
:10BD100092E741B99730083C15A82ABEDB0FC9BF8E
:10BD2000000010C207EE902AF8EEE77AB6EE007A2D
:10BD300077EE877AB0EE4A7AA7EEA97AF0EE477AE4
:10BD400029EE077AE0EC017AFDEEC77A17EE901A39
:10BD50002031402900F2D280B4EEC27AF1EE10FA1E
:10BD6000F0EE477A0CDD1FED184A5FED1A4AB0EE8F
:10BD7000676AB4EEE46AF1EE10FA77EEC47AF6DCA4
:10BD8000F4EEE27AF1EE10FA0CD51FED214A5FEDE8
:10BD9000214AB0EE676AB4EEE46AF1EE10FA77EE8B
:10BDA000847AF6D4F4EEE57AF1EE10FA40F3B78037
:10BDB00072EE677A67EEA74A5FED2B3A1FED2B4ACA
:10BDC0001FED2B6AA4EEA34A67EEA43AA4EE246A00
:10BDD000F0EE454AE3EE867AB0EE456AE1EE274A98
:10BDE000A1EEA76A84EE864AC5EE064A77EE257A6A
:10BDF000FDEEE73A13EE901A203140297BD8B4EEDD
:10BE0000E57AF1EE10FA0CDD1FED413A5FED433AB1
:10BE1000B0EE677AB4EEE37AF1EE10FA77EEC37A19
:10BE2000F6DCF4EEE27AF1EE10FA0CD51FED4A3AA8
:10BE30005FED4A3AB0EE677AB4EEE37AF1EE10FACB
:10BE400077EE837AF6D4F4EEE57AF1EE10FA5CDD63
:10BE500072EE677A27EEA73A5FED530A5FED533A29
:10BE60001FED537AE3EE203A63EE270AA3EE237A1E
:10BE7000F8EE003AE0EE877A67EEA37A87EE867AEC
:10BE80000132AA4203F12803C3ED0B4A83ED0C7A79
:10BE900083ED0E7AC3ED0D4A83ED0F4A83ED145AFC
:10BEA000C3ED116AC3ED106AC3ED136AC3ED126AE4
:10BEB0007FF438AFC834A74206F114067FF4EBAE26
:10BEC00003B0BDEC068BBDE8F08FF0EE427A9DE644
:10BED000B0EE427A27E6B4EEE17AF1EE10FA48BF0E
:10BEE00035EE477A0FE6F4EEE17AF1EE10FA48BF4C
:10BEF00075EE677A7AE6F0EE667ABFE7B7EE004A4B
:10BF0000F0EE444AB0EE446A70E71FED7C7AF4EE3E
:10BF1000C77AF1EE10FA48BF72EEE77A9AE71FEDA2
:10BF2000816AF4EEC67AF1EE10FA48BF72EEE77A53
:10BF300040E75FED856AB4EEE66AF1EE10FA48BFBD
:10BF4000F0EE676A3FF515AE34E600BF0C480D4BC6
:10BF5000D0F8281D10B40C4CC0F8183D8A1E2231B0
:10BF6000B0F8463D1B01A4FB03C3DB08A3F5B06397
:10BF700022F8023F9142F3D15DF8044B704700BFB5
:10BF8000302F002039740208CDCCCCCC2DE9F04FF5
:10BF90004F4FDFF8448187B007F10C0607F1CC0A58
:10BFA000A7F5576901252CE0022B00F08680BBF82D
:10BFB0000410B1FA81F1C1F11F0189B207F0DAF979
:10BFC0000222BBF804300592DBF80000049304A9B8
:10BFD00007F0E4F9B9F86C1DB9F86E3D3D4A0091DF
:10BFE000002001350190B2FBF3F330469BB22146AD
:10BFF000EDB235F075F80123092D737406F11806BA
:10C000004DD017F801BBBBF1000F48D04FEA1B140D
:10C01000013C052C0BF00F0144D808EB4403B3F8A6
:10C02000580040FA01F212F001024ED001238B4079
:10C03000013B1840444466F075FA94F864301844A3
:10C040000AEBC00004227061C571827158462A460D
:10C0500004213DF0E1FA044608B3D6F814B0BBF170
:10C06000000FB7D0DBF80000227A00F13F4303F560
:10C070007E0308EB9323012193F8403003F01F0C5B
:10C080005B09032B01FA0CFC0FD0042B8CD160460A
:10C09000039207F003F9DBF80000039A87E707B083
:10C0A000BDE8F08F00237361D0E76046039207F08C
:10C0B000D9F8DBF80000039A79E76046039207F0AD
:10C0C000C3F8DBF80000039A71E77261BEE700BFB6
:10C0D000A03C002040420F005845070870B57D4E37
:10C0E00082B096F8400D96F8415D44F00FFC60B3C5
:10C0F0000368794A03F13F4303F57E0302EB932380
:10C10000044693F8403003F01F005B0901212D2203
:10C11000032B01FA00F0E28000F09E80042B00F077
:10C120008780022B00F081804FF08072A3880192FB
:10C1300020680093694607F031F90A203DF06CFB56
:10C14000204644F0C5FD00286DD15FF0DDFC0028DD
:10C1500069D1013D092D66D896F83F4DDCB94020E4
:10C160003AF048FD00285ED090F904305B4A96F81A
:10C17000151D092BC8BF143B13440A2993F84440EA
:10C1800000F09C8093F8503096F83E2D002A08BFAE
:10C190001C46002C47D0204644F0B8FB044600283B
:10C1A0005DD02D23C380012144F0E2FC012108462B
:10C1B0003EF086FF2368A2881A833C203DF0B2FC43
:10C1C000002101203EF07CFF96F8413D0BB3002595
:10C1D000002108463EF074FF002102203EF070FF6F
:10C1E0002368A2885A8378203DF016FB01210020A5
:10C1F0003EF066FF012102203EF062FF2368A28824
:10C200001A8378203DF008FB96F8413D0135AB429A
:10C21000DEDC96F83F3DBBB9D6F8403D03F0FF1396
:10C22000B3F5803F07D002B070BD07F00DF87BE793
:10C2300007F034F878E75FF067FC0028F3D186F860
:10C24000410D4EF085FAEEE732203DF06BFC2046C2
:10C25000002144F08DFCDFE707F004F864E70121DA
:10C2600044F086FC012108463EF02AFF3C203DF0C8
:10C2700059FC214601203EF023FF96F8413D25461A
:10C28000002BC6D0002108463EF01AFF00210220F4
:10C290003EF016FF78203DF0BFFA012100203EF06D
:10C2A0000FFF012102203EF00BFF78203DF0B4FA91
:10C2B00096F8413D01359D42E4DBAAE7936E5B05AC
:10C2C000B1D50BF0B7FD0028ADD1002C7FF463AFE2
:10C2D000A9E700BF302F002058450708284000205C
:10C2E0002DE9F047041E0D4612DB092C26DC824A9C
:10C2F0000B468248A0FB0410C00800EB8000A4EBB2
:10C3000040000021125C1A7059702846BDE8F08781
:10C3100064422D23092C01F8013B24D8764A774B3F
:10C32000A3FB0403DB0803EB8303A4EB430300201C
:10C33000D35C48700B702846BDE8F0876F4B632CC8
:10C34000A3FB04264FEAD60621DC6B4A0B466B4959
:10C35000A1FB0601C90801EB8101A6EB4101515C7B
:10C3600003F8011BC5E7654A632CA2FB04364FEABC
:10C37000D60637D8604A614BA3FB0603DB0803EB04
:10C380008303A6EB4303D35C01F8013BC7E7A3FBA0
:10C390000627B4F57A7F4FEAD7070DD2564A0B46E7
:10C3A0005649A1FB0701C90801EB8101A7EB410137
:10C3B000515C03F8011BCAE7A3FB072842F20F7286
:10C3C00094424FEAD80836D84B4A0B464B49A1FB5A
:10C3D0000801C90801EB8101A8EB4101515C03F898
:10C3E000011BDDE7A2FB0637B4F57A7F4FEAD707DA
:10C3F0000CD2414A414BA3FB0703DB0803EB830349
:10C40000A7EB4303D35C01F8013BB4E7A2FB073879
:10C4100042F20F739C424FEAD80821D8364A374B74
:10C42000A3FB0803DB0803EB8303A8EB4303D35C04
:10C4300001F8013BDEE7324AA3FB080994424FEAC8
:10C44000D90921D82C4A0B462C49A1FB0901C9085E
:10C4500001EB8101A9EB4101515C03F8011BB5E738
:10C46000274BA2FB08099C424FEAD90921D8224A4E
:10C47000224BA3FB0903DB0803EB8303A9EB430374
:10C48000D35C01F8013BCAE71E4AA3FB09039442AF
:10C490004FEAD30A21D80B461849174AA1FB0A01D3
:10C4A000C90801EB8101AAEB4101515C03F8011BB2
:10C4B000CAE7144BA2FB09029C424FEAD20A13D8E6
:10C4C0000E4B0D4AA3FB0A03DB0803EB8303AAEB25
:10C4D0004303D35C01F8013BCAE70A22BAFBF2F03E
:10C4E0004DF068FF0346D7E70A22BAFBF2F04DF0A1
:10C4F00061FF0146E4E700BF74DD0708CDCCCCCC7A
:10C500009F8601003F420F0070B5084CE26E054661
:10C510005AB10026E06E2D21013646F0BBF8AE423E
:10C52000F8DBBDE870404BF0A1B870BD284000209A
:10C5300010B50446006806F0ADFD0D4BD3F82C2174
:10C54000204652084FF6FF713CF064FE002211466F
:10C5500020463CF01BFD0749074BC1F8D838204660
:10C560000022BDE8104001F6D8013CF0C5BD00BF77
:10C57000302F00202840002085250208114B70B57F
:10C58000D3F82C41054600680E46640806F082FD8B
:10C59000B4FBF6F1B1F5803F03D3012CFAD964085E
:10C5A000F6E72246284689B23CF034FE0649074B9E
:10C5B000C1F8D43828460022BDE8704001F6D40105
:10C5C0003CF09ABD302F002028400020E5270208CB
:10C5D0002DE9F04FCD4C8DB000270090A4F6E70573
:10C5E00004F2213B04F2113954F80B0C002800F03E
:10C5F000FD803DF0F7FC0646002800F0CF81D5F81D
:10C600007C3B44F8073CE0260023A4F10B0A04F825
:10C61000033C06FB075654F80B0C3DF0E3FC0028E6
:10C6200000F0E48054F80B0C3DF0D4FC14F8023C0C
:10C630005A1E80460B2A0DD8DFE812F01F003A0080
:10C640004600530082009900E100130132013D01D0
:10C650006E01850124280CD0009A3AB995F8EE2B8A
:10C66000824240F07681012204F8032C0D2BD2D1B6
:10C6700084E0012304F8023CCDE700234D28C4F8F0
:10C68000C53084F8CD3084F8CE3004D0582808D096
:10C6900004F8023CBFE7022204F8022C84F8C430FC
:10C6A000B9E7032304F8023C022384F8C430B2E75C
:10C6B00004233C2804F8023C0BD0B8F13E0F0CD008
:10C6C000002304F8023CA6E70A233C2804F8023CB5
:10C6D000F3D1002304F8013C9DE7012304F8013C59
:10C6E00099E7D4F8C5305A1C3344C4F8C52083F800
:10C6F000E70894F8CD00022A88EA000184F8CD10FA
:10C7000089D12378C02BDBD86278FF2A08D1052B8A
:10C71000D6D9012384F8C430072304F8023C7AE711
:10C72000A4F8C12000229342C4F8C93014BF0523E5
:10C73000062384F8C320C4F8C52004F8023C6AE745
:10C74000D4F8C5305A1C3344C4F8C52083F8E70830
:10C7500094F8CD00D4F8C93088EA00019A4284F8F0
:10C76000CD107FF458AF062304F8023C53E794F849
:10C77000CD308342A4D10D2304F8023C14F801CC3F
:10C78000BCF1000F40F0EB80614B08940FCB04AE7E
:10C7900086E80F00D4F8C930D4F8D100ADF82AC02B
:10C7A00023440993B4F8C130ADF8283094F8C3306D
:10C7B0008DF82C3001238DF82D30324603AB08A9BB
:10C7C000CDF80CC036F050FF48B1524930464DF01C
:10C7D00055F894F8C4203146504636F0C1FB039E0C
:10C7E000002304F8023C002E40F0D0800137032FD4
:10C7F00004F1E0047FF4F8AE0DB0BDE8F08FD4F89A
:10C80000C520531C3244C4F8C53082F8E70894F8B8
:10C81000CD200193424084F8CD200146D52294F8E2
:10C82000CE004DF00BFE019B84F8CE00072B7FF469
:10C83000F2AEB4F80530C02B3FF642AFB4F8032097
:10C84000A4F8C120A27884F8C32000229342C4F83F
:10C85000C93014BF08230923C4F8C52004F8023CDA
:10C86000D9E6D522014694F8CE004DF0E7FD94F8C4
:10C87000CD3084F8CE0088EA030384F8CD30D4F8B4
:10C88000C5305A1C3344C4F8C52083F8E788D4F86F
:10C89000C9309A427FF4BFAE092304F8023CBAE6DD
:10C8A00094F8CD30434084F8CD3094F8CE308342B4
:10C8B0007FF406AF57E7D4F8C520531C3244C4F8C0
:10C8C000C53082F8E7080146D52294F8CE000193DE
:10C8D0004DF0B4FD019B84F8CE00052B7FF49BAE98
:10C8E000B4F80120B4F80330A4F8C120227884F809
:10C8F000C32000229342C4F8C93014BF0B230C2379
:10C90000C4F8C52004F8023C85E600BF0F490020AA
:10C91000C4450708C4900120D522014694F8CE00F2
:10C920004DF08CFDD4F8C53084F8CE005A1C334449
:10C93000C4F8C52083F8E788D4F8C9309A427FF458
:10C940006AAE0C23A4E694F8CE3083427FF4B8AEEE
:10C9500011E7232804BF022204F8032C86E6BCF169
:10C96000010F4FF0000602D004F8026C3EE7D4F845
:10C97000C93008942344099308A8B4F8C130CDE91C
:10C980000A66ADF8283031F013FDEDE754F80B0CD2
:10C990003DF015FB54F80B0CB04727E714F8033CA7
:10C9A000002B3FF423AFD5F87C1B54F8072C8A1AD0
:10C9B000632A7FF61BAF012B29D0022B7FF416AF21
:10C9C00054F80BACC5F8F4AB0123504685F8F03BA6
:10C9D0004DF0C8FB0F4BC5F8F83B4023A5F8043CCD
:10C9E0000D48C5F8FCABC5F800BCC5F86C90C5F89F
:10C9F000489C4AF03FFE4FF400503BF097FE07483A
:10CA00004AF02CFE85F84C6C85F84D6CEEE65FF034
:10CA100097F800BFF962040818DE07084EDE070821
:10CA2000F8B5C44CDFEDC47AD4F8DC2694F844376A
:10CA3000B4F8467707EE102A2DED028BB8EE478A40
:10CA400028EE278A002B60D1D4F8503794F861275C
:10CA5000002B40F3FC8007EE902A9FEDB86ADFEDD3
:10CA6000B86AF8EEE77AB7EE007AA7EE867AF0EECB
:10CA7000477A07EE103AF8EEC78AB7EE087A87EEE3
:10CA8000270AC6EEA87A20EE270A66F0C5FE0F2810
:10CA9000B8BF0F2094F8453785B2A4F84657002B4D
:10CAA00000F03C81AF4234D0B4F848379FEDA56A1E
:10CAB00094F8E06607EE103A07EE905AB8EE477A1F
:10CAC000F8EE677AC6EE076A86EE277A76EE887AFF
:10CAD00037EE087AC8EE276AC8EE077AB6B39A4BE3
:10CAE00094F84A27B4F84C57C3ED047AC3ED087A9A
:10CAF000C3ED0C7AC3ED106AC3ED147AC3ED187A56
:10CB0000002A49D0BDEC028BF8BD94F84537002BC4
:10CB100072D094F8E066002E40F0F880B4F8483700
:10CB2000DFED886A07EE907A07EE103AB8EE676A92
:10CB3000B8EE477AC6EE877A86EE867A77EE887AFE
:10CB400037EE087AC8EE276AC8EE077A7E4B94F86B
:10CB50004A67B4F84C5700225A609A60DA605A610A
:10CB60009A61DA615A629A62C3ED047AC3ED087A77
:10CB7000C3ED0C7AC3ED106AC3ED147AC3ED187AD5
:10CB8000DA625A639A63DA635A649A64DA645A65B9
:10CB90009A65DA65002E65D1D4F8503794F861278C
:10CBA000002B40F3948007EE902A9FED646ADFED3E
:10CBB000646AF8EEE77AB7EE007AA7EE867A07EEB7
:10CBC000903AF8EEE77AB7EE086A86EE070A86EE44
:10CBD000A77A20EE070A66F01FFE0F28B8BF0F20C5
:10CBE00080B2A4F84C07002E3BD0A8428AD000287F
:10CBF00074D1BDEC028BF8BDD4F8503794F862279D
:10CC0000002B40F38E8007EE903AF8EEE78A3D461F
:10CC100007EE902A9FED496ADFED496AF8EEE77A60
:10CC2000B7EE007AA7EE867AF0EE477AB7EE087A8A
:10CC300087EE270AC6EEA87A20EE270A66F0ECFDFA
:10CC40000F28B8BF0F2080B2A4F848072AE794F84D
:10CC500045370F25A4F84657002B7FF423AF28460D
:10CC6000F2E7054694F8603784F8993A002D3FF4CE
:10CC700049AF07EE905A9FED336A344BF8EE677A6E
:10CC8000D3ED006A86EE277ABDEC028B00220121EB
:10CC9000C3F8042384F8981AC3F80823C3F80C23B4
:10CCA000C3F81423C3F81823C3F81C2337EE267ADD
:10CCB000C3F82423C6EE877AC3F82823C3F82C23AD
:10CCC000C3EDC47AC3EDC87AC3EDCC7AF8BD0F20AA
:10CCD000A4F84C0746B30F2D3FF414AF07EE900AAB
:10CCE000DFED186A194BF8EE677ABDEC028B86EE21
:10CCF000A77AD3ED006A37EE267AC6EE877AC3EDBF
:10CD0000C47AC3EDC87AC3EDCC7AF8BD94F84A373B
:10CD1000B4F84C57002B7FF4F5AE3DE794F862274A
:10CD200076E73D460F208FE794F8603784F8993A0C
:10CD300005469EE7FC100010BD378635CDCCCC3DB6
:10CD4000002474494E2DA63DDC1700106018001019
:10CD5000F8B5214C1D270E46054684F84E7C25F07B
:10CD6000C9F9002025F066F9082025F063F90E20A6
:10CD700025F060F9384625F05DF9042025F05AF9D0
:10CD8000042025F057F9002025F054F9302025F033
:10CD900051F9002025F04EF9304625F04BF90020DE
:10CDA00025F048F925F090F904F64F4025F0AAF84F
:10CDB000234670B194F84F2C62B994F8502C302A65
:10CDC00000D03AB993F8512C22B993F8523C2B7009
:10CDD0000120F8BD0120FCE728400020114B10B5D0
:10CDE0000446185C17F0B4F90F4800EB8404D4ED46
:10CDF000007AFDEEE77A0A2317EE901AB1F5FA6F82
:10CE0000A8BF4FF4FA61B1F57A7FB8BF4FF47A71D9
:10CE1000A1F57A71BDE81040B1FBF3F10920C9B268
:10CE200017F0C4B9F8DD0708884C00202DE9F3415C
:10CE30000E4E0124A02318255FFA84F8FF2B0CDC8A
:10CE40005F1CC5F11B01DBB20093D6F8A80C0023D0
:10CE50004246C9B244F06EFB3B46013DEED101347F
:10CE6000052CE8D102B0BDE8F08100BF28400020C9
:10CE70001FB503AC8DF80C30009400238DF80D30F5
:10CE80000FF07EF904B010BDF8B50546262029F054
:10CE9000EBF9144C014608BBD4F8AC0C90F83830D0
:10CEA0001E3B012B02D894F8B93C0BB13DF09EF823
:10CEB0000D4F0026AE4209DBB4F8DA3C0133A4F88A
:10CEC000DA3CD4F87C3BC4F8EC3CF8BD17F8011B05
:10CED000D4F8AC0C3DF08AF80136EBE7002384F877
:10CEE000E83CEEE728400020E24C002010B51C2072
:10CEF00043F00CFD0446112143F03AFE204643F076
:10CF0000D3FEC8203CF00EFE204643F0D3FE10BDF9
:10CF100008B5044BD3F8F00C10B143F0D9FE08BDAE
:10CF20000020FCE72840002010B5002043F0EEFC74
:10CF3000064CC4F8F00C00222A2143F06FFE402179
:10CF4000D4F8F00C43F014FE10BD00BF28400020C0
:10CF5000024B1869003818BF01207047381E0020A6
:10CF6000F8B590F850400023054680F85030F4B1F1
:10CF7000FFF7EEFF08B90020F8BDFBF75DF80028C9
:10CF8000F9D00C4ED6F87C7B3C3521462846FDF77F
:10CF900059FCD6F87C3BDB1B322BA4EB0004054488
:10CFA00001D8002CF1D1B4FA84F04009E4E7012063
:10CFB000E2E700BF28400020002280F85120CFE7A0
:10CFC00090F85020531C0244DBB280F8503082F8B5
:10CFD0003C1090F851200AB1132B00D9C0E77047DC
:10CFE000F8B50D461446FFF7B3FF98B1FBF724F8E8
:10CFF00080B1094ED6F87C7B002C0BDD21462846FB
:10D00000FDF720FCD6F87C3BDB1B322BA4EB0004A5
:10D010000544F1D9F8BD00BF284000202DE9F04FAC
:10D020008BB0A34BD3F8002D536913F00103009389
:10D0300002D00BB0BDE8F08F5169936911EA030A81
:10D04000F7D0CAF3074301931AF4002F3ED1019B96
:10D0500013F0040F40F097805FFA8AF51AF0020F80
:10D060001FBF934BD3F8003D02225A61BAF1000F63
:10D07000C0F27B81CAF307241AF4006F40F0958157
:10D0800015F0080F40F0CD8115F0100F40F0D5815C
:10D0900014F0100F40F02B8214F0200F40F071823A
:10D0A000019B13F0100F40F01983019B13F0200F28
:10D0B000BFD07F4C7F4BD3F8743104F6F4409847CF
:10D0C000D4F8003D4FF400125A61B2E7784BD3F820
:10D0D000043D9C69DB691C40240CB8D0764EB046F8
:10D0E000009FA6F6F44909F6F4430293DFF8C4B1B1
:10D0F0001FE0736D1A69C2F31202D8F87C339B1AD1
:10D10000C8F88C332CE015F0020F1EBF0225736D9A
:10D110009D6015F0080F06D0DBF85C310298984747
:10D120000825736D9D600137043608F128086408EE
:10D130008DD014F0010FF6D0FBB209EB8303D3F8C6
:10D14000483D9D68D9F8043D5B691D4015F0010F0D
:10D15000D9D00125736D9D6099F8F73CAB42C8D0DA
:10D16000DBF85431F9B20298984799F8F73C012B53
:10D17000C9D1002FC7D199F8053E052BC3D102981C
:10D18000FBF79AFEBFE74A4BD3F8043D9C69DB6985
:10D190001C40A4B2002C3FF45FAF454B03F60C5586
:10D1A00003F6F44B009F1E46CDF808A029E018F0C6
:10D1B000080F1EBF4FF008082B68C3F8088018F04E
:10D1C000100F1EBF4FF010082B68C3F8088018F02E
:10D1D000400F1EBF4FF040082B68C3F8088018F0BE
:10D1E000020F1EBF4FF002082B68C3F8088018F02A
:10D1F000800F41D1013704350BF1280B640800F092
:10D20000B18014F0010FF5D0D6F8042D1069536BDE
:10D210005FFA87F906EB8901D1F80C1D896823FABA
:10D2200009F84FEAC8185FFA88F848EA000808EADF
:10D23000010818F0010FBAD0516B012303FA07F06F
:10D2400021EA0001516398462A689360194BD3F88C
:10D250005831494606F6F440984796F8F73C43455E
:10D26000A5D1002FA3D196F8053E042B9FD106F639
:10D27000F440FBF721FE9AE75A46DBF83031DBF841
:10D2800034115B1ADBF824118B4228BF0B460333A1
:10D29000A8462968896989B2B1EB930FAAD909F127
:10D2A000320906EB8903A94603941C461CE000BF23
:10D2B00028400020880100201C4D0020D2F82811B1
:10D2C0001944C2F82811D2F834110B44C2F8343191
:10D2D000D8F80010D1F818C0D2F830118B422AD0FB
:10D2E0001FFA8CF3984237D2D2F83411D2F8303189
:10D2F0008B4234D96BB3591AD2F824318B4228BFF0
:10D300000B46D81C800896F8F71C0029D6D11FFAC6
:10D3100083FC0CF1030CD4F8FCAC5FEAAC0CCDD070
:10D32000D2F828E100995EF8045BCAF80050013198
:10D330008C45F8D1C2E7D6F804EDDEF8343092F827
:10D340001C11012505FA01F123EA0103CEF834305E
:10D35000C6E74D46039C4DE74D46039C4AE74D46C4
:10D36000039C47E7DDF808A076E6BB4B93F8FE3C4C
:10D3700043B1B94BD3F8002E13686FF341036FF339
:10D3800000031360B44CD4F8042D536823F0010358
:10D390005360B24BD3F86C3104F6F4409847D4F89C
:10D3A000003D4FF000425A6164E600238DF81730CB
:10D3B000A94E96F8063E8DF81730A84BD3F8683181
:10D3C00006F6F4409847D6F8043D9968D6F8003D33
:10D3D0004FF400625A6196F8FE3C002B3FF450AEC9
:10D3E00011F0010F3FF44CAE96F8093E012B7FF48B
:10D3F00047AE9DF81730DBB2032B7FF441AED6F871
:10D40000001E0B6843F001030B60D6F8002E136872
:10D4100043F003031360924A136943F00603136158
:10D420002EE68D4E8D4BD3F8603106F6F4409847CA
:10D43000D6F8003D08225A6126E6874BD3F8003D16
:10D440009A6922F010029A611B6A03F00F02C3F37B
:10D450004341022909D0062932D07F4BD3F8002D51
:10D46000936943F01003936112E647F6F071194295
:10D47000F3D002EB8201784800EBC10141F2740065
:10D480000958C3F30A13DD1C7348D0F8C46DAD10FE
:10D4900006D00098376841F8047B01308542F9D105
:10D4A0006D4802EB820100EBC10141F274068D5917
:10D4B0001D448D5101F584510A6813440B60CCE77B
:10D4C0006549D1F8C40D066801F596552E600568CA
:10D4D00041F2C4200D5002EB820001EBC00000F5C8
:10D4E0008450C3F30A13026813440360B5E70025B0
:10D4F000A8462F462E46DFF86091D9F8042D5368D0
:10D5000023F001035360294609F6F440FDF73EF885
:10D5100099F8F50C58B109F6085303EB8000FF2287
:10D5200053F8041F8A60D96B8A608342F8D1DFF810
:10D530002891D9F8043D4FF0FF329A61012262F33D
:10D540000F0562F31F45DD6148F00B08C3F8148036
:10D5500047F00B071F61D9F8042D13686FF30A1306
:10D56000136009F6F4452846FBF7A6FC46F48056FE
:10D57000D9F8003D5E61394BD3F8643128469847AD
:10D580008AE5354AD2F8043D9B68D2F80C2D116823
:10D59000C3F34103022B12BF6FF30A01032363F3AA
:10D5A0000A0111602C4CD4F8042D536843F48073A5
:10D5B000536006A805F080FE0799D4F8002DD368C3
:10D5C0006FF38D23D360D4F8042D926812F0060F08
:10D5D00016D0214A012082F8F60C4020A2F8F80C5F
:10D5E000204A0A44204882421ED9A1F57402A2F5BD
:10D5F00010521E4882421BD80D2262F38D2309E08F
:10D60000002184F8F61C4FF40071A4F8F81C0922DC
:10D6100062F38D23104AD2F8001DCB60D2F8003D92
:10D620004FF400525A613BE50E2262F38D23F1E77D
:10D630000F4A0A440F48824203D20C2262F38D2320
:10D64000E8E7A1F18C72A2F543420B48824215D85B
:10D650000B2262F38D23DDE72840002088010020A3
:10D6600000ED00E0401E1BFF3F420F00DFC810002E
:10D670002013FBFE20D61300FF6918001E4A0A443F
:10D680001E48824203D20A2262F38D23C2E71C4A5B
:10D690000A441C48824203D2092262F38D23B9E76F
:10D6A000A1F1B772A2F558521748824203D208225C
:10D6B00062F38D23AEE7154A0A441548824203D22D
:10D6C000072262F38D23A5E7124A0A4412498A42CF
:10D6D00034BF0622052262F38D239BE70F4C104BCB
:10D6E000D3F8703104F6F4409847D4F8003D4FF475
:10D6F00080125A61D9E400BF00D3CEFE40771B00F0
:10D70000C05BB3FEC091210040AC2700C01D6AFE83
:10D7100040E13300803C36FEE09C41002840002080
:10D7200088010020704700BF704700BF704700BFEE
:10D73000704700BF044B02225A700021997041F6D5
:10D7400044015A50704700BF40660020024A41F22F
:10D75000E473D05C704700BF40660020014B5878EE
:10D76000704700BF40660020024A41F2A873D058BB
:10D77000704700BF4066002090F91A30B3F1FF3FB8
:10D780000AD003F5B1730F4A02EB0313DA796FF392
:10D790000002DA71FF23837690F91B30B3F1FF3F6B
:10D7A0000FD003F5B173074A02EB0313DA79C2F322
:10D7B0004501013921EAE17161F34602DA71FF2383
:10D7C000C37670474066002070B504460378023B7C
:10D7D000DBB2012B03D9037E13F0060F0ED1237E9B
:10D7E00013F0200F1ED0E06900231C491A01525883
:10D7F000904209D001330B2BF8D113E00121FAF745
:10D8000049FF01281CD1EAE703F5B173144A02EB82
:10D810000313DA79C2F34501013921EAE17161F3B9
:10D820004602DA712046FFF7A7FF237E13F0080FA8
:10D8300007D10023237084F82830E36A03B19847A6
:10D8400070BD074E41F2C875705D072814BF0020F7
:10D850000120FAF7B1FD00237355EAE7587C002058
:10D8600040660020B8B108B503460278AAB190F826
:10D8700028200AB1002008BD82684068824238BF73
:10D8800002469A60032283F82820D9621846FFF7DF
:10D890009BFF0120EFE7012070470120EBE700BF6D
:10D8A0002DE9F04182B004460D464168C1F30803FA
:10D8B0002B44B3F5007F05D229444160012002B01A
:10D8C000BDE8F0812E46FFF757FF2378022B2ED0BC
:10D8D0001C4B1B684FEA4328B5EB432F2EDC6768CF
:10D8E000194A41F64803D3581F407B42AB4227DC1C
:10D8F000EB19434511D301AA21692046FBF76EF8C5
:10D90000012819D123696361019B23616368434442
:10D91000DB1B6360A5EB08053D442046FAF7A4FC39
:10D920000028CCD163681D4465600120C7E76568A5
:10D93000354465600120C2E70020C0E70020BEE753
