:020000040800F2
:10000000C042002409001008E5211008B9260008A4
:10001000792800084D0700083D2D00080000000069
:10002000000000000000000000000000292410086B
:100030004F070008000000007B2800082B24100850
:1000400023001008230010082300100823001008C4
:1000500023001008230010082300100823001008B4
:1000600023001008230010082300100823001008A4
:100070002300100823001008230010082300100894
:100080002300100823001008230010082300100884
:100090002300100823001008230010082300100874
:1000A0002300100823001008230010082300100864
:1000B0002300100823001008230010082300100854
:1000C0002300100823001008230010082300100844
:1000D0002300100823001008230010082300100834
:1000E000230010082300100800000000230010085F
:1000F0002300100823001008230010082300100814
:100100002300100823001008230010082300100803
:1001100023001008230010082300100823001008F3
:1001200023001008230010082300100823001008E3
:1001300023001008230010082300100823001008D3
:1001400000000000000000000000000000000000AF
:100150002300100823001008230010082D2D00088C
:1001600023001008230010082300100823001008A3
:1001700023001008230010082300100800000000CE
:100180002300100823001008230010082300100883
:100190002300100823001008230010082300100873
:1001A00000000000000000002300100823001008D9
:1001B0002300100823001008230010082300100853
:1001C0002300100823001008230010082300100843
:1001D0002300100823001008230010082300100833
:1001E0002300100823001008230010082300100823
:1001F0002300100823001008230010082300100813
:100200002300100823001008230010082300100802
:1002100023001008230010082300100823001008F2
:100220002300100800000000230010080000000058
:10023000230010082300100800000000230010080D
:1002400023001008230010082300100823001008C2
:1002500023001008230010082300100823001008B2
:1002600023001008230010082300100823001008A2
:1002700023001008230010082300100800000000CD
:1002800023001008230010082300100800000000BD
:10029000000000002300100800F002F800F05CF8F5
:1002A0000AA090E8000C82448344AAF10107DA45D1
:1002B00001D100F051F8AFF2090EBAE80F0013F0C7
:1002C000010F18BFFB1A43F001031847C82C0000A8
:1002D000E82C000010F8013B0A4413F0030408BFA7
:1002E00010F8014B1D1108BF10F8015B641E05D00A
:1002F00010F8016B641E01F8016BF9D1002D15D0C7
:1003000010F8014B03F00C030C2BA1EB04040ABF03
:1003100010F8013BA4EB8314A4EB032405F10103C3
:1003200014F8016B5B1E01F8016BF9D5914238BFDF
:1003300010F8013BD1D3704700230024002500268C
:10034000103A28BF78C1FBD8520728BF30C148BF38
:100350000B60704710B510BD00F0B6F81146FFF005
:100360004FFE02F103FD00F0D4F803B4FFF7F2FFF3
:1003700003BCFFF001FF53EA020C00F069802DE995
:10038000F04B4FF00006002B1FBFB3FA83F503FAC2
:1003900005F424FA05F65E4012BF1643B2FA82F560
:1003A00002FA05F4C5F120051EBF22FA05FC44EA55
:1003B0000C04203556EA044C4FEA144418BF641C60
:1003C0004FF000084FF00009904271EB030C39D355
:1003D000002919BFB1FA81F701FA07F6B0FA80F7E0
:1003E00000FA07F6C7F120071EBF20FA07FC46EA0D
:1003F0000C062037B6FBF4FCA7EB0507103F07F00F
:100400001F0BCBF120060CFA0BFB2CFA06F644BFAF
:10041000B3460026202FA4BF5E464FF0000B5BEAD8
:10042000060C08BF4FF0010B19EB0B09ABFB027C6C
:1004300048EB0608C01B06FB02CC0BFB03CC71EBA0
:100440000C01C1E70B46024641464846BDE8F08B29
:1004500013B54FF000004FF00001AFF30080BDE88E
:100460001C40704710B5203AC0F00B80B1E818501E
:10047000203AA0E81850B1E81850A0E81850BFF48E
:10048000F5AF5FEA027C24BFB1E81850A0E818502D
:1004900044BF18C918C0BDE810405FEA827C24BF81
:1004A00051F8043B40F8043B08BF7047D20728BF0F
:1004B00031F8023B48BF11F8012B28BF20F8023B5E
:1004C00048BF00F8012B70477546FFF051FEAE465D
:1004D00005006946534620F00700854618B020B550
:1004E000FFF0A0FDBDE820404FF000064FF00007F0
:1004F0004FF000084FF0000B21F00701AC46ACE8CC
:10050000C009ACE8C009ACE8C009ACE8C0098D4638
:10051000704710B50446AFF300802046BDE8104098
:10052000FFF723BF0F4810B500F0AEFB0D484FF4A6
:10053000FA7100F01BFB0B4800F014FB84B2094871
:1005400000F1B6F800EE104A9FED071B0849B8EE1F
:10055000400B20EE010BBCEEC00B10EE100A088021
:1005600010BD00001C370024BC7493180456EC3FE7
:100570000400002470B50446006881688268C1F3F5
:10058000400112F0010F24D019BB816801F00D0168
:10059000012910D18168104A1140891C81602168AD
:1005A0000320086000F012FD05460EE000F00EFD8D
:1005B000401B022809D9606D40F010006065A06DF5
:1005C00040F00100A065012070BD20688068C00770
:1005D000ECD1002070BD0000C0FFFF7FF0B587B0F8
:1005E00014216846FFF099FD2248016841F004019A
:1005F0000160016801F004010591016841F080018A
:100600000160016801F080010591016841F001017C
:100610000160016801F001010591016841F00201EA
:100620000160016801F002010591016841F00801D3
:1006300001600068002101AB0F4D00F0080005903B
:1006400001204FF6FF7603220C4683E80700A5F150
:10065000800700BF35F81400B04205D0009069460D
:1006600057F8240000F094FB641CE4B2202CF1D372
:1006700007B0F0BDE0440258883600241CB50622BD
:100680006946F72002F06CFB9DF800209DF8010000
:100690009DF80210120342EA001040EA111002F124
:1006A000FFF81CBD7CB511A0114C0022042100688C
:1006B0000090204600F084FC4FF47A750D4801222A
:1006C0002B46694601F19EF80A48012201A92B46F2
:1006D00001F0B2FC01222046042100F071FC9DF8DB
:1006E0000400C00700D002207CBD0000050000000F
:1006F00000100258403900247CB50446114D10A06A
:100700000022042100680090284600F059FC4FF4B4
:100710007A760D4804223346694601F173F80A4897
:10072000022201A9334601F087FCBDF80400012232
:10073000042140BA2080284600F042FC7CBD000025
:10074000900000000010025840390024FEE7704776
:10075000F0B51F0E07704FEA134C80F801C01C0A59
:100760008470C3700D0E05710E0C46710F0A8771EF
:10077000140EC171130C0472150A43720C26857293
:10078000C2723046F0BD00002DE9F84F4FF0000B6B
:100790000446E64E0D46CDF800B05F4690F8500096
:1007A000DFF88CA3012808D04FF0010984F850909D
:1007B000206801F1D9FB18B16BE10220BDE8F88F88
:1007C00021682868CA69030328D090FAA0F0B0FA1B
:1007D00080F000BF00F01F0309FA03F00243CA6172
:1007E000D5E900124FF00C0C20681F23C1F384617F
:1007F0000CEA921C02F01F02604493409140026B8D
:100800009A430A430263206801F1AEFB80462068E8
:1008100001F1A6FB58EA000003D07FE0C0F384603A
:10082000D8E72068AA68296801F1AAFBC1490968CC
:10083000B9EB117F06D121686869C968C1F38201EB
:10084000490008E02068C168C906C1686869F5D533
:1008500001F0100149088840296904292ED0236835
:100860002A6803EB810102F0F8420B6E024303F0A9
:10087000004010430866697E20682A69012917D064
:100880005FF0000100EB8200026E22F000420A439A
:100890000266297E20682A6901290CD0002103699B
:1008A00002F01F02914023F4F0420A43026135E056
:1008B0004FF00041E6E74FF40061F0E72068297847
:1008C000026E02F0F842B2EB816F03D1016E21F0AB
:1008D0000041016620682978426E02F0F842B2EBCE
:1008E000816F03D1416E21F0004141662068297873
:1008F000826E02F0F842B2EB816F03D1816E21F07B
:100900000041816620682978C26E02F0F842B2EB9D
:10091000816F03D1C16E21F00041C16620688168FA
:1009200011F0010F78D150F8C03F2A7BDFF808C2E0
:10093000296802F018022CFA02FCC1F3130823EA1A
:1009400008030CEA010C43EA0C0303607B48E968E6
:10095000814277D1286801031BD090FAA0F1B1FA47
:1009600081F1491C01F01F0109294FEA003131D8FA
:10097000002911D090FAA0F1B1FA81F101F1010141
:1009800001F01F0109FA01F209D100BFC0F384612F
:1009900009E0C0F38461E4E7C0F38461EEE790FA14
:1009A000A0F1B1FA81F101F1010101F01F0142EA68
:1009B000816102D1C0F3846003E090FAA0F0B0FA44
:1009C00080F000F1010000F01F0000EB400041EA60
:1009D000005133E000290ED090FAA0F1B1FA81F174
:1009E00001F1010101F01F0109FA01F206D100BF76
:1009F000C0F3846106E0C0F38461F1E790FAA0F1EE
:100A0000B1FA81F101F1010101F01F0142EA8161B6
:100A100003D1C0F3846004E040E090FAA0F0B0FAA3
:100A200080F0474A00F1010000F01F0000EB400099
:100A300002EB005041EA000141F00071AA68206811
:100A400001F19EFAD5F800C0BCF1000F26DA3D4B4B
:100A500020683D49DFF8F490984201D0B04201D1BE
:100A60000A4600E04A469268984202F0E07201D0DD
:100A7000B04209D19D68D6F8088005F0010508F05C
:100A8000010845EA080503E0DAF8085005F0010519
:100A900045B1606D012740F020006065384684F85C
:100AA00050B08BE62A4DAC451BD1150219D45045E8
:100AB000F4D1984202D0B04200D049468B6842F44B
:100AC000000023F0E07202438A602349214809684C
:100AD000B1FBF0F0400000E0401E00900028FBD188
:100AE000DCE71E4DAC450CD1D5010AD45045D5D11B
:100AF000984202D0B04200D049468B6842F08070E4
:100B00000EE0174DAC45C9D15502C7D45045C5D1EB
:100B1000984202D0B04200D049468B6842F480002F
:100B200023F0E07202438A60B8E70000002102402F
:100B3000006002580010005CFFFF0F000000FF473C
:100B4000000020FE00200240002302400063025803
:100B5000000084CB400D030014370024000052C76E
:100B60000000B8CF0068006C704700002DE9F04726
:100B7000414D0446006888464049414BA842DFF891
:100B8000049101D0484501D10A4600E01A46926816
:100B900002F01F062269082A14D0AEB1052E13D028
:100BA000092E11D0A84202D0484500D019468868C5
:100BB00000F4404058B1606D40F0200060650120B5
:100BC000BDE8F087082703E0C068C007F2E7042704
:100BD00000F0FCF982460BE0B8F1FF3F08D000F0CE
:100BE000F5F9A0EB0A01414511D8B8F1000F0ED07C
:100BF000206800683842EFD0606D40F40070606596
:100C0000206801F1B5F9D0B1607D48B117E0606DA1
:100C1000002184F8501040F0040060650320CFE705
:100C20002068006800070AD5606D20F48070606558
:100C3000606DC00403D4606D40F001006065206801
:100C4000484501D12A4600E00246824210D07EB1DA
:100C5000052E0DD0092E0BD0484500D00546E96879
:100C6000082F07D0490401D40C2101600020A7E718
:100C7000C168F5E70821F8E70020024000230240A0
:100C800000630258002102402DE9F0413B4D04462B
:100C900000683B4FA84201D0B84201D1394900E079
:100CA0003949896801F01F0601F15EF918B1022186
:100CB0000846BDE8F08194F8500001280CD00120CE
:100CC00084F850002046FFF053FB01004FF0000273
:100CD00004D084F85020EBE70220EAE7636D40F689
:100CE000016C206823EA0C03B84243F48073636507
:100CF00001D12B4600E00346834200D01EB9636D4C
:100D000023F480136365636DDB0404D5A36D23F0C6
:100D10000603A36500E0A2651C23036084F850204D
:100D20002068B84201D12A4600E00246824215D02E
:100D3000A6B1052E12D0092E10D0626DB84242F431
:100D40008012626500D00546E8688001B0D5606D0C
:100D500020F4005040F480506065A9E7C268920119
:100D600005D5626D22F4005242F4805262658268B9
:100D7000064B1A40121D82609AE7000000200240D4
:100D8000002102400023024000630258C0FFFF7FA1
:100D90002DE9FC4F01257E4C00234FF0030A4FF054
:100DA000B04E4FF00F0BEBE005FA03F637403A0078
:100DB00077D04F68012F05D0022F03D0112F01D01B
:100DC000122F1AD187684FEA4308D1F80CC00AFAEB
:100DD00008F927EA09070CFA08FC4CEA070CC0F8E6
:100DE00008C0476891F804C0B743CCF3001C0CFA64
:100DF00003FC4CEA070CC0F804C0C6684FEA430C79
:100E0000D1F80880E1460AFA0CF7BE43019708FAC8
:100E100009F848EA0608C0F80C804E68022E01D096
:100E2000122E12D1DE084FEA437C00EB86060096B4
:100E30000F69366A4FEADC6C0BFA0CF807FA0CF70C
:100E400026EA08063743009E37620E790768DDF808
:100E500004C006F0030606FA09F627EA0C073E432B
:100E600006604E68F6001CD54A4E376847F0020708
:100E7000376036689F0706F00206009623F00306E7
:100E800006F1B046B1463F0FD6F80864DFF8088196
:100E90000BFA07FC404526EA0C0603D14FF0000C84
:100EA00041E06CE0DFF8F4C0604502D14FF0010C86
:100EB00039E0DFF8ECC0604502D14FF0020C32E0BF
:100EC000DFF8E0C0604502D14FF0030C2BE0DFF803
:100ED000D8C0604502D14FF0040C24E0DFF8CCC04C
:100EE000604502D14FF0050C1DE0DFF8C4C060453D
:100EF00002D14FF0060C16E0DFF8B8C0604502D111
:100F00004FF0070C0FE0DFF8B0C0604502D14FF0A2
:100F1000080C08E0DFF8A4C0604502D14FF0090CCE
:100F200001E04FF00A0C0CFA07FC4CEA060CC9F879
:100F300008C426684F6826EA0206FF0300D5164358
:100F4000266066684F6826EA0206BF0300D516438E
:100F50006660D1F804C07646DEF800705FEACC2CFB
:100F600027EA020700D517433760D1F804C0776835
:100F70005FEA8C2C27EA020700D5174377605B1CD9
:100F80000A681746DA407FF40FAFBDE8FC8F000017
:100F900080000058F444025800000258000402582F
:100FA00000080258000C02580010025800140258A1
:100FB00000180258001C0258002002580024025851
:100FC0000AB1816170470904FBE7000001488068AD
:100FD000704700000837002430B590F84120202ADF
:100FE00022D190F84020012A1ED0012380F8403001
:100FF000242280F84120202400250268136823F071
:10100000010313600268136823F4706343EA01214B
:10101000116001680A6842F001020A6080F84140EC
:1010200080F84050002030BD022030BD2DE9FF4F38
:1010300083B0044690F841009A469346DDE9108754
:10104000DDF84890202874D15FEA080014D09FB1E1
:1010500094F8400001286CD0012084F84000FFF78C
:10106000B5FF0122064619230090D103204600F166
:101070008DFD002871D103E04FF4007060646CE0D6
:101080000025C4F82480222184F84110402084F8EF
:10109000420065646785534665635A460499204655
:1010A000CDE9009600F10EFD10B184F8405054E0F7
:1010B000618DFF2734484FF08078FF294FF0007A88
:1010C00004D927853A464346009005E0618D534692
:1010D0002185009094F828202046049901F0FEFA1A
:1010E00000224B4604212046009600F14FFDA0BB94
:1010F0002068616A406A0870606A401C6062208DE6
:10110000401E81B22185608D401E6085608DD8B102
:10111000D1B900224B4680212046009600F136FDD1
:10112000D8B9608DFF2805D927853A4643460095F2
:1011300006E026E0608D53462085009594F828202F
:101140002046049901F0CAFA608D0028C8D13246C1
:101150004946204600F147FD18B1012007B0BDE81F
:10116000F08F21682020094AC86121684B6813402C
:101170004B6084F8410084F84250002084F84050CD
:10118000ECE70220EAE700000024008000E800FE0F
:101190000248816802781144816070470837002452
:1011A000032010B5FFF090FC00F0ACFA0F4A104994
:1011B00014681368C4F3032203F00F038A5CC95C4C
:1011C00002F01F0201F01F01D0400A4A20FA01F18B
:1011D000116009490860002000F010F808B10120F2
:1011E00010BD00F02BF8002010BD0000184402587C
:1011F000822F0008183700241437002470B50D4DD5
:1012000004462878A0B14FF47A71B1FBF0F00A4996
:101210000968B1FBF0F001F0C6F948B9102C07D20B
:1012200000222146501EFFF02FFC00206C6070BD94
:10123000012070BD0837002414370024054808B584
:10124000016841F002010160006800F002000090B6
:1012500008BD0000F444025810B500F19FFA05499A
:101260000968054AC1F30211515C01F01F01C84031
:1012700010BD000020440258822F0008494930B5B3
:10128000484C0B1D0A680C3409681D68246802F07C
:10129000030305F00102C1F30511C4F3CC040029D6
:1012A00014FB02F200EE102AF8EE400A75D03F4A15
:1012B0009FED3D1AB7EE000A6BB1DFED3D1A012B31
:1012C00001D0022B64D002EE101A1168F8EE422A07
:1012D00081EEA22A21E0334C283C23689B0612D5DC
:1012E000344B246801EE901A1168C4F3C104F8EE7F
:1012F000612AE34001EE903AC1F30801F8EE611A69
:1013000081EEA22A0BE001EE901ADFED2B2A00BF3E
:10131000F8EE611A116882EEA12AC1F3080101EE0C
:10132000901A1168F8EE611A40EE811A71EE800A87
:1013300062EE200AC1F3462101EE101AB8EE411AFE
:1013400031EE001AC0EE811ABCEEE11A80ED001AEF
:101350001168C1F3064101EE101AB8EE411A31EEE0
:10136000001AC0EE811ABCEEE11A80ED011A116874
:10137000C1F3066101EE101AB8EE411A31EE000A0F
:1013800080EE801ABCEEC10A80ED020A30BD04E096
:1013900001EE901ADFED092ABAE7002101604160F1
:1013A0008160F3E7284402580000003930440258B5
:1013B0000024744A0090D0030024744C20BCBE4B1F
:1013C000494930B5484C0B1D0A68143409681D683A
:1013D000246802F00303C5F30012C1F30531C4F31E
:1013E000CC04002914FB02F200EE102AF8EE400AA9
:1013F00075D03F4A9FED3D1AB7EE000A6BB1DFEDA5
:101400003D1A012B01D0022B64D002EE101A116894
:10141000F8EE422A81EEA22A21E0334C283C2368D0
:101420009B0612D5344B246801EE901A1168C4F360
:10143000C104F8EE612AE34001EE903AC1F30801DD
:10144000F8EE611A81EEA22A0BE001EE901ADFEDB0
:101450002B2A00BFF8EE611A116882EEA12AC1F3AF
:10146000080101EE901A1168F8EE611A40EE811A37
:1014700071EE800A62EE200AC1F3462101EE101AD5
:10148000B8EE411A31EE001AC0EE811ABCEEE11A34
:1014900080ED001A1168C1F3064101EE101AB8EE92
:1014A000411A31EE001AC0EE811ABCEEE11A80ED4D
:1014B000011A1168C1F3066101EE101AB8EE411A63
:1014C00031EE000A80EE801ABCEEC10A80ED020AFD
:1014D00030BD04E001EE901ADFED092ABAE70021E1
:1014E000016041608160F3E7284402580000003940
:1014F000384402580024744A0090D0030024744CED
:1015000020BCBE4B2DE9F0474FF480760146B04237
:101510006F48DFF8B8818AB06E4B4FF080576E4D40
:10152000A8F104044FEA20124FF0005C29D1D8F84A
:10153000001001F0070105291FD2DFE801F0030ABE
:101540000F20140006A8FFF799FE07980AB0BDE81F
:10155000F0876846FFF734FF0098F7E703A8FFF02D
:10156000EFFA0398F2E7216811F04051EED0B9424A
:1015700075D11046EAE71846E8E70020E6E7284676
:10158000E4E7B1F5007F19D0544EB1F5806F26D055
:10159000B1F5006F37D04FF4805949454FF4804A78
:1015A0004BD1D8F8001001F4E041B1F5005FD5D07F
:1015B0003DDC0029C6D04945DFD1CAE7D8F8001084
:1015C00001F4E0718029C9D004DC0029BAD0402997
:1015D000D3D1BEE7C029D2D0B142CED1C3E7316862
:1015E00001F46001B1F5800FB8D005DC0029A9D065
:1015F000B1F5001FC1D1ACE7B1F5C00FBFD0B1F557
:10160000000FBAD1AFE7316801F0E061B1F1007FBE
:10161000A4D005DC002995D0B1F1807FADD198E749
:10162000B1F1407FABD0B1F1806FA6D19BE7B1F5AE
:10163000405FA4D05145A0D195E7B1F5002F4FF4FC
:1016400080350DD0A9421DD1206810F48030B1D072
:10165000A84292D16846FFF7B3FE029876E70EE003
:10166000316811F44031A8D0A94203D0B1F5003F50
:1016700083D178E703A8FFF063FA059866E7614530
:101680009AD178E7514597D1316801F0E041B1F145
:10169000405FE3D009DC81B1B94211D061458BD103
:1016A00003A8FFF04DFA049850E7B1F1804F3FF4E2
:1016B00060AFB1F1A04F8BD15DE7FFF7CDFD45E7FE
:1016C0006846FFF77DFE019840E70000504402584D
:1016D0000090D00340787D010080BB005844025840
:1016E00000B500F15BF805490968054AC1F302112C
:1016F000515C01F01F01C84000BD00001C440258AD
:10170000822F0008454970B545480968434B103B96
:1017100011F0380208D00111082A03D0102A0BD08A
:10172000182A0BD0084670BD19688906FBD51968C0
:10173000C1F3C101C84070BD3A4870BD3749374D4B
:1017400018310C1D24350A68096826682D6802F0D6
:10175000030406F00102C1F30511C5F3CC0515FB26
:1017600002F200EE102AB8EE400AE9B32F4ADFED8C
:101770002E0AB7EE001A6CB1DFED2D1A012C01D044
:10178000022C43D002EE101A1068F8EE422A81EEC5
:10179000A22A1EE01C68A40611D51B6801EE901A4F
:1017A0001168C3F3C103F8EE612AD84001EE900A34
:1017B000C1F30800F8EE611A81EEA22A0BE001EEF7
:1017C000901ADFED1C2A00BFF8EE611A106882EE55
:1017D000A12AC0F3080001EE900AF8EE611A40EE6B
:1017E000201A31EE810A00E015E022EE000A1068AE
:1017F000C0F34620401C00EE900AF8EE600A80EE2E
:10180000201ABCEEC10A10EE100A70BD01EE901A4B
:10181000DFED092AD8E7002070BD0000104402580F
:101820000090D00340787D01000000393044025818
:101830000024744A0024744C20BCBE4B2DE9F05F98
:1018400004007CD0FF4F2078FE4D1837DFF8F4936A
:10185000103DC00748D0D9F80000396800F03800C2
:10186000102815D0182803D101F0030002280FD04A
:101870006068B0F5803F12D010B1B0F5A02F18D03D
:10188000286820F480302860286820F4802009E04F
:101890002868800328D560680028D2D024E0286812
:1018A00040F480302860606888B1FFF78FFB0646FF
:1018B00009E0286840F480202860F0E7FFF786FB05
:1018C000801B64287ED828688003F7D50CE0FFF7DA
:1018D0007DFB064605E000BFFFF778FB801B642810
:1018E000F0D828688003F7D4207841F20308D54E59
:1018F0000C3E800753D5D9F80000396810F0380045
:101900000ED0182801D188070AD0E068A8B329684A
:1019100021F0190101432960FFF758FB82461BE0C3
:101920002868400702D5E06800288AD0FEF0FAFE59
:1019300040451BD82069402812D0316800E0CCE037
:1019400021F47C3141EA0030306028E0FFF73EFBB3
:10195000A0EB0A000228B5D828684007F6D5E5E7CD
:10196000306820F47C3040F40030EDE7207C3168B2
:1019700021F0FE4141EA0060E6E7FFE7286820F039
:1019800001002860FFF722FB824605E0FFF71EFBFF
:10199000A0EB0A00022895D828684007F6D42078E2
:1019A000C0065FD5D9F80000DFF898B2396800F0BA
:1019B0003800ABF1040B082812D0182805D101F02B
:1019C000030000E0EAE001280AD0E0690028286866
:1019D00038D040F080002860FFF7F8FA824623E014
:1019E0002868C00523D5E069802876D11FE0206AE9
:1019F000202821D0316821F0F84141EA8060306030
:101A000030E000BF94F82010DBF8002022F07C5278
:101A100042EA0161CBF8001024E000BFFFF7D6FADC
:101A2000A0EB0A00022896D82868C005F6D5FEF07B
:101A300079FE4045E6D8DAE7306820F0F84040F01B
:101A40008040DCE720F080002860FFF7BFFA064600
:101A500005E000BFFFF7BAFA801B02289BD8286870
:101A6000C005F7D42078000729D57648616964302D
:101A700000298046016811D041F001010160FFF7A3
:101A8000A5FA064605E000BFFFF7A0FA801B022872
:101A9000C9D8D8F800008007F6D510E021F0010180
:101AA0000160FFF793FA064605E000BFFFF78EFAE4
:101AB000801B022872D8D8F800008007F6D420785E
:101AC000800623D5A0690028286810D040F48050F3
:101AD0002860FFF77BFA064605E02CE1FFF776FA6F
:101AE000801B02285AD828688004F7D50EE020F41D
:101AF00080502860FFF76AFA064604E0FFF766FAAE
:101B0000801B02284AD828688004F7D42078400730
:101B10004FD5DFF83481D8F8001041F48071C8F84F
:101B20000010FFF753FA064605E000BFFFF74EFA34
:101B3000801B642832D8D8F80000C005F6D5414E85
:101B4000A068603601280AD008B1052813D0306893
:101B500020F001003060306820F0040002E03068BE
:101B600040F001003060A06841F2883A90B1FFF780
:101B70002DFA80460AE0306840F004003060EEE75D
:101B8000FFF724FAA0EB0801514507D83068800719
:101B9000F6D50EE0FFF71AFA804607E084E000BFB2
:101BA000FFF714FAA0EB080151457DD83068800793
:101BB000F6D4606AF0B3DFF88C80D9F8001008F131
:101BC0002008C1F3C20103296FD00228286820F041
:101BD0008070286003D0FFF7F9F9044680E0FFF732
:101BE000F5F9064605E000BFFFF7F0F9801B022873
:101BF00073D828688001F7D4E26A40F2F33138687C
:101C000054F8283F884340EA021018433860217B8B
:101C10004FF4FE0C22894FF0FE47208A4902267DB0
:101C2000521E401EA1F5007189B20CEA0040C2F3B9
:101C3000080200E081E01143761E0143014807EAF3
:101C4000066203E010440258004802581C30114359
:101C50003B4AC8F80010016821F0010101601168D9
:101C60004FF6F876236AB14341EAC3011160016877
:101C7000A26921F00C01114301600168E26921F0C1
:101C8000020111430160016841F480310160016883
:101C900041F400310160016841F480210160016874
:101CA00041F00101016001E017E01DE0286840F00B
:101CB00080702860FFF78AF9044604E0FFF786F990
:101CC000001B022809D828688001F7D535E000BF3D
:101CD000FFF77CF9001B022802D90320BDE8F09F22
:101CE00028688001F4D428E039680128D8F8000079
:101CF00021D0A26A01F0030393421CD1E26AC1F32E
:101D000005118A4217D1216BC0F30802491E8A428D
:101D100011D1616BC0F34622491E91420BD1A16BD8
:101D2000C0F30642491E914205D1E16BC0F3066043
:101D3000491E814201D00120D0E70020CEE70000FB
:101D4000344402582DE9F047040029D04A4A4FF0A4
:101D500000092068494B4A4D9042C4F8289006D0AB
:101D6000984204D0A84202D0E1680F2918D8E1684F
:101D70004FF0010AE76B0831C9080AEB57167143A7
:101D8000904205D0984203D0A84201D0082907D834
:101D9000904203D0984201D0A84204D1102902D920
:101DA0000120BDE8F08794F8810020B9204684F82E
:101DB000809000F067F8022084F8810020680168B4
:101DC00021F001010160A069B0F1806F0AD1606863
:101DD000B0F5800F06D1A06B20B92068016841F4EE
:101DE00080510160A56AE0692368E16B2843E268DD
:101DF000084310439860D4E90D02D4E905C1636A31
:101E000025691843D4F820800A43266810432843E4
:101E1000A56DD4E90172D4E9123140EA0C0040EA20
:101E2000080038430843104318432843F0606068B3
:101E300068B92068816821F4C05141F40061816073
:101E40002068816821F4C06141F48061816020686C
:101E5000016D21F0010101656068400206D520682E
:101E6000626DC16821F000411143C160C4F88490E3
:101E700084F881A0002094E7003001400038004041
:101E8000003C00402DE9F047B6B0054614212FA8CC
:101E9000FEF043F9BC216846FEF03FF95D4C022696
:101EA0005D4A05272868103CDFF8688100259042CC
:101EB0004FF4805135D1684617950091FEF0E2FE4F
:101EC00008B1FEF0B1FAD8F8001041F48051C8F81A
:101ED0000010D8F8000000F480503490206840F0E2
:101EE00001002060206800F001003490206840F07C
:101EF00008002060206831AA2FA900F00800349063
:101F00006020CDE92F0682E8E0004448FEF740FF5C
:101F100080202F9042482FA9CDE93065CDE9325776
:101F200026E0404ADFF8EC90DFF8FCA09042A9F1EF
:101F3000080922D1684617950091FEF0A3FE08B16A
:101F4000FEF072FAD9F8001041F48041C9F800108F
:101F5000D9F8000000F480403490206840F002007E
:101F60002060206800F0020034904FF4604023E0CD
:101F7000FEF70EFF36B0BDE8F0872C4A904220D124
:101F8000684617950091FEF07DFE08B1FEF04CFA10
:101F9000D9F8001041F40041C9F80010D9F8000048
:101FA00000F400403490206840F002002060206877
:101FB00000F0020034903820CDE92F062FA95046BA
:101FC00024E01B498842D5D14014189500906846FA
:101FD000FEF058FE08B1FEF027FAD8F8001041F4E0
:101FE0000051C8F80010D8F8000000F400503490F8
:101FF000206840F01000206020682FA900F0100039
:1020000034904FF4E040CDE92F060A4831AA82E827
:10201000E000ADE7F04402580030014000000258F3
:10202000000C02580038004000040258003C0040F8
:1020300000340140001002582DE9FF5F04461646A7
:102040000F461D4600214FF0040BD4E90002009119
:1020500030300290B2F5800F01D1A06888B194F8B9
:102060008000012819D04FF0010984F88090FEF714
:10207000ADFF94F881108246002001290FD0022183
:1020800026E084F881B03A46114620460093334654
:1020900000F0F9F804B0BDE8F09F0220FAE7B7B10C
:1020A000AEB1A26880466766A4F8686084F881B023
:1020B000C4F88400A4F86A60E065A4F86000A4F89D
:1020C0006200B2F5C02F2067606705D009E00121EA
:1020D00084F880000846DDE72068016821F400618B
:1020E0000160206841686FF30F013143416020684F
:1020F000016841F0010101606068B0F5800F04D112
:102100002068016841F400710160E0680F282ED951
:1021100048F20806B4F86A00002859D020684169DE
:1021200031420BD0006B616E0860606E001D60660E
:10213000B4F86A00401EA4F86A00EBE7FEF746FF19
:10214000A0EB0A00A84202D3681CE3D001E0002DF6
:10215000E0D1204600F092FBD4F8842084F88080FF
:1021600042F48071C4F8841084F8819079E00728E3
:102170002AD868E02068416911F4604F19D041699C
:10218000090409D5006B616E0860606E001D606611
:10219000B4F86A00801E09E002980088616E088029
:1021A000606E801C6066B4F86A00401EA4F86A0085
:1021B0000AE0FEF70BFFA0EB0A00A84202D3681C5E
:1021C00002D0C6E7002DC4D0B4F86A000028D1D1EF
:1021D0003DE02068416911F4604F2AD0416909044B
:1021E00009D5006B616E0860606E001D6066B4F812
:1021F0006A00001F1AE0416901F4C041B1F5005FB7
:102200000AD902980088616E0880606E801C606642
:10221000B4F86A00801E09E090F83000616E087022
:10222000606E401C6066B4F86A00401EA4F86A0044
:1022300009E0FEF7CBFEA0EB0A00A84202D3681C1F
:1022400001D010E07DB1B4F86A000028C1D1204669
:1022500000F014FB84F88190D4F8841084F8808016
:1022600079B1012016E7204600F008FBD4F884205D
:1022700084F8808042F48070C4F8840084F88190EF
:10228000EFE7009806E72DE9FF4F83B090F8801044
:102290000446006801294FF00001109F1D4601917E
:1022A00000F1200100F1300093460291009014D01B
:1022B0004FF0010A84F880A0FEF788FE804694F86B
:1022C00081006368002101282E464FF480020CD063
:1022D000934208D1A36833B903E0022007B0BDE8F8
:1022E000F08F042801D0022037E0049898B3BBF1A6
:1022F000000F31D07DB394F88100042802D005206E
:1023000084F8810089460846C4F88410C4F864B093
:10231000A4F86A50A4F868500499E165A4F86250E2
:10232000A4F8605020676067206841686FF30F0170
:10233000294341602068016841F001010160606843
:10234000904204D12068016841F400710160E068A6
:102350000F2835D846E0FFE7012084F88010BDE75C
:102360002068416989070DD565B1E16D0968016291
:10237000E06D001DE065B4F86200401EA4F8620044
:10238000B4F8625048F208022068416911420DD049
:1023900066B1006B616E0860606E001D6066B4F827
:1023A0006A00401EA4F86A00B4F86A60FEF70EFEE8
:1023B000A0EB0800B84202D3781C01D004E01FB1A2
:1023C00055EA0600CCD1D2E0204600F057FAD4F806
:1023D000842084F8809042F48071C4F8841084F8DA
:1023E00081A0DCE007284DD8BEE02068416989075C
:1023F0001CD5DDB1012D0BD9E16B49B1E16D096847
:102400000162E06D001DE065B4F86200801E09E025
:10241000E06D018802980180E06D801CE065B4F8F1
:102420006200401EA4F86200B4F86250206841695E
:1024300011F4604F1BD0D6B14169090409D5006B76
:10244000616E0860606E001D6066B4F86A00801EF0
:1024500009E000980088616E0880606E801C6066EC
:10246000B4F86A00401EA4F86A00B4F86A60FEF787
:10247000ADFDA0EB0800B84202D3781C02D0A3E760
:10248000002FA1D055EA0600AFD170E02068416965
:1024900089072CD55DB3032D0CD9E16B40290BD9ED
:1024A000E16D09680162E06D001DE065B4F862004D
:1024B000001F18E0012D0CD9E16B51B1E06D0188CE
:1024C00002980180E06D801CE065B4F86200801E17
:1024D00009E0E16D097880F82010E06D401CE065AE
:1024E000B4F86200401EA4F86200B4F8625020689C
:1024F000416911F4604F2CD05EB34169090409D5DC
:10250000006B616E0860606E001D6066B4F86A0062
:10251000001F1AE0416901F4C041B1F5005F0AD91A
:1025200000980088616E0880606E801C6066B4F858
:102530006A00801E09E090F83000616E0870606EDD
:10254000401C6066B4F86A00401EA4F86A00B4F843
:102550006A60FEF73BFDA0EB0800B84202D3781C8E
:1025600002D031E7002F8AD055EA06008ED1002232
:10257000434608212046009700F0DEF928B1D4F840
:10258000840040F02000C4F88400204600F076F972
:1025900084F881A0D4F8841084F8809009B10120D7
:1025A0009CE601989AE6401EB0F1807F10B501D3F9
:1025B000012010BD4FF0E02460610F21601700F092
:1025C000BEFB0020A0610721216110BD10B50400F1
:1025D00003D0D4F8800010B107E0012010BD002026
:1025E00084F87C00204600F027F82420C4F88000FE
:1025F0002068016821F0010101602046FFF018FF0A
:102600000128EBD0A06A10B1204600F0B1FA206892
:10261000416821F4904141602068816821F02A01DD
:1026200081602068016841F0010101602046BDE839
:10263000104000F001BB000010B586B00446142124
:102640006846FDF06AFD1949206888422CD1184877
:10265000016841F020010160006800F02000059051
:1026600013481038016841F0040101600068072335
:10267000C02100F00400059000200091022269466C
:10268000CDE90120CDE903030A48FEF781FB0022D2
:1026900047201146FEF0F8F94720FEF0E7F92068E0
:1026A000016841F02001016006B010BD0014014036
:1026B000F044025800080258FEE701688A69D243D4
:1026C000920701D400228A6200688169C943C90760
:1026D00003D0816941F001018161704770B50068E4
:1026E000C1F30901074E41EA0241049C4FF48065A1
:1026F0004268194305EA54553543AA4321430A4326
:10270000426070BDFF63FF030C4998B101280ED0F1
:10271000022807D0032802D091ED010A70479FEDEF
:10272000080A01E09FED070A81ED010A70479FED5D
:10273000060AF9E79FED050AF6E70000C83600240F
:1027400000007A3D0000FA3D00007A3E0000FA3EAB
:102750001348002110B5114C0123124A0460C0E94E
:102760000121C0E9033141618161C1610162FEF073
:102770000BF808B1FDF058FE09480021FDF0D8FF24
:1027800008B1FDF051FE06480021FEF725FC0028A7
:1027900003D0BDE81040FDF047BE10BD005800401A
:1027A000CC370024BC7D701070B510480724002180
:1027B0000D4E4FF480054FF04053C0E9021400F174
:1027C000140401612A0184E80E0001624162816201
:1027D000C162C0E90065FFF7B5FA002803D0BDE883
:1027E0007040FDF021BE70BD00380040B8380024B4
:1027F00070B51048072400210D4E4FF480054FF0AE
:102800004053C0E9021400F1140401612A0184E874
:102810000E00016241628162C162C0E90065FFF79A
:1028200091FA002803D0BDE87040FDF0FDBD70BDF9
:1028300000340140C83900240E48002110B50C4C6A
:102840000C224FF4E1330460C0E90131C160C0E9FA
:1028500004128161C161016241628162FFF7B6FECB
:10286000002803D0BDE81040FDF0DEBD10BD000023
:1028700000140140B83B0024FEE7704710B5026821
:1028800040F26F335169946944F00804946102681E
:10289000946944F0100494610268146824F00104FF
:1028A0001460026814699C4314610268936823F4FD
:1028B0004043936090F88120042A0CD08A060AD500
:1028C000D0F8842042F08002C0F884200268936926
:1028D00043F02003936190F88120032A0CD04A062C
:1028E0000AD5D0F8842042F00402C0F8842002689F
:1028F000936943F0400393618A050AD5D0F8842098
:1029000042F00102C0F884200268936943F4007326
:102910009361C9050AD5D0F8841041F00801C0F8C8
:10292000841001688A6942F480728A610021A0F8EB
:102930006210A0F86A1010BD2DE9F04198461646C5
:102940000D460746069C09E0FEF740FBA0EB080099
:10295000A04202D3601C01D00BE054B1386840693A
:1029600035EA000007D00020B042EDD00020BDE8DD
:10297000F0810320FBE70120F6E7006870470000C4
:10298000F0B58BB007464FF0F0006E461D001346C1
:102990008DF800008DF801108DF8025004D0F01C65
:1029A0002A46194600F168FAED1C6846294600F1EE
:1029B00085F8010A6A1C7155144604F10104FF21CF
:1029C000B054082F05F10302315505D2034869467A
:1029D00050F82700FFF056FF0BB0F0BDE43600249E
:1029E00070B59CB04C216846FDF097FB202113A8E0
:1029F000FDF093FB0220FEF079F822490A68224894
:102A000022F001020A600968016821F4404141F4A2
:102A1000804101600168002401F440411B9101687C
:102A20008904FCD5012103910220009040250495E2
:102A300004220B920C21CDE9090409230E900E0209
:102A4000CDE90C30CDE90F01CDE911066846FEF75E
:102A5000F5FE08B172B6FEE73F20CDE913041594E8
:102A60004FF48061169413A8CDE91745CDE91914E8
:102A70000121FEF065FD002801D072B6FEE71CB012
:102A800070BD00002C040058184802582E48F0B5BC
:102A90002E4A016841F470010160106800F00F00D7
:102AA000072804D2106820F00F00C01D10602849CC
:102AB0000020274C10340B68264D43F001030B60B7
:102AC00020600B682B400B60136803F00F03072B8B
:102AD00004D9136823F00F03DB1D13601C4C1E4A3E
:102AE00018341E4B261D371D2060194C1C4D2834F0
:102AF0003060261D3860371D23603B1D35601C1D6E
:102B00003A60251D2E1D1860331D2260286032603A
:102B100018600A680E4B134C22F4802260330A605E
:102B2000186020686FF30F00B0F1005F03D20E4908
:102B30000120C1F8080143F2D2000C49024B4A03BC
:102B4000803B08601A60F0BD88ED00E00020005274
:102B5000004402587FEDF6EA800201010002020201
:102B60000000FF010010005C008000510040005296
:102B700090F82810C90706D00168C36A4A6822F491
:102B800000321A434A6090F82810890706D5016878
:102B9000036B4A6822F480321A434A6090F8281086
:102BA000490706D50168436B4A6822F480221A431C
:102BB0004A6090F82810090706D50168836B4A68B7
:102BC00022F400421A434A6090F82810C90606D53C
:102BD0000168C36B8A6822F480521A438A6090F8B5
:102BE0002810890606D50168036C8A6822F4005211
:102BF0001A438A6090F82810490611D50168436C81
:102C00004A6822F480121A434A60416CB1F5801F71
:102C100006D10168836C4A6822F4C0021A434A60F4
:102C200090F82810090606D50168C26C486820F49F
:102C30000020104348607047F8B500260446C0F8ED
:102C40008860FEF7C3F9054620686FF07E4700688C
:102C5000000708D500222B464FF4001120460097AC
:102C6000FFF0BEFD60B92068006840070AD5002269
:102C70002B464FF4800120460097FFF0B1FD08B1CC
:102C80000320F8BD2020C4F8800084F87C60C4F8DC
:102C900084000020F8BD70B50546C0690C460026CA
:102CA000800641D5E86920F02000E861696A94F85F
:102CB0003300C9B210B1012809D035E0F02933D171
:102CC000012084F83200217084F833002CE094F85D
:102CD0003200631E421C84F83220215494F83200E2
:102CE000C15CFF2920D1A1788A1D90421CD3C91C48
:102CF0002046FFF0E3FE94F83210E21E030AC0B251
:102D00008A5C9A420CD1A21E895C814208D1A178CA
:102D1000022284F83320E01C84F83410A06301E020
:102D200084F8336084F83260EE6170BD0149024876
:102D3000FFF7B1BF7C3B002400140140FEE7090708
:102D400000284FEA116104DB00F1E02080F8001454
:102D5000704700F00F0000F1E02080F8141D70476C
:102D60000EB54FF6FF738DE80E00012302460248B0
:102D7000ED21FEF75BF90EBDCC37002410B586B00F
:102D8000182269468820FFF7EBFF1B4CBDF80010A6
:102D900060680180BDF802104180BDF80410818098
:102DA000BDF80610C180BDF808100181BDF80A10F9
:102DB0004181BDF80C108181BDF80E10C181BDF8B4
:102DC00010100182BDF812104182BDF814108182EA
:102DD000BDF81610C182B621E020FFF04DFE57214C
:102DE000F420FFF049FE0821F520FFF045FEFFF03A
:102DF0002BFE207006B010BD003700242DE9FF41E6
:102E000002281E46144620D24FF00002F8B11C4F93
:102E10004FF4006529463846FEF7D2F89DF80400C5
:102E20006423012240F080008DF80400154801A9B8
:102E3000FEF0E8FC1348642332462146FFF7FCF815
:102E4000012229463846FEF7BBF8BDE8FF810E4F48
:102E50004FF4004529463846FEF7B2F89DF80400C5
:102E60006423012240F080008DF80400074801A986
:102E7000FEF0C8FC0548642332462146DEE7000028
:102E800000100258C83900240008025830380024C5
:102E9000F7B54FF000042246C8B1164E4FF4006556
:102EA00029463046FEF78CF813486423012201A915
:102EB000FEF0A8FC10486423012202A9FEF0A2FC47
:102EC000012229463046FEF77BF82046FEBD0B4E18
:102ED0004FF4004529463046FEF772F8084864234F
:102EE000012201A9FEF08EFC64230548012202A9FB
:102EF000E4E7000000100258C83900240008025816
:102F00003038002473B50E4E00244FF4805522460D
:102F100029463046FEF754F80A48642301226946E0
:102F2000FEF070FC07486423012201A9FEF06AFC50
:102F3000012229463046FEF743F820467CBD0000BA
:102F400000040258B83800244FF04070E1EE100A37
:102F500070470000303132333435363738390000AD
:102F6000000000000000000000000100020004005A
:102F7000060008000A000C0010002000400080003D
:102F8000000100000000010203040102030406071F
:102F900008090000B42F0008000000241C370000BE
:102FA000D4020008743D00081C370024A40B000064
:102FB000380300084200010244550100141E415527
:102FC0005421554221542221422221222221000053
:102FD0000134200E515555495555215554855552AA
:102FE00015031109110F21150216513450094555C9
:102FF0005561555548552F413B32481502134598A8
:1030000030084055552A1554803031A733552806CD
:10301000325540000823021554A8555501E01139D6
:10302000040A2554AA1552AA8554001516300651D3
:1030300045554821032285035184C124301250157F
:10304000054884A12222082222A82022084544FC07
:1030500041DE200B815554885554A2155482033308
:103060005514D215312005A855568A06252E053748
:10307000B201464801104B02146103000716AAAAC8
:10308000AA0020001E0113A51405544555523E32D6
:10309000880304081608554848555151E5340B5526
:1030A0002215552A141540528572100845550815E9
:1030B00054AA8506292F0A1148548136280F155520
:1030C000405015554A85552021552145841106113A
:1030D0000C1112061A50EC19523352119FF40D0ABA
:1030E000154A481548488548521551E4500A50146D
:1030F000054A0281488221061382A1121976197CA1
:10310000195211A5A1037A555E1009005550AA0560
:103110004A00A139100720820820AA0806100428B6
:1031200082281228044AAAA188213C2A15D059D302
:10313000213329A3201200854854204852AA48541C
:10314000A8485521520045271200E45814412A0A84
:1031500028208AA82A0888208808208848451151F4
:10316000DC09101F314B0F1755000C030D1406041A
:103170002C0551452848FF033E2805040C071F2253
:1031800008284451412703200A5011454A88214804
:1031900080A806CC0808214848215151CE030233AB
:1031A000610301150129880D18F8043249012D85A4
:1031B000044649E310141552148552848552A085A3
:1031C000522885520A85521285121118011A362E7C
:1031D000002904300552158552090C07105400854A
:1031E0005254853B0401153624065552005552C8E9
:1031F0003D1805011F3641A2110311663A2816AD8C
:103200002F0401136C61DE051F9BD50E0D2A60048F
:103210003DC304280852A1554AA85552E91C04553B
:103220005509B7053C0755551A55519A11050C0B10
:1032300016285552055554A1555505EB051C042576
:103240005555520411221E98A503400485554A4D38
:103250003EA1290603471555013E457706A1039275
:1032600045150D1458061E558E054D970505106B16
:10327000051D1931391C04508205C6031106710958
:10328000011F481C04114511B8033008A88888881C
:10329000A8218801040421111111883C07155484C8
:1032A000855512070532210C0628153C3224030DE2
:1032B0002C59063218030D2451071FA155AF0503E1
:1032C000114A15031118291CAE289F04C350551A22
:1032D000F10371500E105068071C0955055A14A5CA
:1032E000528285550510045AAAA506110C11120A1E
:1032F00015507FED2C072005205556AA060D387471
:10330000078241A5011F744D41040D286A0801166A
:103310006C0E17557E053D7B032D9F032E852109DD
:1033200052A80B05133BDD150679F781030D162A0C
:10333000069D600325B30E122169030517023D04A3
:10334000051DA2093A521F492D1DC90911810220EC
:1033500000A229F13E5A560A022112A23E51220829
:1033600011633005885552080311E70E1408370819
:10337000E50E238055031D89070224026C7544C69F
:10338000804D011D363DCD086E002B0B4DD3080539
:103390001E44B5B001296CB1360126D80910730955
:1033A0002085011A360D171A065F541535046DF085
:1033B000038D2B045D1E040E19155403AD86070101
:1033C0001012FD3504CD8B049A4A8B0D192D033D47
:1033D000DB0919BB3B5212BEA5AA0D1654067DBAD5
:1033E00009200B002120A208220A082202060C1341
:1033F0001920A22020008108040542002150AA8142
:103400005400059C0C0510E90D1A51064D800A491F
:103410001CB2A80C0D1A110D791C5E84800D2109B7
:10342000091F1CA16CAD3804011D6C3D1C0B2F80C5
:1034300015080D41A21D110DBF8015250B011F366A
:103440006281A80D1C3408A1D81D99030E248ADAC4
:10345000049D04084D8E0B0D2313080E12450A051A
:103460000D1FCC032D6D0C8215030E24127C053D1F
:10347000FE0725E31D490E32A1033688B00D1C0757
:103480000886153581030F1C8055A4045D2B0B2E77
:103490008263032D2B0B5F0085980AFD2E0B0D1404
:1034A000480936A24406248A444D3F08FD8A060D89
:1034B0001D6E04D9F409251C01136C4E8A380E09BF
:1034C0001856D9F48AA8550D1A96039D1E063F5525
:1034D0002071040E20021E064D2C075D9D08092850
:1034E000520E12149303092BF4AD0108051B7A8DBB
:1034F000A50C6DA80C7DAB0C05190E795255DA356B
:10350000F22961091B521C0454545579052D7C0580
:103510000E2F887008BF5402E2054D890D0D1770FB
:10352000084D35105F48056210B103311B0F1C5068
:10353000057208ED5D065DDB0A0D11E5053F5405DA
:10354000F90C0D1238041115211B0E1B01B71205C1
:103550001E350D25D2123F5000B70C0D1887067D81
:103560008B0B7C074028012AAAA8AA100D168C0AEA
:103570004DCD072DD40D2008A14154A828502A3341
:103580004C052AAAA1420D110E140A63073DB00989
:103590002010452A15214A84A152A2A154AAA1555E
:1035A0002A0600041752AAA19F6D43053009414A1B
:1035B00015280A852A8A2A3006AAA8552AA83C0C6A
:1035C00004150554A0700875AB10054A85400A9C87
:1035D00012A8D811095D2F0B0D16230A1D600B1EB2
:1035E000A0D407120599116336500B1175117B1188
:1035F000810D140B14956211C981D513A2A1E71195
:10360000ED11F30E1651A7082E0AF6061535462AB7
:1036100002172AA84D15530F1852A111099DD31452
:10362000357416A8B3BD560D021741D82D9A0B401C
:1036300004AA814AD52405A805282A562D2F130D42
:10364000187E09493A224A6C1E15C60F21061C062F
:103650008A854A12A1A5120E1651670F31D8325031
:103660003025A632AA422005A2A852A0DB0D17D110
:10367000076D6F0C2D7C1047A001B0110939640D46
:1036800018D20F4DF306153213A0286339851205A1
:10369000751D71101181091688116D11BD11C311AD
:1036A000C921CF71DB35530918884DC20A290A1583
:1036B0003B1541351A16A8532DC7050912881F540A
:1036C00014AF0E1005A1482208032C065286085498
:1036D0001408151C074855114814883E16E4094A79
:1036E00020854820855145E7300554445152330C1C
:1036F0001F206A20A84821084820A150050552151E
:10370000115205885221A1528885520885545115BD
:1037100073080E1E02410DDDAD043E01F3110F16BC
:1037200008557B150D1A73080D1E67080D14BC0D86
:103730000E2D22DA104D1611032622159F7D271219
:103740004D7C180E1E48AE09D19F6E21DD18012850
:103750006F7D5E0E0D24A0082D2E080113064D1B53
:103760000C0D1EA1070D2F5910011C030E444154CE
:103770001ABF55698109100492148603BDE7090E2A
:103780001A697608FC155145014820A82221212AF2
:103790002121222021222A2140408506053A1701B5
:1037A000FF3C01BB3C1C0701400021082AA6181C55
:1037B00004212A087B1B0C07162A2208004040EB34
:1037C000091DAD090E1255E8094DC8090E1255A77D
:1037D000081D5E1D4D6C18F2AA01711B011A36D32B
:1037E000A1550301223601341B3E154C07A10301EC
:1037F00019A23E0594170D16C30E0D11C00A4DCA2D
:103800001A2382A1030223AA03A1361D1311110357
:10381000013436710301343601193C011F3601139E
:103820003F012836A139012B36713CD57A3748AA99
:103830004A35802109478AA1561348200C3103716B
:10384000360D10F5090C151601048420828488A217
:1038500084888A80888AA82082010104520E1D244F
:103860001B1E4AA70D1D830D2C05148550000C0945
:1038700011065D14131DC1113E28C90C0E21056FE0
:103880000F0E1DAA300FBD15092E821509400A50D2
:1038900000014AA0A848888203031151113ABD15BE
:1038A000091E20150900041DA05005364C065114B0
:1038B000054882A41F3C07A12022054000170A3EAC
:1038C000011D091D980D1D800D6D3816CF5451A591
:1038D0000C21392007214A08884888031C0540002C
:1038E000006A3C0C0F140001DA1FCD3F094004525E
:1038F000221503053244CD46071DC51E1D8A0E1E26
:103900005064140C093150055415005515503020E1
:103910000D49711B01FF0101FF0101FF0101FF01C1
:103920000156013C064505544005EF041D86193D2E
:1039300060122DD1083E05F5253E51A70951163ECE
:1039400005871941102D86183F401544133E402C21
:10395000052DF9228E5074262D41119F4155BE250B
:103960000E1515B918513A714B1F54015C244D784E
:10397000050C0A1155005455500A55522AD4264EAA
:103980005456093E50F3101DA7051DC4181C09000C
:10399000055400AA54002A080A0C041B8000A0A8A1
:1039A000273205C01D64071D1E1A1D77271C040140
:1039B0004055E6051E05B5070D44870D0159010266
:1039C00069A56C02359537026765A2000431595527
:1039D0005A360E3356FF270E34545A200F325154A4
:1039E0003A0801346C03345054DA0131A207340030
:1039F000010E0633517B0E32147E090E3445E72941
:103A00000E3651E8171D0A050D2F1C2C1C06400010
:103A1000AA0006E925D103326A032E40D3211D8472
:103A20000A3240031D092A1FAA208B271D8E271D3D
:103A3000DD042280033205031215031C05A0015585
:103A400080CB047DD4041200031E05522C4DB22CF1
:103A50005E80B92C100851000550000010040E1BA8
:103A600055B5224DAC0521419D7E270E1F154226DE
:103A70003D45248E01AB23625603625A03626A03FA
:103A800061F3625603225A03BDF20F6005955AAAEC
:103A9000951C9D09101004A5556A03229503212346
:103AA000312A22560333A5563331033004556AA90F
:103AB0002713A5553013AAA903325603225A03121D
:103AC000A503FE6A611030045555A903DD78103E48
:103AD000950705729518329503200596AAAA5603F4
:103AE000AD9705B00595555695F081EDD154119DD2
:103AF000219462A503629503351222A903335AA9C2
:103B0000C331C621DA36A52027556AFE300F55AAE3
:103B10009656AA965AAA565AA9566AA9F9C1B20146
:103B200018036254036250034240036005540000CE
:103B300050031D740D1004400155031D1A07D200D7
:103B4000013DE02A3600E629221C0501540001420D
:103B50000E1DAA181240033D3C2E2984213B3D8FA7
:103B60000721033A50C479C73240456148714B621E
:103B70000503FA156A11312D6F115142719A515F87
:103B80001D032A1D2D0F6162200454400103717F23
:103B90005D45031D3F03430000161D600F51895111
:103BA0004791034E0139034200723D4203214651C1
:103BB000258DB4036205214E159E033508D2545558
:103BC000419CE559355CA1785DE4038523257B4163
:103BD0007BC20069A50111A02214D24600B9654C30
:103BE0002D090901135145323D1104815A051C77F5
:103BF0000D74E0081D89031C0522A055687C2D1C4E
:103C000004025550BE1E1DFC090E1F2AB2071D25B9
:103C10002F1C0708A0002280001A050C0D1DAA0009
:103C200002AA802AA8808AA80009C306553D3565E6
:103C300015920C0458155585D50F4DBD034103054C
:103C4000290D5DF4040229AA356C0455956A2904EE
:103C5000052C7942A903052EB16DC7050D292E0A41
:103C60005D9A052DB7050D298C091D160532A50392
:103C70000E2A95F6094004AA9500030F295695557A
:103C8000099E0118030D2A16094D68040E2B002CFD
:103C90000A7DC8030F29555166122D94043D49052C
:103CA0000D2BBE094D09081D32040C042A540005D1
:103CB000ED092DC8050C06295005505115C0096D98
:103CC000E8051D5E220E2B54590A4D19050D2C04D2
:103CD0000B7D70050E5F54C4041D1F06330258048B
:103CE0005204045210046110920C14520C2C520015
:103CF00018A1046130211C0211081492005C92008A
:103D00004810090400020008000401073E80AF07C4
:103D1000222006138004151C060010002040100508
:103D20001DEA05100502FFFF02372126412A300453
:103D30000001FF0129036C0923DB793E3333034281
:103D4000D9071C07533732325245FA061E10E419C0
:103D500012444F124804124C0412500C1E14F8194D
:103D600051282C05443C0024560A62103920049046
:043D7000D003040078
:020000040810E2
:100000001FB502F7A1FF1FBD0948804709480047F7
:10001000FEE7FEE7FEE7FEE7FEE7FEE7FEE7FEE7B8
:10002000FEE7FEE704480549054A064B7047000015
:100030008D2A000899020008C03C0024C042002418
:10004000C03E0024C03E002410B54C1084EA530486
:1000500004D54042C1F1000138BF491E1B4204D5FE
:100060005242C3F1000338BF5B1E00F784F914F05D
:10007000804F04D04042C1F1000138BF491E14F046
:10008000004F04D05242C3F1000338BF5B1E10BDC5
:10009000032A40F2308010F0030C00F0158011F8B4
:1000A000013BBCF1020F624498BF11F801CB00F88C
:1000B000013B38BF11F8013BA2F1040298BF00F8E0
:1000C00001CB38BF00F8013B11F0030300F05C8066
:1000D000083AC0F0088051F8043B083A51F804CBC4
:1000E000A0E80810F5E7121D5CBF51F8043B40F88A
:1000F000043BAFF30080D20724BF11F8013B11F895
:1001000001CB48BF11F8012B24BF00F8013B00F8D8
:1001100001CB48BF00F8012B70474FF0000200B53B
:10012000134694469646203922BFA0E80C50A0E81A
:100130000C50B1F12001BFF4F7AF090728BFA0E8C8
:100140000C5048BF0CC05DF804EB890028BF40F894
:10015000042B08BF704748BF20F8022B11F0804FD6
:1001600018BF00F8012B70477047704770470000B8
:10017000004870475C3C002401491820ABBEFEE7F4
:10018000260002007047000000F76CB970B53A49CC
:1001900005460068884202D0384A904202D1D1F820
:1001A000080302E03648D0F8080310F4403F11D0AD
:1001B00001F0F4FA04466868B0F5803F06D0B0F567
:1001C000003F03D0B0F5403F26D101E0000C17E01E
:1001D000A40821E04FF4002001F794F90446686870
:1001E0008103890B18D181140C2915D2DFE801F0A5
:1001F000140606060606060B0D0F1113800C4000B0
:10020000B4FBF0F408E0240906E0640904E0A40962
:1002100002E0E40900E0240A00F084FA41F203015C
:10022000884208D8174884422868816813D821F486
:100230008071816070BD14496008884204D82868C4
:10024000816821F44071F4E71049884206D8286893
:10025000816821F4407141F48071EAE70C498842D9
:100260002868816804D821F4407141F40071E0E706
:1002700041F44071DDE7000000200240002102400F
:1002800000600258002D3101105E5F0020BCBE00EE
:1002900040787D012DE9F0410027044600680D46B5
:1002A00001F062FE0646206801F05AFE304359D044
:1002B00020682D4EC168890105D5617D012902D1D3
:1002C000217D01290BD0022D1DD0206801F04CFEAC
:1002D000B8B120688168C1F3400169B111E02349D8
:1002E000012502E08F422ED27F1C0268D2435206C3
:1002F000F8D440210160E8E78168314041F0100105
:100300008160012D11D0206801F02AFE48B12068DB
:100310008168C1F3400121B98168314041F0200179
:100320008160022D08D0032D04D0042500F74EFE75
:10033000064613E00C25F9E70825F7E700F746FE27
:10034000801B05280AD9606D40F010006065A06D23
:1003500040F00100A0650120BDE8F08120688068C0
:100360002842EBD10020F7E7C0FFFF7F00DC0C0044
:1003700070B504460068816811F0010F3DD18168B5
:100380001F4A11422AD18168D5432940491C816006
:1003900000F71CFE1B4B064620681B49984201D003
:1003A000884201D1194A00E0194A9268884202F055
:1003B0001F0201D1194600E00146814218D0BAB1AE
:1003C0001BE0816811F0010F03D181682940491CAD
:1003D000816000F7FBFD801B022809D9606D40F0A9
:1003E00010006065A06D40F00100A065012070BDA7
:1003F00020680168C943C907E3D1002070BD00002F
:100400003F00008000200240002102400023024003
:1004100000630258034810B500F76EF9BDE81040BC
:1004200000F740B9FC36002472B6FEE7F8B54FF08D
:10043000000604003546009602D0606D10B107E05A
:100440000120F8BD204600F003F9A66584F850604D
:1004500020688168C1F3407119B181686F4A114009
:10046000816020688168C1F3007179B981686C4A44
:10047000114041F0805181606B496A480968B1FBC5
:10048000F0F000E0401E00900028FBD12068816859
:10049000C1F3007141B9616D012541F01001616541
:1004A000A16D41F00101A16501F05EFD616DC9061C
:1004B00000D420B1606D012540F0100093E0606D24
:1004C00020F4807040F0020060652068816811F0BF
:1004D000010F1FD15549564B884201D0984207D190
:1004E0008A689E6802F0010206F00106324303E0CA
:1004F000504A926802F0010262B9884201D09842E3
:1005000001D14D4800E04D488268616822F47C12B8
:100510000A43826000F006F941F20301884202D9E1
:10052000A06810280CD0617D227FA368206B49034E
:1005300041EA024118430843217F01290CD010E011
:10054000607D227F216B400340EA024241F01000AF
:10055000104340F00C00EFE7218C394A02EB414197
:100560000843616A29B1A26A01F47871014342EA41
:1005700001002268334BD16819400143D1602068E3
:1005800001F0F2FC0646206801F0EAFC30431DD180
:10059000216844F20303267DE26AC86842EA863293
:1005A00098431043C86094F8380001281ED0206892
:1005B000016921F0010101612068626B016921F08C
:1005C0007041114301612046FFF7E0FDE06801281A
:1005D00020681CD0016B21F00F010163606D20F0D9
:1005E000020040F0010060652846F8BD2068A38F36
:1005F000154FD4E9101C154E07EB0347A26C036995
:1006000041EA0C013A43334011431943D3E7A2694D
:10061000016B521E21F00F011143DEE7C0FFFF5FA7
:10062000C0FFFF7F400D030014370024002002406C
:10063000002102400060025800230240006302587B
:100640000000FEFF03C0F0FF0100FFFF1EF800FCEA
:1006500010B586B0044614216846FFF75EFD1149C7
:10066000206888421BD11048016841F020010160D8
:10067000006800F0200005900B480830016841F048
:100680000401016000680321002200F004000590CD
:1006900002208DE807000548694600F779FB06B09F
:1006A00010BD000000200240D84402580008025843
:1006B00010B5044690F85000012808D0012084F8B5
:1006C000500003212046FFF7E5FD10B10BE00220AA
:1006D00010BD2046FFF64EFF28B9616D21F4885108
:1006E00041F001016165002184F8501010BD000047
:1006F00070B5044600F76AFC0546601C02D0044849
:100700000078044400F762FC401BA042FAD370BD9D
:1007100008370024426931EA020200D109048161EC
:100720007047000001480068000C70470010005C32
:1007300030B590F84120202A24D190F84020012A99
:1007400020D0012380F84030242280F8412020234B
:1007500000240268156825F0010515600268156817
:1007600025F480551560026815680D431560016811
:100770000A6842F001020A6080F8413080F8404087
:10078000002030BD022030BD70B5040004D094F8C4
:100790004100002510B106E0012070BD204684F81C
:1007A000405000F0F9F8242084F8410020680168E6
:1007B00021F001010160D4E9001020F070600861AF
:1007C0002068816821F400418160E0682168012887
:1007D000A06806D040F404408860E068022803D096
:1007E00006E040F40040F7E721684FF400604860FD
:1007F00020212068114A4368134343602068C2687F
:1008000022F40042C26054F8106B0DCC104340EA51
:100810000320F06054F81C3CD4E900021043186037
:1008200054F81C0D026842F001020260656484F80D
:100830004110256384F84250002070BD0080000202
:100840002DE9FF4F83B0044690F841009A46934645
:10085000DDE91087DDF84890202871D15FEA0800B3
:1008600014D09FB194F84000012869D0012084F889
:10087000400000F7ABFB0122064619230090D1038C
:10088000204601F083F900286ED103E04FF4007098
:10089000606469E00025C4F82480212184F84110B7
:1008A000402084F8420065646785534665635A4674
:1008B00004992046CDE9009601F036F910B184F88C
:1008C000405051E0608DFF274FF08078FF284FF0B7
:1008D000007A04D927853A464346009505E0608DA5
:1008E00053462085009594F828202046049901F766
:1008F000F5FE32464946204601F09CF9A0BB606AED
:10090000216800788862606A401C6062608D401EC9
:100910006085208D401E80B22085618DD9B1D0B90F
:1009200000224B4680212046009601F02FF9D8B9CD
:10093000608DFF2805D927853A464346009506E095
:1009400026E0608D53462085009594F828202046A7
:10095000049901F7C3FE608D0028CAD1324649468A
:10096000204601F040F918B1012007B0BDE8F08F32
:1009700020682021074AC161206843681340436012
:1009800084F8411084F84250002084F84050ECE78D
:100990000220EAE700E800FE2DE9F047B6B007467E
:1009A00014212FA8FFF7B9FBBC216846FFF7B5FB60
:1009B0002949002638684FF01208284C4FF00409E6
:1009C000DFF89CA08842274D23D108202096009074
:1009D000684600F057F908B1FFF726FD206840F09F
:1009E0000200206020684FF44072CDE9308600F0AC
:1009F00002002F9232962FA9CDE93390504600F78E
:100A0000C7F9286840F400102860286800F4001036
:100A100034901549386888421AD1206840F00200A5
:100A2000206020684FF44062CDE9308600F002007B
:100A30002F9232962FA9CDE93390504600F7A8F9AE
:100A4000286840F480002860286800F48000349012
:100A500036B0BDE8F087000000540040E044025882
:100A600000040258E844025800580040002809DBFE
:100A7000410900F01F028900012001F1E0219040AE
:100A8000C1F80001704700000E4BF0B41B680D4622
:100A9000C3F30223C3F10706042E00D90426191D4F
:100AA000072901D2002300E0DB1E012404FA06F12D
:100AB0009C40491E2940641E994014402143F0BCCB
:100AC00002F73DB90CED00E0064900F0070210B551
:100AD0004FF6FF040868044B204040EA0220184308
:100AE000086010BD0CED00E00000FA05134970B578
:100AF0000A68D243520705D5096801F0070181420F
:100B000013D118E00A6822F0070202430A6000F7D6
:100B10005DFA0A4D4FF47A760446083D07E000BFBF
:100B200000F754FA001BB04201D9012070BD2868BB
:100B3000C0438004F4D4002070BD00000C4802586B
:100B4000494930B5484C0B1D0A681C3409681D68BA
:100B5000246802F00303C5F30022C1F30551C4F376
:100B6000CC04002914FB02F200EE102AF8EE400A31
:100B700075D03F4A9FED3D1AB7EE000A6BB1DFED2D
:100B80003D1A012B01D0022B64D002EE101A11681D
:100B9000F8EE422A81EEA22A21E0334C283C236859
:100BA0009B0612D5344B246801EE901A1168C4F3E9
:100BB000C104F8EE612AE34001EE903AC1F3080166
:100BC000F8EE611A81EEA22A0BE001EE901ADFED39
:100BD0002B2A00BFF8EE611A116882EEA12AC1F338
:100BE000080101EE901A1168F8EE611A40EE811AC0
:100BF00071EE800A62EE200AC1F3462101EE101A5E
:100C0000B8EE411A31EE001AC0EE811ABCEEE11ABC
:100C100080ED001A1168C1F3064101EE101AB8EE1A
:100C2000411A31EE001AC0EE811ABCEEE11A80EDD5
:100C3000011A1168C1F3066101EE101AB8EE411AEB
:100C400031EE000A80EE801ABCEEC10A80ED020A85
:100C500030BD04E001EE901ADFED092ABAE7002169
:100C6000016041608160F3E72844025800000039C8
:100C7000404402580024744A0090D0030024744C6D
:100C800020BCBE4B2DE9FC5F044650F8241B002518
:100C900000902E460801FE4FDFF8F8831DD5606EE8
:100CA00050B1B0F5801F0CD0B0F5001F0ED0B0F5DC
:100CB000401F1DD001250FE0386840F40030386037
:100CC00016E00221201D01F08FFA03E000980221B6
:100CD00001F01AFB05000BD02E462088C00523D555
:100CE000606D05281ED2DFE800F00C11161B1B00FA
:100CF000626ED8F8001021F440111143C8F80010BA
:100D0000EBE7386840F40030386009E00021201D2E
:100D100001F06AFA03E00098002101F0F5FA0546B7
:100D20006DB100E001252E462088800528D5A06DF4
:100D300080281ED00CDC90B140280ED114E0626DEA
:100D4000D8F8001021F007011143C8F80010EBE7B4
:100D5000C02813D0B0F5807F10D001250FE038688F
:100D600040F40030386009E00021201D01F03CFA19
:100D700003E00098002101F0C7FA054695B12E4620
:100D80002088DFF81093400509F108092CD5D4F824
:100D9000A400B0F5800F20D00DDCA0B1B0F5001F8D
:100DA0000FD115E0A26DD8F8001021F4E0711143C5
:100DB000C8F80010E4E7B0F5C00F13D0B0F5000F8D
:100DC00010D001250FE0386840F40030386009E0A9
:100DD0000021201D01F008FA03E00098002101F035
:100DE00093FA054675B12E46208800052DD5D4F816
:100DF000A800B0F1007F21D00EDCA8B1B0F1807F57
:100E000010D116E0D4F8A420D9F8001021F4600124
:100E10001143C9F80010E7E7B0F1407F13D0B0F1FB
:100E2000806F10D001250FE0386840F40030386042
:100E300009E00021201D01F0D7F903E0009800210E
:100E400001F062FA05466DB12E46206880011FD57B
:100E5000A06CD8B110280FD0202812D0302815D07F
:100E6000012514E0D4F8A820D9F8001021F0E061A1
:100E70001143C9F80010E8E7386840F400303860E2
:100E800004E00221201D01F0AFF905466DB12E46A8
:100E90002088C0042BD5E06DB0F5005F20D00DDCBC
:100EA000A0B1B0F5805F0FD115E07A48A26C001FA9
:100EB000016821F0300111430160E9E7B0F5405FBE
:100EC00013D0B0F5804F10D001250FE0386840F402
:100ED0000030386009E00021201D01F085F903E0B1
:100EE0000098002101F010FA054685B12E462088B1
:100EF000800429D5206EB0F5403F23D010DC08B324
:100F0000B0F5803F14D0B0F5003F0FD115E0E26D91
:100F1000D8F8001021F4E0411143C8F80010E6E7CA
:100F2000B0F5802F0ED0B0F5A02F0BD001250AE030
:100F30000121201D01F058F903E00098012101F082
:100F4000E3F905468DB12E46208840042AD5D4F811
:100F5000AC00B0F1405F23D010DC08B3B0F1805F8B
:100F600014D0B0F1005F0FD115E0226ED8F8001058
:100F700021F4E0211143C8F80010E5E7B0F1804FFB
:100F80000ED0B0F1A04F0BD001250AE00121201DA9
:100F900001F02AF903E00098012101F0B5F90546B6
:100FA0006DB12E46208800041FD5E06ED8B1B0F197
:100FB000805F0ED0B0F1005F10D0012514E0D4F8AE
:100FC000AC20D9F8001021F0E0411143C9F800101D
:100FD000E8E7386840F40030386004E00121201D63
:100FE00001F002F905466DB12E462068C0011ED5FC
:100FF000606CD0B101280ED0022811D0032814D083
:10100000012513E0E26ED8F8001021F040511143A1
:10101000C8F80010E9E7386840F40030386004E0B0
:101020000221201D01F0E0F8054685B12E4620681A
:10103000DFF85CB04002ABF11C0B57D516480168D5
:1010400041F480710160FFF6C1FF82460EE0114855
:10105000626C001F016821F0030111430160E6E7A3
:10106000FFF6B4FFA0EB0A0064283DD80A480068E8
:10107000C005F5D57DBBDFF81CA0B4F8B0100AF1AF
:10108000200ADAF8000001F4407100F4407005E035
:101090002C4402585044025800480258884211D04B
:1010A000DAF80010DAF8002021F4407142F48032BE
:1010B000CAF80020DAF8002022F48032CAF80020B2
:1010C000CAF80010D4F8B000B0F5807F21D1FFF647
:1010D0007DFF019019E008E0FFF678FF0199411AC1
:1010E00041F28830814210D903252E462078DFF85E
:1010F00030A4C0073DD0A06F182838D026DC80B3BC
:10110000082829D0102825D12CE0DAF80000800723
:10111000E2D5D4F8B010C1F30120032858460DD011
:10112000016821F47C510160B4F8B020DAF80010B5
:10113000C2F30B021143CAF80010D7E7F94A03685B
:1011400002EA111223F47C511143ECE720280ED05F
:1011500028280CD001250BE00121201D01F044F8C6
:1011600004E004E00098012101F0CEF805465DB1ED
:101170002E46207880071ED5606F062819D2DFE83A
:1011800000F0160C11161616A26FDAF8001021F0F6
:1011900038011143CAF80010EBE70121201D01F0CE
:1011A00023F803E00098012101F0AEF8054675B17F
:1011B00000E001252E46207840071FD5D4F8900086
:1011C000062819D2DFE800F0160C11161616626F09
:1011D000DAF8001021F007011143CAF80010EAE71D
:1011E0000121201D01F000F803E00098012101F029
:1011F0008BF805469DB100E001252E46207880063B
:101200002BD5D4F88C00B0F1405F24D011DC10B3A2
:10121000B0F1805F15D0B0F1005F10D116E0D4F8C6
:101220009020D9F8001021F007011143C9F80010EF
:10123000E4E7B0F1804F0ED0B0F1A04F0BD0012504
:101240000AE00021201D00F0CFFF03E000980221FA
:1012500001F05AF805468DB12E46207840062BD570
:10126000D4F89800B0F5406F24D011DC10B3B0F57D
:10127000806F15D0B0F5006F10D116E0D4F88C2037
:10128000DAF8001021F0E0411143CAF80010E4E759
:10129000B0F5805F0ED0B0F5A05F0BD001250AE05D
:1012A0000021201D00F0A0FF03E00098022101F0C2
:1012B0002BF805468DB12E46207800062BD5D4F8A4
:1012C0009C00B0F5C04F24D011DC10B3B0F5005F26
:1012D00015D0B0F5804F10D116E0D4F89820D9F889
:1012E000001021F4E0511143C9F80010E4E7B0F513
:1012F000004F0ED0B0F5204F0BD001250AE00021A1
:10130000201D00F071FF03E00098022100F0FCFFB7
:1013100005464DB12E46207800071ED5D4F8800032
:10132000B0F5805F0AD00FE0D4F89C20D9F8001007
:1013300021F460411143C9F80010ECE70098022144
:1013400000F0E2FF00B10126D4F88020DAF80010A6
:1013500021F440511143CAF800102078C00613D57B
:10136000D4F89400B0F5807F05D10098022100F0F8
:10137000CBFF00B10126D4F89420D9F8001021F455
:1013800040711143C9F800102068000316D5D4F845
:10139000A00038B1B0F5803F09D0B0F5003F0BD0C8
:1013A00001250AE00021201D00F01EFF03E0009847
:1013B000022100F0A9FF054685B12E4620684003B2
:1013C00022D5D4F88400B0F5801F11D0B0F5001FED
:1013D00013D0B0F5401F15D0012514E0D4F8A0209B
:1013E000D9F8001021F440311143C9F80010E5E7A5
:1013F000386840F40030386004E00098012100F0C3
:1014000083FF054655B12E462068C0031CD5E06C0D
:1014100070B1B0F5803F10D0012514E0D4F88420DD
:10142000DAF8001021F440111143CAF80010EBE77C
:10143000386840F40030386004E00221201D00F0DC
:10144000D3FE0546CDB12E462068800005D5009814
:10145000022100F059FF00B10126206880031BD54E
:10146000E06FB8B1B0F5807F10D0B0F5007F11D03B
:10147000B0F5407F0ED001250DE02948E26C083818
:10148000016821F4803111430160DDE7386840F4E0
:1014900000303860F5B32E462068C00207D5226FB1
:1014A000D8F8001021F000411143C8F8001020685E
:1014B000C00008D5D4F8B420DBF8001021F4804136
:1014C0001143CBF800102068800207D5A26ED8F82F
:1014D000001021F080711143C8F80010206840000E
:1014E0000CD5DBF8001021F40041CBF80010DBF83C
:1014F0000010D4F8B8201143CBF800102068002861
:1015000007DA0748226D0838016821F0405111437D
:10151000016000E008E086B10120BDE8FC9F00000A
:1015200054440258CFFFFF00E26FDAF8001021F4B4
:1015300040711143CAF80010AEE70020EDE700004B
:101540002DE9F05F04000F467ED0DFF83882D8F82E
:10155000000000F00F00B8420CD2D8F8001021F0C3
:101560000F013943C8F80010D8F8000000F00F0050
:10157000B84269D12078844D40070AD5206929688E
:1015800001F07001884204D9296821F070010143FB
:10159000296020787C4E361D00070AD560693168C5
:1015A00001F07001884204D9316821F070010143D3
:1015B00031602078C0060AD5A069316801F4E06185
:1015C000884204D9316821F4E06101433160207818
:1015D000DFF8B4B180060BF1080B0CD5E169584671
:1015E000DBF8002002F07002914204D9026822F078
:1015F00070020A430260207880070AD5E0682968F3
:1016000001F00F01884204D9296821F00F0101433C
:1016100029602078C0073ED05B49A2682868183945
:1016200020F47060104328606068022818D00328F6
:1016300019D00968012819D0490700294ADADFF8CA
:1016400048A1AAF1080A00E044E0DAF8002022F0FC
:1016500007020243CAF80020FFF6B8FC814612E0F8
:1016600009688903E9E709688901E6E7C905E4E74C
:10167000FFF6ACFCA0EB090141F28830814202D9AF
:101680000320BDE8F09F6168DAF8000000F0380040
:10169000B0EBC10FECD1207880070AD5E06829684B
:1016A00001F00F01884204D2296821F00F010143A3
:1016B0002960D8F80010404601F00F01B9420BD95B
:1016C000016821F00F0139430160006800F00F004C
:1016D000B84201D00120D4E7207840070AD520691C
:1016E000296801F07001884204D2296821F0700154
:1016F00001432960207800070AD56069316801F04C
:101700007001884204D2316821F0700101433160D8
:101710002078C0060AD5A069316801F4E0618842EA
:1017200004D2316821F4E061014331602078800601
:101730000CD5E1695846DBF8002002F070029142B6
:1017400004D2026822F070020A430260FFF6DAFF58
:101750000E492A682B68C2F3032203F00F038A5C48
:10176000C95C02F01F0201F01F01D040084A20FAB4
:1017700001F111600749086007480068BDE8F05FA3
:10178000FFF63CBD0020005218440258822F00088A
:1017900018370024143700240C37002430B5FFF626
:1017A000B1FF0B4A0B490C4B15681468C5F30322B3
:1017B00004F00F048A5C095D02F01F0201F01F01B2
:1017C000D040064A20FA01F119601060084630BD89
:1017D00018440258822F00081837002414370024B8
:1017E00000B5FFF7DBFF05490968054AC1F302218F
:1017F000515C01F01F01C84000BD00001C440258AC
:10180000822F00082DE9FC5F0446006817468A46CF
:1018100000211D4694F8802000F1200B0191012A3F
:101820000DD04FF0010884F88080FFF6CFFB814691
:1018300094F881000026012804D002201EE0022036
:10184000BDE8FC9FBAF1000F17D0B7B1A168032023
:10185000C4F85CA0A4F8607084F88100C4F88460C7
:10186000A4F862706666A4F86860A4F86A60B1F5CE
:10187000C02F6667266704D008E0012084F88060E6
:10188000DEE72068016841F400610160206841687A
:101890006FF30F01394341602068016841F0010195
:1018A00001606068B0F5800F04D12068016841F4E0
:1018B00000710160E0680F281AD82CE020684169A7
:1018C00089070BD5E16D09680162E06D001DE065D7
:1018D000B4F86200401EA4F8620009E0FFF676FB4F
:1018E000A0EB0900A84202D3681C01D005E025B195
:1018F000B4F862000028E1D183E0204600F7BEFF83
:10190000D4F8841084F8806041F48071C4F88410A5
:1019100084F881808DE007282CD86EE0206841692A
:1019200089071CD5B4F8621001290BD9E16B49B1C4
:10193000E16D09680162E06D001DE065B4F86200C8
:10194000801E09E0E06D0188ABF80010E06D801C9E
:10195000E065B4F86200401EA4F862000AE0FFF6F9
:1019600035FBA0EB0900A84202D3681C02D0C4E7F3
:10197000002DC2D0B4F862000028CFD141E0206829
:10198000416989072ED5B4F8621003290CD9E16B9F
:10199000402909D9E16D09680162E06D001DE0652B
:1019A000B4F86200001F1AE0B4F8621001290CD9E3
:1019B000E16B51B1E06D0188ABF80010E06D801C67
:1019C000E065B4F86200801E09E0E16D097880F8F6
:1019D0002010E06D401CE065B4F86200401EA4F8E1
:1019E00062000AE0FFF6F2FAA0EB0900A84202D377
:1019F000681C02D081E7002DB9D0B4F8620000283D
:101A0000BDD100224B4608212046009500F794FFE7
:101A100028B1D4F8840040F02000C4F884002046A7
:101A200000F72CFF84F88180D4F8840084F880606B
:101A300008B1012004E7019802E700002DE9F04118
:101A40000446006890460E468069C043C00635D4FF
:101A50000025202720688069C043800616D5701CA9
:101A6000F8D0FFF6B3FAA0EB0800B04201D8002E80
:101A7000F0D1606C84F8405040F02000606484F83D
:101A8000417084F842500120BDE8F08121681020A7
:101A9000C8612068C761204600F70FFE206808492A
:101AA00042680A404260606C40F00400606484F860
:101AB000417084F8425084F84050E4E70020E3E7A6
:101AC00000E800FE2DE9F843174604461548DAB24F
:101AD000DDE908981E4600900023204600F7FEFD31
:101AE00042464946204600F0A5F8B8B9012EFDB29D
:101AF00008D02068390A816242464946204600F0F3
:101B000099F858B920688562002240214B4620464A
:101B1000CDF8008000F03AF8002800D00120BDE8A0
:101B2000F8830000002000802DE9F84304461648A1
:101B300017461E46DAB20090C3022046DDE9089837
:101B400000F7CCFD42464946204600F073F8B8B98C
:101B5000012EFDB208D02068390A8162424649460A
:101B6000204600F067F858B920688562002280217D
:101B70004B462046CDF8008000F008F8002800D041
:101B80000120BDE8F8830000002000802DE9F0412D
:101B90001D4617460E460446DDF8188008E0681C0E
:101BA00006D0FFF613FAA0EB0800A8420BD855B1F7
:101BB0002068806936EA000013D00020B842EED0D9
:101BC0000020BDE8F081626C002084F840002021F4
:101BD00042F02002626484F8411084F8420001203F
:101BE000EFE70120EAE770B516460D4604460DE022
:101BF000324629462046FFF721FF08B1012070BD7B
:101C0000FFF6E4F9801BA84207D835B12068806947
:101C1000C0438006ECD4002070BD626C002084F8C4
:101C20004000202142F02002626484F8411084F8D0
:101C30004200E3E770B516460D4604460FE0324613
:101C400029462046FFF7FAFE08B1012070BD681C46
:101C500005D0FFF6BBF9801BA84207D835B1206834
:101C60008069C0438007EAD4002070BD626C002008
:101C700084F84000202142F02002626484F8411080
:101C800084F84200E1E700001249082805D2DFE8A5
:101C900000F01E1B1815120F0A0791ED020A70477B
:101CA0009FED0D0A01E09FED0D0A81ED020A7047DC
:101CB0009FED0B0AF9E79FED0B0AF6E79FED0A0A85
:101CC000F3E79FED0A0AF0E79FED090AEDE79FEDC4
:101CD000090AEAE7C83600240000F23900007A3A1F
:101CE0000000FA3A00007A3B0000FA3B00007A3C20
:101CF0000000FA3C00007A3D70B5584D0024752173
:101D0000204600F0E5FF285500222046762101F705
:101D1000BFF801222046762101F7BAF86420FEF7C9
:101D2000E7FC285D47287CD101222046762101F777
:101D3000AFF8022220467A2101F7AAF800222046B5
:101D4000762101F7A5F840222046162101F7A0F8D8
:101D50000A20FEF7CDFC6521204600F0B9FF0022E5
