:020000040800F2
:100000002807002081020008BF160008F11500082B
:10001000BD16000877040008371B00080000000028
:10002000000000000000000000000000C3160008EF
:100030000105000800000000C1160008C5160008F0
:100040009B0200089B0200089B0200089B0200081C
:100050009B0200089B0200089B0200089B0200080C
:100060009B0200089B0200089B0200089B020008FC
:100070009B0200089B0200089B0200089B020008EC
:100080009B0200089B0200089B0200089B020008DC
:100090009B0200089B0200089B0200089B020008CC
:1000A0009B0200089B0200089B0200089B020008BC
:1000B0009B0200089B0200089B0200089B020008AC
:1000C0009B0200089B0200089B0200089B0200089C
:1000D0009B0200089B0200089B0200089B0200088C
:1000E0009B0200089B0200089B0200089B0200087C
:1000F0009B0200089B0200089B020008790400088C
:100100009B0200089B0200089B0200089B0200085B
:100110009B0200089B0200089B0200089B0200084B
:100120009B0200089B0200089B0200089B0200083B
:100130009B0200080000000000000000000000001A
:100140000000000000000000000000009B0200080A
:100150009B0200089B0200089B0200089B0200080B
:100160009B0200089B0200089B0200089B020008FB
:100170009B0200089B020008000000000000000035
:100180009B0200089B0200089B0200089B020008DB
:100190009B0200089B020008000000009B02000870
:1001A0000000000000000000000000009B020008AA
:1001B0009B0200089B0200080000000000000000F5
:1001C000000000000000000000000000000000002F
:1001D0000000000000000000000000009B0200087A
:1001E00000F002F800F03CF80AA090E8000C82440D
:1001F0008344AAF10107DA4501D100F031F8AFF2EA
:10020000090EBAE80F0013F0010F18BFFB1A43F0F4
:1002100001031847381A0000581A0000103A24BF8A
:1002200078C878C1FAD8520724BF30C830C144BF5B
:1002300004680C607047000000230024002500269D
:10024000103A28BF78C1FBD8520728BF30C148BF39
:100250000B6070471FB501F0E7FC1FBD10B510BD66
:1002600000F0CFF81146FFF7F5FF01F077FC00F042
:10027000EDF803B4FFF7F2FF03BC00F0F5F800005F
:100280000948804709480047FEE7FEE7FEE7FEE72A
:10029000FEE7FEE7FEE7FEE7FEE7FEE70448054966
:1002A000054A064B7047000069170008E101000885
:1002B0002801002028070020280300202803002010
:1002C00053EA020C00F069802DE9F04B4FF0000674
:1002D000002B1FBFB3FA83F503FA05F424FA05F6E1
:1002E0005E4012BF1643B2FA82F502FA05F4C5F178
:1002F00020051EBF22FA05FC44EA0C04203556EA0C
:10030000044C4FEA144418BF641C4FF000084FF02F
:100310000009904271EB030C39D3002919BFB1FADF
:1003200081F701FA07F6B0FA80F700FA07F6C7F18D
:1003300020071EBF20FA07FC46EA0C062037B6FB52
:10034000F4FCA7EB0507103F07F01F0BCBF12006CD
:100350000CFA0BFB2CFA06F644BFB3460026202FFE
:10036000A4BF5E464FF0000B5BEA060C08BF4FF0DF
:10037000010B19EB0B09ABFB027C48EB0608C01B19
:1003800006FB02CC0BFB03CC71EB0C01C1E70B4667
:10039000024641464846BDE8F08B13B54FF00000D9
:1003A0004FF00001AFF30080BDE81C4070474FF0F4
:1003B000000200B5134694469646203922BFA0E8B5
:1003C0000C50A0E80C50B1F12001BFF4F7AF0907C1
:1003D00028BFA0E80C5048BF0CC05DF804EB8900B2
:1003E00028BF40F8042B08BF704748BF20F8022BF5
:1003F00011F0804F18BF00F8012B7047704770470D
:100400007047754600F02CF8AE4605006946534625
:1004100020F00700854618B020B5FFF73FFFBDE884
:1004200020404FF000064FF000074FF000084FF05B
:10043000000B21F00701AC46ACE8C009ACE8C009EC
:10044000ACE8C009ACE8C0098D46704710B5044659
:10045000AFF300802046BDE81040FFF70ABF000060
:1004600000487047C400002001491820ABBEFEE7D9
:10047000260002007047FEE7014800F04DB800007A
:100480006400002001681823CAB2103AB2FBF3F2EC
:10049000054B6FF30901032A9B5CC36500D9091D55
:1004A0008165084670470000321C000810B583695A
:1004B0004FF0C074826A0146002053B1B3F5005F6B
:1004C00015D072B1012A0CD0022A0AD0032A09D110
:1004D00004E01AB1012A06D0022A03D1C96AC9016F
:1004E00000D5012010BDC96AA142FAD010BD002A72
:1004F000F7D0012AF2D0022AF3D0032AF3D010BD9C
:1005000070470000024844218922C0E90012704768
:100510001000002072B6FEE72DE9F84304464FF0C4
:100520000009644B0820CDF800904FF41652A56DD9
:1005300094F85C101B682E68B3FBF2F700FA01F127
:1005400031420FD021680A6852070BD50A6822F0A1
:1005500004020A6094F85C108840A860606D40F066
:100560000100606594F85C104FF0010808FA01F092
:10057000304208D021684969090604D5A860606D39
:1005800040F00200606594F85C100420884030421E
:1005900008D021680968890704D5A860606D40F01B
:1005A0000400606594F85C1010208840304218D038
:1005B00021680968090714D5A86020680168490303
:1005C00004D50068000308D5A16C07E00168C905DF
:1005D00003D4016821F008010160216C09B12046B3
:1005E000884794F85C1020208840304231D0216840
:1005F0000968C9062DD5A86094F83500052820683B
:10060000016806D0490347D5006800031DD4616C1A
:100610001CE021F0160101602068416921F0800191
:100620004161206C08B9A06C20B12068016821F0FC
:100630000801016094F85C303F229A40AA6084F877
:10064000358084F83490216D1FE0E16B09B12046BC
:100650008847606D00282BD0606DC00714D005203E
:1006600084F835002068016821F0010101600098DC
:10067000401C0090B84203D820680068C007F6D13B
:1006800084F8358084F83490E16C002910D001B0F2
:100690002046BDE8F04308470168C905D5D4036882
:1006A00023F01003036084F8358084F83490CCE79D
:1006B000BDE8F8830C0000202DE9F047044600F067
:1006C0009FF906465CB10025022084F8350084F8C5
:1006D00034502068016821F0010101600DE0012023
:1006E000BDE8F08700F08CF9801B052805D9202192
:1006F0006165032084F83500F2E720680068C007D0
:10070000F0D1D4E90010D4E90232D4E9046C1843E2
:10071000D4F8188004F11C03894632430968104359
:10072000C8CB1D4A40EA0C0040EA0800114040EAEC
:10073000030040EA0600042F40EA010003D1D4E997
:100740000B1211430843C9F800002068666A40692B
:10075000042E20F0070046EA00060CD1D4E90A0175
:10076000064341B12046FFF7A1FE20B1402060655D
:1007700084F83550B3E7206846612046FFF782FED3
:1007800094F85C303F21012299408160656584F8CE
:1007900035200020A4E700003F8010E070B504463B
:1007A00000F02EF90546601C02D00448007804448D
:1007B00000F026F9401BA042FAD370BD00000020D3
:1007C0002DE9F84FDFF8F0B1012403254FF00F0AAF
:1007D00000220BF1040E00BF0B6804FA02F633404E
:1007E000B34278D10F7907F00307012F01D0022F10
:1007F0001AD187684FEA4209D1F80CC005FA09F806
:1008000027EA08070CFA09FC4CEA070CC0F808C0F4
:10081000476891F804C0B743CCF3001C0CFA02FC03
:100820004CEA070CC0F804C00E79F643B6070BD0AB
:10083000C6684FEA420C8F6805FA0CF826EA0806EB
:1008400007FA0CF73743C7600E7906F00306022E4D
:1008500012D1D6084FEA427800EB860600960F695F
:10086000D6F820904FEAD8660AFA06FCB74029EA83
:100870000C063743009E37620F7906684FEA420C38
:1008800007F0030705FA0CF807FA0CF726EA080642
:10089000374307604E6816F4403F1CD0474E376818
:1008A00047F480473760366822F00308970706F45C
:1008B00080460096424E3F0F4644B146D6F808683F
:1008C000DFF800810AFA07FC404526EA0C0603D14E
:1008D0004FF0000C33E068E0DFF8ECC0604502D177
:1008E0004FF0010C2BE0DFF8E4C0604502D14FF07F
:1008F000020C24E0DFF8D8C0604502D14FF0030CB1
:100900001DE0DFF8D0C0604502D14FF0040C16E0C6
:10091000DFF8C4C0604502D14FF0050C0FE0DFF8EE
:10092000BCC0604502D14FF0060C08E0DFF8B0C053
:10093000604502D14FF0070C01E04FF0080C0CFAB3
:1009400007FC4CEA060CC9F808C84F68DBF80060E1
:10095000FF0226EA030600D51E437746CBF8006067
:10096000D1F804C0DEF800605FEA8C2C26EA0306AA
:1009700000D51E43DFF840C03E60ACF1040C4F6868
:10098000DCF80060BF0326EA030600D51E430A4FC9
:10099000CCF80060083FD1F804C03E685FEACC3C68
:1009A00026EA030600D51E433E60521C102AFFF4BF
:1009B00013AFBDE8F88F0000083C01404438024006
:1009C00000300140000002400004024000080240E4
:1009D000000C0240001002400014024000180240C7
:1009E000001C0240426921EA02030A4043EA024134
:1009F000816170470AB1816170470904FBE700001B
:100A000001488068704700000000002002488168AB
:100A1000027811448160704700000020032010B567
:100A200000F06EF80F2000F005F800F023F8002029
:100A300010BD000070B50D4D04464FF47A700C4A9D
:100A400029781268B0FBF1F0B2FBF0F000F02CFB5B
:100A500048B9102C07D200222146501E00F030F871
:100A600000206C6070BD012070BD000000000020FF
:100A70000C0000200A4808B5016841F0805101606F
:100A8000006800F0805000900548001D016841F4A6
:100A900080410160006800F48040009008BD0000C3
:100AA00040380240002809DB410900F01F0289009C
:100AB000012001F1E0219040C1F8000170470000E1
:100AC0000E4BF0B41B680D46C3F30223C3F10706B7
:100AD000042E00D90426191D072901D2002300E0A5
:100AE000DB1E012404FA06F19C40491E2940641EC5
:100AF000994014402143F0BC01F01EB80CED00E019
:100B0000064900F0070210B54FF6FF040868044BD1
:100B1000204040EA02201843086010BD0CED00E0C0
:100B20000000FA051848F8B5016841F080510160ED
:100B30000068164C00F080500090206840F480302F
:100B40002060FFF75DFF4FF47A76054605E000BFB1
:100B5000FFF756FF401BB0420FD86068C003F7D5BF
:100B6000206840F400302060FFF74AFF054606E0A9
:100B7000FFF746FF401BB04201D90320F8BD606873
:100B80008003F5D50020F8BD4038024000700040D9
:100B90002DE9F04705000F4663D0444E306800F061
:100BA0000F00B84209D2306820F00F00384330609F
:100BB000306800F00F00B84253D128683C4C8107E0
:100BC00012D5400703D5206840F4E0502060287813
:100BD000000703D5206840F460402060A9682068C1
:100BE00020F0F000084320602878C0072AD0304960
:100BF00068680839012810D00968022810D08907D0
:100C000000292EDA216821F0030101432160FFF75A
:100C1000F7FE804641F288390DE009688903EFE765
:100C20008901EDE7FFF7ECFEA0EB0801494502D989
:100C30000320BDE8F0876868216801F00C01B1EB82
:100C4000800FEFD1306800F00F00B8420BD9306848
:100C500020F00F0038433060306800F00F00B842D9
:100C600001D00120E5E72878400705D5E96820682C
:100C700020F4E050084320602878000706D5286952
:100C8000216821F4604141EAC000206000F018F8BA
:100C90002168084AC1F30311515CC8400649086045
:100CA00006480068FFF7C6FE0020C2E7003C02408D
:100CB000083802403A1C00080C0000200400002004
:100CC000154910B51548096811F00C0213D01449E4
:100CD000042A0FD0082A0ED10F4C241F2268236843
:100CE00002F03F025B0207D52068C0F38810A0FB2A
:100CF000010106E0084610BD2168C1F38811A1FB7F
:100D000000010023FFF7DCFA2168C1F30141491C0F
:100D10004900B0FBF1F010BD083802400024F40097
:100D200040787D012DE9F84F04004FF000076ED0A8
:100D30002078DFF868A3AAF10408C007A8F1040529
:100D40004CD0DAF800105046C1F38101012908D0D7
:100D50000068C0F3810002280AD1D8F800004002E0
:100D600006D52868800339D560680028DFD035E0D3
:100D70006068B0F5803F0BD010B1B0F5A02F11D056
:100D8000286820F480302860286820F4802002E061
:100D9000286840F480302860606890B1FFF730FE2A
:100DA00006460AE0286840F480202860F0E700BF8B
:100DB000FFF726FE801B642872D828688003F7D5C9
:100DC0000CE0FFF71DFE064605E000BFFFF718FE2A
:100DD000801B6428F0D828688003F7D42078800727
:100DE00042D5DAF80010504611F00C0F08D0006818
:100DF000C0F3810002280BD1D8F80000400207D4CC
:100E00002868800718D5E068012800D114E041E186
:100E1000E0680028286817D040F001002860FFF73C
:100E2000EFFD064605E000BFFFF7EAFD801B022844
:100E3000C2D828688007F7D52069296821F0F80111
:100E400041EAC00028600FE020F001002860FFF7B1
:100E5000D7FD064605E000BFFFF7D2FD801B022844
:100E60001ED828688007F7D42078000729D58B483A
:100E700061696C3000298146016812D041F001019E
:100E80000160FFF7BDFD064605E000BFFFF7B8FDB6
:100E9000801B022804D8D9F800008007F6D510E09E
:100EA00089E021F001010160FFF7AAFD064604E098
:100EB000FFF7A6FD801B02287DD8D9F80000800727
:100EC000F6D4207840076BD5DFF8D09109F13809C6
:100ED000D9F80000C0000BD4D9F8001041F08051BF
:100EE000C9F80010D9F80000012700F080500090E8
:100EF0006B480168C90512D40168834641F48071CA
:100F00000160FFF77DFD064605E000BFFFF778FDB5
:100F1000801B64284FD8DBF80000C005F6D55F4E73
:100F2000A068683601280AD008B1052811D03068B9
:100F300020F001003060306820F0040002E03068EA
:100F400040F001003060A068A0B1FFF759FD834672
:100F50000CE0306840F004003060F0E7FFF750FD2F
:100F6000A0EB0B0141F28830814266D830688007DF
:100F7000F4D50EE0FFF744FD834607E0FFF740FDA0
:100F8000A0EB0B0141F28830814256D830688007CF
:100F9000F4D42FB1D9F8001021F08051C9F8001015
:100FA000A069C8B3DAF80010C1F3810102294BD05F
:100FB0000228286800E040E020F08070286003D01C
:100FC000FFF71EFD04463BE0FFF71AFD064604E06E
:100FD000FFF716FD801B02282FD828688001F7D460
:100FE000D4E90962D4E907012E4B570894F82C2064
:100FF000084303EB074343EA8611084340EA0260D3
:1010000040F00050C8F80000286840F08070286068
:10101000FFF7F6FC044606E03EE000BFFFF7F0FCF9
:10102000001B022809D828688001F7D534E000BFEA
:10103000FFF7E6FC001B022802D90320BDE8F88F69
:1010400028688001F4D427E00128D8F8000021D0D6
:10105000E16900F480028A421CD1216A00F03F025B
:101060008A4217D1626A47F6C0710140B1EB821F14
:1010700010D1A16A4FF0FF3200F4403302EB51016E
:10108000B3EB014F06D194F82C1000F07060B0EB78
:10109000016F01D00120D1E70020CFE708380240DE
:1010A000007000400000FFFF401EB0F1807F10B5CF
:1010B00001D3012010BD4FF0E02460610F216017C3
:1010C00000F03AFD0020A0610721216110BD000061
:1010D000F0B590F83C20012A3BD01F4E012480F847
:1010E0003C40022280F83D2002681C4D5368B24209
:1010F000D2F808C001D0AA4203D14F6823F470038C
:101100003B430F6823F070031F4357600268B242ED
:1011100013D0B2F1804F10D0114B9A420DD0114B29
:101120009A420AD0104B9A4207D0AA4205D00F4BE0
:101130009A4202D00E4B9A4204D189682CF0800367
:1011400019439160002180F83D4080F83C1008462A
:10115000F0BD0220F0BD000000000140000401408D
:101160000004004000080040000C00400040014026
:101170000018004010B5040003D094F83D0010B1F1
:1011800007E0012010BD002084F83C00204600F05C
:1011900023F8022084F83D002068211D00F0ECFABD
:1011A000012084F8480084F83E0084F83F0084F869
:1011B000400084F8410084F8420084F8430084F839
:1011C000440084F8450084F8460084F8470084F819
:1011D0003D00002010BD0000F8B514490546006828
:1011E000884222D11248016841F002010160006882
:1011F0000021104C4FF0206200F0020000900E48D9
:101200002060C4E90121031504F10C02C614204634
:10121000DF0082E8CA00E16121626162FFF74CFAF7
:1012200008B1FFF777F9EC62A563F8BD0004004050
:101230004038024064000020B860024070B50446A7
:1012400090F83C000025012817D0334B012684F884
:101250003C60022084F83D0022689068184020F429
:101260007F4090600868502838D00DDC20284FD08F
:1012700005DC90B3102811D14AE0022070BD30285F
:1012800046D040280AD13BE060282FD070280DD0EE
:10129000B0F5805F03D0B0F5005F12D0012584F86F
:1012A0003D60002084F83C00284670BD4A682068F4
:1012B000D1E9021300F0D9FA2068816841F0770182
:1012C00009E04A682068D1E9021300F0CEFA2068EC
:1012D000816841F480418160E1E719E0CA684968AA
:1012E000206800F005FC2068502106E0CA684968C3
:1012F000206800F00EFC2068602100F0BFFACEE705
:10130000CA684968206800F0F3FB20684021F4E7D0
:10131000226801461046F0E788FFFEFF10B586B050
:10132000044614216846FFF742F80E4920688842B7
:1013300015D10D48016841F00401016000680021E9
:101340004FF4707200F00400059002200092CDE985
:101350000101CDE9031005486946FFF731FA06B0EF
:1013600010BD000000040040303802400008024078
:1013700070B5044690F83C0000260D4601280BD0BD
:10138000012084F83C000C2A4AD007DC82B1042AF0
:1013900020D0082A06D131E0022070BD102A53D097
:1013A000142A63D00126002084F83C00304670BD2A
:1013B000206800F06BFA2068816941F008018161C2
:1013C0002068816921F00401816120682A698169AE
:1013D000114311E0206800F091FA2068816941F41E
:1013E000006181612068816921F4806181612068E8
:1013F0002969826942EA01218161D4E7206800F00D
:10140000B9FA2068C16941F00801C1612068C16969
:1014100021F00401C16120682A69C169114311E00A
:10142000206800F0E3FA2068C16941F40061C161FD
:101430002068C16921F48061C16120682969C2699D
:1014400042EA0121C161AEE7206800F0FDFA2068A0
:10145000416D41F0080141652068416D21F00401B2
:10146000416520682A69416D114311E0206800F050
:1014700015FB2068416D41F4006141652068416DB4
:1014800021F48061416520682969426D42EA0121A9
:10149000416588E710B5040003D094F83D0010B111
:1014A00007E0012010BD002084F83C00204600F039
:1014B00022F8022084F83D002068211D00F05CF92C
:1014C000012084F8480084F83E0084F83F0084F846
:1014D000400084F8410084F8420084F8430084F816
:1014E000440084F8450084F8460084F8470084F8F6
:1014F0003D00002010BD704710B504464FF00202B9
:1015000069B1042912D0082917D00C291CD0102940
:1015100021D094F84300012824D0012010BD94F874
:101520003E000128F9D184F83E201DE094F83F00E8
:101530000128F2D184F83F2016E094F840000128F9
:10154000EBD184F840200FE094F841000128E4D169
:1015500084F8412008E094F842000128DDD184F8A5
:10156000422001E084F843200122206800F070F955
:1015700017492068174A884201D0904203D1436C32
:1015800043F4004343642068884213D0B0F1804F95
:1015900010D0114988420DD0104988420AD0104914
:1015A000884207D0904205D00E49884202D00E49A9
:1015B000884207D181680D4A1140062906D0B1F54D
:1015C000803F03D0016841F001010160002010BD9F
:1015D00000000140000401400004004000080040F9
:1015E000000C0040004001400018004007000100CE
:1015F000FEE7000010B58EB000241C21009407A85F
:10160000019402940394049405940694FEF7CFFE8B
:101610002948B821274AC0E90024C0E902410461F1
:101620008461FFF7A7FD08B172B6FEE74FF4805062
:10163000009021486946FFF701FE08B172B6FEE747
:101640001D48FFF727FF08B172B6FEE71A4804A944
:1016500004940694FFF73CFD08B172B6FEE76020E3
:10166000CDE907041448002207A909940B94FFF759
:101670007FFE08B172B6FEE70F48042207A9FFF704
:1016800077FE08B172B6FEE70B48082207A9FFF7FC
:101690006FFE08B172B6FEE707480C2207A9FFF7F4
:1016A00067FE08B172B6FEE70348FFF737FE0EB0DB
:1016B00010BD00000004004018000020FEE7FEE717
:1016C00070477047FFF7A2B930B593B03021684634
:1016D000FEF76DFE14210CA8FEF769FE2048016894
:1016E00041F080510160006800F0805011901D4869
:1016F000016841F440410160006800250DF1200CB3
:101700000224009400F4404011900822D823CDE92F
:10171000064510218CE81C0001200B94CDE9030143
:101720006846FFF7FFFA08B172B6FEE7FFF7FAF96D
:1017300008B172B6FEE74FF480524FF4A0510F206B
:10174000CDE90F120CAA072182E831000CA8FFF79F
:101750001FFA002801D072B6FEE713B030BD0000BA
:1017600040380240007000400248016841F47001B6
:101770000160704788ED00E0F0B52A4B4FF0804ED5
:10178000294D02689842294E294F2A4C09D07045AC
:1017900007D0A84205D0B04203D0B84201D0A04241
:1017A00005D1D1F804C022F070024CEA020298423E
:1017B0001BD0704519D0A84217D0B04215D0B842FE
:1017C00013D0A04211D01C4DA8420ED01B4DA842F0
:1017D0000BD01B4DA84208D01A4DA84205D01A4D77
:1017E000A84202D0194DA84203D1CD6822F440721C
:1017F0002A434D6922F080022A43026098428A6897
:10180000C2620A68826201D0A04201D10969016303
:10181000012141610169C90703D0016921F001017A
:101820000161F0BD000001400004004000080040DC
:10183000000C004000040140004001400044014011
:101840000048014000180040001C004000200040FB
:1018500010B5046A012301F01F018B409C43046210
:101860008A40016A1143016210BD42EA0322836883
:101870000A4323F47F410A4382607047826822F062
:1018800070020A4342F0070181607047F0B5DFF84B
:1018900060E0184E184F026A036AB04222F0020C50
:1018A00023F001030362426885698B680C6805EACE
:1018B0000E0525F0030543EA0C0344EA050401D0B4
:1018C000B84205D1CD6823F008031D4325F0040379
:1018D000B04201D0B84205D122F44076D1E9055298
:1018E00035432A4342608461496841630362F0BD25
:1018F0008FFFFEFF0000014000040140F0B5DFF85B
:1019000068E01A4C1A4D026A036AA04222F02006CF
:1019100023F01003036242688369D1F808C00F689E
:1019200003EA0E0323F4407E46EA0C134EEA072630
:1019300001D0A84206D1CF6823F0800343EA071301
:1019400023F04003A04201D0A84207D1D1E90545C8
:1019500022F4406242EA840242EA850242608661E1
:10196000496881630362F0BDFF8FFFFE0000014004
:1019700000040140F0B5DFF868E01A4D1A4E026A23
:10198000036AA84222F4007723F480730362436859
:10199000C269D1F808C002EA0E020C6822F0030EF8
:1019A00047EA0C2244EA0E0401D0B04206D1CF68C7
:1019B00022F4006242EA072222F48062A84201D0A7
:1019C000B04207D1D1E9055623F4405343EA051349
:1019D00043EA06134360C4614968C1630262F0BD13
:1019E0008FFFFEFF0000014000040140F0B5046AD3
:1019F000026A22F4805202624268C36924F40054ED
:101A0000DFF838C08E680D6803EA0C030C4F23F42E
:101A1000407344EA0634B84243EA052302D0094D34
:101A2000A84204D14D6922F4804242EA8512426004
:101A3000C361496801640462F0BD0000FF8FFFFECE
:101A40000000014000040140F0B5114F114B026A43
:101A5000046A984222F4003524F480330362426819
:101A6000436D0E890C6803EA070344EA030445EA60
:101A7000064302D0084DA84204D14D6922F48032B9
:101A800042EA052242604465496881650362F0BD0F
:101A90008FFFFEFF0000014000040140F0B5114F30
:101AA000114B026A046A984224F48013036222F400
:101AB00000144268436D0D890E6803EA070344EA87
:101AC000055443EA062302D0084DA84204D14D69CB
:101AD00022F4802242EA8522426043654968C1655A
:101AE0000462F0BDFF8FFFFE0000014000040140D2
:101AF00010B5036A046A23F00A0324F001040462A7
:101B000084690B4324F0F00141EA02118161036210
:101B100010BD10B5036A046A23F0A00324F010047A
:101B20000462846943EA011124F4704343EA0232F7
:101B30008261016210BDFEE7090700284FEA1161CA
:101B400004DB00F1E02080F80014704700F00F0083
:101B500000F1E02080F8141D7047000086B0FEF709
:101B60005DFFFFF7B1FD14216846FEF720FC294C0C
:101B7000206840F00400206020684FF44046264D65
:101B8000002200F00400314605902846FEF732FF9F
:101B9000002000960121CDE90110694603902846F6
:101BA000FEF70EFE206840F400102060206800223E
:101BB000114600F4001000902F20FEF781FF2F2027
:101BC000FEF770FFFFF716FDFEF79CFC134E4FF477
:101BD0008048134C4FF40049124F4FF4967A414617
:101BE0002846FEF7FFFE49462846FEF7FBFE504614
:101BF000FEF7D4FD21683068C86320683968016445
:101C000008210748FFF778FC05480C21FFF774FC12
:101C1000E5E70000303802400008024010000020D4
:101C200018000020140000204FF04070E1EE100A70
:101C30007047000610160006101600000000000095
:101C40000000010203040607080900006C1C0008DC
:101C500000000020180000001C020008841C00087E
:101C600018000020100700003802000801000000E2
:101C700010000000000000000024F400000000003C
:041C80000000000060
:04000005080001E10D
:00000001FF
