:020000040800F2
:10000000101E002029020008FB1D0008B918000876
:10001000F91D0008590600084322000800000000EE
:100020000000000000000000000000006D1F00083C
:100030005B06000800000000FD1D0008CD1F000841
:10004000430200084302000843020008430200087C
:10005000430200084302000843020008430200086C
:10006000430200084302000843020008430200085C
:10007000430200084302000843020008430200084C
:10008000430200084302000843020008430200083C
:10009000430200084302000843020008430200082C
:1000A000430200084302000843020008430200081C
:1000B000430200084302000843020008430200080C
:1000C00043020008430200084302000843020008FC
:1000D00043020008430200084302000843020008EC
:1000E00043020008430200084302000843020008DC
:1000F00043020008430200084302000843020008CC
:1001000043020008430200084302000843020008BB
:1001100043020008430200084302000843020008AB
:10012000430200084302000843020008430200089B
:100130004302000800000000000000004302000825
:10014000430200084302000843020008430200087B
:100150004302000843020008430200081522000879
:10016000430200084302000843020008430200085B
:1001700043020008430200080000000000000000E5
:10018000430200084302000800F002F800F03CF8C7
:100190000AA090E8000C82448344AAF10107DA45E2
:1001A00001D100F031F8AFF2090EBAE80F0013F0F8
:1001B000010F18BFFB1A43F001031847E0270000A6
:1001C00000280000103A24BF78C878C1FAD8520736
:1001D00024BF30C830C144BF04680C6070470000C1
:1001E0000023002400250026103A28BF78C1FBD840
:1001F000520728BF30C148BF0B6070471FB502F0DF
:10020000BBFB1FBD10B510BD00F0FDF81146FFF798
:10021000F5FF02F05DF900F01BF903B4FFF7F2FF00
:1002200003BC02F01FF80000094880470948004756
:10023000FEE7FEE7FEE7FEE7FEE7FEE7FEE7FEE796
:10024000FEE7FEE704480549054A064B70470000F3
:10025000652000088901000810180020101E0020E9
:10026000101A0020101A0020704753EA020C00F008
:1002700069802DE9F04B4FF00006002B1FBFB3FA49
:1002800083F503FA05F424FA05F65E4012BF16431F
:10029000B2FA82F502FA05F4C5F120051EBF22FA72
:1002A00005FC44EA0C04203556EA044C4FEA144499
:1002B00018BF641C4FF000084FF00009904271EB2A
:1002C000030C39D3002919BFB1FA81F701FA07F6F7
:1002D000B0FA80F700FA07F6C7F120071EBF20FA30
:1002E00007FC46EA0C062037B6FBF4FCA7EB050733
:1002F000103F07F01F0BCBF120060CFA0BFB2CFA7A
:1003000006F644BFB3460026202FA4BF5E464FF03A
:10031000000B5BEA060C08BF4FF0010B19EB0B0951
:10032000ABFB027C48EB0608C01B06FB02CC0BFBB8
:1003300003CC71EB0C01C1E70B460246414648462F
:10034000BDE8F08B13B54FF000004FF00001AFF3A4
:100350000080BDE81C40704740EA010310B59B07D0
:100360000FD1042A0DD310C808C9121F9C42F8D01F
:1003700020BA19BA884201D9012010BD4FF0FF30D0
:1003800010BD1AB1D30703D0521C07E0002010BDE6
:1003900010F8013B11F8014B1B1B07D110F8013B72
:1003A00011F8014B1B1B01D1921EF1D1184610BD53
:1003B0004FF0000200B5134694469646203922BFFE
:1003C000A0E80C50A0E80C50B1F12001BFF4F7AF49
:1003D000090728BFA0E80C5048BF0CC05DF804EB2B
:1003E000890028BF40F8042B08BF704748BF20F899
:1003F000022B11F0804F18BF00F8012B7047704797
:10040000704770477047754600F02CF8AE460500FF
:100410006946534620F00700854618B020B5FFF71F
:1004200011FFBDE820404FF000064FF000074FF0ED
:1004300000084FF0000B21F00701AC46ACE8C00902
:10044000ACE8C009ACE8C009ACE8C0098D4670470B
:1004500010B50446AFF300802046BDE81040FFF71A
:10046000DCBE000000487047B0170020464910B5B8
:100470004A6822F440324A604A6843681A434A6034
:1004800001684A6822F480724A6001684A68036918
:1004900042EA03224A6001684A6822F040724A60D8
:1004A00001684A6883681A434A6001688A6822F4CE
:1004B00000628A6001688A68C3681A438A60816A38
:1004C0006FF07062D14201688A6822F070628A60BF
:1004D00001688A680CD0836A1A438A6001688A6856
:1004E00022F040528A6001688A68C36A1A4301E0B8
:1004F00022F040528A6001688A6822F002028A6013
:1005000001688A68037E42EA43028A6090F82010FC
:10051000002901684A680FD042F400624A6001680D
:100520004A6822F460424A6001684A68174C436A8C
:1005300004EB43331A4301E022F400624A6001688D
:10054000CA6A22F47002CA620168CA6A838B104CBC
:1005500004EB03531A43CA6201688A6822F40072EA
:100560008A6001688A6890F8303042EA43228A60E3
:1005700001688A6822F480628A6001688A6840693A
:1005800042EA8020886010BD0023014000E0FFFFA8
:100590000000F0FFF0B587B014216846FFF708FFB0
:1005A00029480021026842F004020260026802F059
:1005B00004020592026842F080020260026802F0C2
:1005C00080020592026842F001020260026802F0B5
:1005D00001020592026842F002020260026802F023
:1005E00002020592026842F00802026000680125DA
:1005F00000F0080005900320144ECDE9021001958B
:100600000024A6F1800700BF36F81400009057F8C8
:100610002400694600F058F9641CE4B2202CF3D39E
:100620004FF4806000906946094800F04DF9094C8C
:1006300069462046009500F047F900220121204636
:1006400000F047FA07B0F0BD3038024094000020B7
:100650000000024000080240FEE7704772B6FEE765
:100660000F4910B509680E4A121D12680C4B083369
:100670001B680C0E04700C0C44700C0A8470C17062
:10068000110E0171110C4171110A8171C271190EA3
:100690000172190C4172190A8172C3720C2010BDCB
:1006A000107AFF1F78B50024009490F83C20012AAE
:1006B00019D0012280F83C200A6807230568092A1E
:1006C00013D9EE680A3A02EB420293409E43EE6071
:1006D0000B788A680A3B03EB43039A400368DD68A2
:1006E0002A43DA6010E0022078BD2E6902EB420254
:1006F00093409E432E610B788A6803EB43039A4034
:1007000003681D692A431A614A681F23072A13D206
:1007100005686E6B521E02EB820293409E436E632D
:100720000B790A885B1E92B203EB83039A4003683D
:100730005D6B2A435A6327E005680D2A12D22E6B9F
:10074000D21F02EB820293409E432E630B790A88EC
:10075000DB1F92B203EB83039A4003681D6B2A43AD
:100760001A6311E0EE6A0D3A02EB820293409E4357
:10077000EE620B790A880D3B92B203EB83039A4039
:100780000368DD6A2A43DA62164B0568144A9D4203
:1007900006D10D68122D03D1556845F480055560CA
:1007A00005689D4218D10B68102B01D0112B13D175
:1007B000536843F400035360096810290CD10A49B7
:1007C0000A4A0968B1FBF2F101EB8101490000E03E
:1007D000491E00910029FBD180F83C40002078BDE3
:1007E00000230140002001400C01002040420F0086
:1007F00070B504004FF0000503D0206C002610B146
:1008000007E0012070BD204600F01CF8666484F803
:100810003C60206CC00610D4206C20F4885040F05E
:10082000020020642046FFF721FE6664206C20F061
:10083000020040F00100206400E0012584F83C60E3
:10084000284670BD10B586B0044614216846FFF7EF
:10085000AFFD1149206888421CD110480021026870
:1008600042F480720260006800F4807005900B48CA
:100870001438026842F004020260006800F00400CC
:100880000590022000900320CDE90101694604484B
:1008900000F01AF806B010BD0020014044380240B4
:1008A0000008024070B5044600F018F90546601CC7
:1008B00002D004480078044400F010F9401BA04224
:1008C000FAD370BD000100202DE9F84FDFF8BCA17C
:1008D0000022012503264FF00F090AF1040BAAF1AB
:1008E000040E00BF0B6805FA02F42340A34270D146
:1008F0000F7907F00307012F01D0022F16D1876867
:100900004FEA420806FA08FC27EA0C07D1F80CC0A7
:100910000CFA08FC4CEA070CC0F808C04768A7436B
:100920000C79C4F3001494403C4344600C79E443D4
:10093000A4070AD0C4684FEA420C06FA0CF7BC437D
:100940008F6807FA0CF72743C7600C7904F003049B
:10095000022C12D1D40800EB840CDCF8204057079D
:10096000FF0E09FA07F824EA0804D1F8108008FA03
:1009700007F848EA0408CCF8208004684FEA420CE3
:1009800006FA0CF7BC430F7907F0030707FA0CF7D8
:10099000274307604C6814F4403F70D03C4C2768F4
:1009A00047F480472760246822F0030704F480445A
:1009B0000094384C07EB040CDCF8084897074FEA22
:1009C000177809FA08F7BC43334FB84202D1002721
:1009D00024E054E0314FB84201D101271EE0304FEE
:1009E000B84201D1022719E02E4FB84201D10327A6
:1009F00014E02D4FB84201D104270FE02B4FB8422D
:100A000001D105270AE02A4FB84201D1062705E0A7
:100A1000284FB84201D1072700E0082707FA08F756
:100A20002743CCF80878DAF800405746D1F804C0DC
:100A30009C435FEACC2C00D51C433C60DBF80040B3
:100A40005F46D1F804C09C435FEA8C2C00D51C4360
:100A50003C60DEF800407746D1F804C09C435FEA72
:100A60008C3C00D51C433C60084F083F3C68D1F8E3
:100A700004C09C435FEACC3C00D51C433C60521C44
:100A8000102AFFF42FAFBDE8F88F0000083C0140AA
:100A9000443802400030014000000240000402409F
:100AA00000080240000C0240001002400014024006
:100AB00000180240001C02400069084000D00120DC
:100AC0007047426921EA02030A4043EA0241816118
:100AD00070470AB1816170470904FBE701488068EB
:100AE000704700000001002002488168027811442C
:100AF00081607047000100200B4810B5016841F487
:100B000000710160016841F480610160016841F495
:100B100080710160032000F06FF80F2000F006F8EC
:100B200000F024F8002010BD003C024070B50D4DCF
:100B300004464FF47A712878B1FBF0F00A4909684D
:100B4000B1FBF0F000F031FE48B9102C07D20022C2
:100B50002146501E00F030F800206C6070BD01206E
:100B600070BD0000000100200C0100200A4808B5FB
:100B7000016841F480410160006800F48040009009
:100B80000548001F016841F080510160006800F0D5
:100B90008050009008BD000044380240002809DB66
:100BA00000F01F02012191404009800000F1E02087
:100BB000C0F8001170470000F0B40E4B1B680C46E3
:100BC000C3F30223C3F10705042D00D90425191D21
:100BD000072901D2002300E0DB1E012606FA05F1F9
:100BE000491E214099409E40761E16403143F0BC7C
:100BF00001F028BB0CED00E0064900F00702086890
:100C00004FF6FF03184040EA0220034A10430860F1
:100C1000704700000CED00E00000FA052DE9F047F8
:100C20000E46050065D0DFF81481D8F80000F7B251
:100C300000F00700B04207D288F80070D8F8000032
:100C400000F00700B04254D128683D4C810712D50E
:100C5000400703D5206840F4E05020602878000762
:100C600003D5206840F4604020602068A96820F027
:100C7000F000084320602878C0072DD0304968680C
:100C80000839012812D0022813D0032811D009688E
:100C9000890700292DDA216821F003010143216031
:100CA000FFF71CFF814641F2883A0EE0096889038C
:100CB000EFE709688901ECE7FFF710FFA0EB0901F6
:100CC000514502D90320BDE8F0872068696800F02B
:100CD0000C00B0EB810FEFD1D8F80010404601F0C6
:100CE0000701B14207D90770006800F00700B04261
:100CF00001D00120E7E72878400705D52068E9689A
:100D000020F4E050084320602878000706D52068CA
:100D1000296920F4604040EAC100206000F038F802
:100D20002168084AC1F30311515CC84006490860B4
:100D300006480068FFF7FAFE0020C4E7003C0240C6
:100D400008380240822900080C010020040100201C
:100D50000448054900680968044AC1F38221515CCE
:100D6000C84070470C010020083802409229000852
:100D70000448054900680968044AC1F34231515CDE
:100D8000C84070470C010020083802409229000832
:100D9000154810B5006810F00C02144813D041102B
:100DA000042A0FD0082A0ED10F4C241F2268236872
:100DB00002F03F025B0207D52068C0F38810A0FB59
:100DC000010106E0084610BD2168C1F38811A1FBAE
:100DD00000010023FFF749FA2168C1F30141491CD2
:100DE0004900B0FBF1F010BD083802400024F400C7
:100DF0002DE9F84F04006ED02078DFF84C93C0073F
:100E0000A9F104054AD009F104000168C1F3810188
:100E1000012908D00068C0F3810002280AD1D9F85E
:100E20000000400206D52868800337D56068002896
:100E3000E1D033E06068B0F5803F10D0B0F5A02F6E
:100E4000286810D020F480302860286820F48020A2
:100E500028606068A8B1FFF741FE06460DE02868EB
:100E600040F48030F4E740F480202860F7E700BFCA
:100E7000FFF734FE801B642873D828688003F7D5F9
:100E80000CE0FFF72BFE064605E000BFFFF726FE4D
:100E9000801B6428F0D828688003F7D42078DFF816
:100EA000AC8280074FF0000A3ED5A748001D0168BC
:100EB00011F00C0F08D00068C0F3810002280BD19C
:100EC000D9F80000400207D42868800716D5E068EA
:100ED000012800D112E033E1E068B8B10120C8F880
:100EE0000000FFF7FBFD064605E000BFFFF7F6FD3B
:100EF000801B0228C0D828688007F7D52868216998
:100F000020F0F80040EAC10028600DE0C8F800A019
:100F1000FFF7E4FD064604E0FFF7E0FD801B022832
:100F20001FD828688007F7D42078000722D5864F7D
:100F300087486169703771B101210160FFF7CEFD0B
:100F4000064604E0FFF7CAFD801B022809D838686E
:100F50008007F7D50EE0C0F800A0FFF7BFFD0646FA
:100F600005E082E0FFF7BAFD801B02287DD83868D3
:100F70008007F7D42078400768D5DFF8CCB1002788
:100F80000BF13C0BDBF80000C0000BD4DBF80010C9
:100F900041F08051CBF80010DBF80000012700F091
:100FA000805000906B4E3068C00510D4306840F41B
:100FB00080703060FFF792FD009005E0FFF78EFD36
:100FC0000099401A022850D83068C005F6D55E4E08
:100FD000A0686C3601280FD00528306810D020F0AA
:100FE00001003060306820F004003060A068B8B1C3
:100FF000FFF774FD00900FE0306840F00100F4E767
:1010000040F004003060F7E7FFF768FD0099411AEF
:1010100041F28830814266D830688007F4D50EE00E
:10102000FFF75CFD009007E0FFF758FD0099411ABB
:1010300041F28830814256D830688007F4D42FB10D
:10104000DBF8001021F08051CBF80010A069C8B384
:101050003D49091D0968C1F3810102294AD00228CE
:10106000504607D0C8F8600000E03CE0FFF736FDCE
:1010700004463BE04746C8F86000FFF72FFD0646F0
:1010800005E000BFFFF72AFD801B02282BD8286847
:101090008001F7D4D4E907010843A16A2E4A490820
:1010A00002EB0141626A41EA8211084394F82C1074
:1010B00040EA0161C9F8001001203866FFF70EFD13
:1010C000044606E03EE000BFFFF708FD001B0228D3
:1010D00009D828688001F7D534E000BFFFF7FEFC8F
:1010E000001B022802D90320BDE8F88F2868800180
:1010F000F4D427E00128F7D0D9F80000E26900F421
:10110000800191421CD1226A00F03F01914217D127
:1011100047F6C071626A0140B1EB821F10D1A26A2A
:101120004FF0FF3300F4403103EB5202B1EB024FBA
:1011300006D194F82C1000F07060B0EB016F01D074
:101140000120D1E70020CFE70438024000004742E9
:10115000800E4742007000400000FFFF70B50400A1
:1011600009D0606A002540B125616561A56294F8E7
:10117000510040B10CE0012070BD6068B0F5827F85
:10118000F4D0E561F2E784F85050204600F044F8CE
:10119000022084F851002068016821F040010160BC
:1011A000A088218900F4827001F404410843A189D8
:1011B00001F400610843217C01F002010843217D14
:1011C00001F001010843218B01F400710843217FE4
:1011D00001F03801084394F8201001F08001084321
:1011E000218D01F40051084321680860A0690421A1
:1011F00001EA104094F8241001F01001084321681E
:1012000048602068C16921F40061C1616565012001
:1012100084F85100002070BDF0B587B00446142159
:101220006846FFF7C5F8314A256800213048022397
:101230000324052695421AD12D4A1432156845F427
:1012400080551560126802F480520592026842F0DF
:1012500001020260006802AA00F00100059082E825
:101260005200E020CDE90003694622481CE0204AF4
:10127000214F1032BD421BD1156845F480451560E1
:10128000126802F480420592026842F00202026093
:10129000006802AD00F00200059085E85200B80039
:1012A000CDE9000369461548FFF70EFB07B0F0BD16
:1012B000134EB542FAD1156845F400451560126821
:1012C00002F400420592026842F0040202600068E3
:1012D000CDE9021400F0040005904FF4E050CDE990
:1012E00000030620049069460648DDE7003001400F
:1012F0003038024000000240003800400004024044
:10130000003C0040000802402DE9F84F04464068C8
:101310000025984616460F464FF0040BB0F5827F25
:1013200001D1A06888B194F85000012818D001209C
:1013300084F85000FFF7D2FB814694F851004FF03B
:10134000000A01280ED0022582E084F851B013462D
:101350000A462046CDF8008000F036F9BDE8F88F47
:101360000220FBE7002F72D0002E70D084F851B01D
:10137000C4F854A0A763A687E687C4F830A0A4F8F1
:1013800034A0A4F836A0C4F840A0C4F844A0A068D3
:10139000B0F5004F09D12068016821F040010160DB
:1013A0002068016821F480410160206801684906D5
:1013B00003D4016841F040010160E068D8B139E030
:1013C00020688168C90709D0007BA16B0870A06BF9
:1013D000401CA063E08F401EE0870CE0FFF77EFB1F
:1013E000A0EB0901414503D3B8F1FF3F03D036E03C
:1013F000B8F1000F33D0E08F0028E1D11DE0206864
:101400008168C90709D0C068A16B0880A06B801CE7
:10141000A063E08F401EE0870CE0FFF75FFBA0EBCE
:101420000901414503D3B8F1FF3F03D017E0B8F1FC
:10143000000F14D0E08F0028E1D14A4641462046F3
:1014400000F0DDFC08B120206065606D00B1012571
:10145000012084F8510084F850A028467EE7032537
:10146000F6E72DE9F84F044690F8500000271D4696
:101470001646894601280DD04FF0010B84F850B074
:10148000FFF72CFB804694F85100BA46012804D09F
:10149000022793E00220BDE8F88FB9F1000F73D066
:1014A000002E71D0032084F85100C4F854A0C4F871
:1014B0003090A686E686C4F838A0A4F83CA0A4F82C
:1014C0003EA0C4F844A0C4F840A0A068B0F5004F06
:1014D00009D12068016821F040010160206801689D
:1014E00041F48041016020680168490603D4016825
:1014F00041F040010160E068B0F5006F606803D022
:1015000030B3012E24D041E008B1012E1CD1206B54
:1015100021680088C86006E020688168890709D5CD
:10152000216B0988C160206B801C2063E08E401E07
:10153000E08609E0FFF7D2FAA0EB0800A84202D348
:10154000681C01D031E07DB3E08E0028E4D120E0BA
:10155000206B21680078087306E02068816889079D
:1015600009D5216B09780173206B401C2063E08E44
:10157000401EE0860AE0FFF7B1FAA0EB0800A8429F
:1015800003D3681C02D010E017E06DB1E08E002894
:10159000E3D142462946204600F060FC08B12020F5
:1015A0006065A06818B106E0FFE7032706E0206841
:1015B000C16880680090606D00B1012784F851B067
:1015C00084F850A0384666E72DE9F84F044690F8B5
:1015D000500000270A9E1D4692468B464FF0010997
:1015E00001280ED0012084F85000FFF777FA8046DA
:1015F00094F85100616801280CD0B1F5827F07D1C1
:1016000002E00220BDE8F88FA16809B9042801D0E2
:101610000227C2E0BBF1000F27D0BAF1000F24D09F
:101620001DB394F85100042802D0052084F851001D
:1016300000206065C4F838A0E587A587C4F830B0FD
:10164000E586A5862064606420680168490603D4A5
:10165000016841F040010160E068B0F5006F60682A
:1016600005D0E8B3012D46D07FE0012795E008B111
:10167000012D39D1206B21680088C860206B801C47
:101680002063E08E401EE0862EE020688168890796
:101690000FD5E18E69B1B9F1010F0AD1216B09882B
:1016A000C160206B801C2063E08E401EE0864FF0FE
:1016B000000920688168C9070CD0E18F51B1C0686A
:1016C000A16B0880A06B801CA063E08F401EE087A8
:1016D0004FF00109FFF702FAA0EB0800B04200E06A
:1016E00009E001D3701C50D1E08E0028CDD1E08FED
:1016F0000028CAD13FE0206B216800780873206B76
:10170000401C2063E08E401EE0862EE02068816849
:1017100089070FD5E18E69B1B9F1010F0AD1216BAB
:1017200009780173206B401C2063E08E401EE08628
:101730004FF0000920688168C9070CD0E18F51B1D2
:10174000C068A16B0870A06B401CA063E08F401EB6
:10175000E0874FF00109FFF7C1F9A0EB0800B042A4
:1017600002D3701C01D010E07EB1E08E0028CDD1F4
:10177000E08F0028CAD142463146204600F06EFB79
:1017800028B101272020606507E0032705E0A06855
:1017900018B92068C16880680090012084F8510061
:1017A000002084F8500038462CE710B5401EB0F1F8
:1017B000807F01D3012010BD4FF0E02460610F2134
:1017C000601700F03FFD0020A0610720206100208D
:1017D00010BD70B5040004D094F83D00002510B190
:1017E00006E0012070BD84F83C50204600F022F84D
:1017F000242084F83D002068C16821F40051C160B4
:10180000204600F081FC2068016921F490410161CB
:101810002068416921F02A0141612068C16841F4D2
:101820000051C1602564202084F83D0084F83E000A
:10183000002070BD10B586B0044614216846FEF73E
:10184000B7FD1A492068884228D11948002102684A
:1018500042F020020260006800F020000590144869
:101860001438026842F004020260006800F00400CC
:101870000590C02000900220CDE9010103200390D3
:101880000820049069460B48FFF71EF80022114615
:101890004720FFF791F94720FFF780F92068C168DA
:1018A00041F02001C16006B010BD000000140140ED
:1018B0004438024000080240FEE700000C4998B19D
:1018C00001280ED0022807D0032802D091ED010A8A
:1018D00070479FED080A01E09FED070A81ED010ABC
:1018E00070479FED060AF9E79FED050AF6E700004D
:1018F000F000002000007A3D0000FA3D00007A3E32
:101900000000FA3E1249082805D2DFE800F01E1B4D
:101910001815120F0A0791ED020A70479FED0D0A84
:1019200001E09FED0D0A81ED020A70479FED0B0A61
:10193000F9E79FED0B0AF6E79FED0A0AF3E79FED43
:101940000A0AF0E79FED090AEDE79FED090AEAE7C9
:10195000F00000200000F23900007A3A0000FA3A64
:1019600000007A3B0000FA3B00007A3C0000FA3CA1
:1019700000007A3D10B5752000F060FD464C002156
:101980002070762000F084FD0121762000F080FD9B
:101990006420FEF787FF207847287BD1012176203D
:1019A00000F076FD02217A2000F072FD0021762001
:1019B00000F06EFD4021162000F06AFD0A20FEF7BF
:1019C00071FF652000F03AFD04460021652000F01B
:1019D0005FFD0021602000F05BFD0221612000F02E
:1019E00057FD2146652000F053FD63215F2000F084
:1019F0004FFD0A20FEF756FF0021762000F048FD3B
:101A00003621142000F044FD0021762000F040FD36
:101A1000652000F013FD40F00401652000F038FD62
:101A20000A20FEF73FFF0120FFF748FF0021762044
:101A300000F02EFD502000F001FD40F02901502063
:101A400000F026FD0A20FEF72DFF0120FFF75AFFC8
:101A50000021762000F01CFD4F2000F0EFFC40F04C
:101A600029014F2000F014FD0A20FEF71BFF002182
:101A7000762000F00DFD4E2000F0E0FC20F020006C
:101A800040F00F014E2000F003FDBDE810400A2099
:101A9000FEF708BF10BD0000F00000202DE9FF4157
:101AA000044600200190029003901F20444F8DF8BF
:101AB000000001AE0C25002210213846FFF709F87E
:101AC0009DF80000642340F080008DF800000122A2
:101AD00069463C48FFF7C5FC64232A46314639482D
:101AE000FFF712FC012210213846FEF7F2FFBDF885
:101AF000040040BA06B22680BDF8060000EE106A67
:101B000040BA02B26280BDF808002F4E40BA05B25A
:101B1000A580BDF80A00F8EEC00A40BA03B2E3801F
:101B2000BDF80C0040BA01B2218196ED010ABDF862
:101B30000E0060EE800A40BA00B2FDEEE00A10EE40
:101B4000907A00EE902A2780F8EEE00A60EE800A94
:101B5000FDEEE00A10EE902A00EE905A6280F8EE58
:101B6000E00A20EE800ABDEEC00A10EE102A00EE58
:101B7000103AA280F8EEC00A96ED020A60EE800AE2
:101B8000FDEEE00A10EE902A00EE901AE280F8EEE8
:101B9000E00A60EE800AFDEEE00A10EE901A00EE18
:101BA000900A2181F8EEE00A20EE800ABDEEC00A1C
:101BB00010EE100A608104B00020BDE8F081000042
:101BC0000000024058010020F00000200148FFF70B
:101BD00065BF0000840700207FB5002415480094ED
:101BE000019402941249039401604FF48031C0E9DA
:101BF00001140461047680F820400F49C0E90A14FA
:101C00000125C561C46080F830404561FEF7F0FDF4
:101C100008B1FEF723FD0B20CDE9000569460294CB
:101C20000448FEF73FFD002801D0FEF717FD7FBDF9
:101C300000200140100100200100000FF0B587B026
:101C400014216846FEF7B4FB24480024016841F0E3
:101C500080010160016801F080010591016841F097
:101C600004010160016801F004010591016841F07F
:101C700001010160016801F001010591016841F075
:101C8000020101600068164E00F00200059001227A
:101C900010213046FEF71DFF124F012241F20801CC
:101CA0003846FEF716FF002230213846FEF711FFB6
:101CB000102000900125CDE9015469463046039477
:101CC000FEF702FE41F238000090CDE9015469466A
:101CD00038460394FEF7F8FD07B0F0BD30380240F7
:101CE0000000024000040240104810B50E49016097
:101CF0004FF48271416000218160C1604FF4007235
:101D00000161C0E905121022C0E907214162816228
:101D10000A21C162FFF722FA002803D0BDE8104073
:101D2000FEF79CBC10BD00000030014058010020AF
:101D3000104810B50E4901604FF4827141600021D6
:101D40008160C1604FF400720161C0E90512102288
:101D5000C0E90721416281620A21C162FFF7FEF9F1
:101D6000002803D0BDE81040FEF778BC10BD00008D
:101D700000380040B0010020104810B50E49016045
:101D80004FF48271416000218160C1604FF40072A4
:101D90000161C0E905121022C0E907214162816298
:101DA0000A21C162FFF7DAF9002803D0BDE810402C
:101DB000FEF754BC10BD0000003C004008020020AB
:101DC0000C4810B50A4901604FF4E131416000212F
:101DD00081600C22C160C0E904128161C161FFF71A
:101DE000F8FC002803D0BDE81040FEF737BC10BD5A
:101DF0000014014040070020FEE7FEE77047F8B5F9
:101E0000044640684FF48273984221D1A0684FF491
:101E10008065B0F5004F01D0A8420AD1206806685D
:101E200026F0400606606068984211D1A068A8427A
:101E30000ED000920B4600228021204600F03AF896
:101E4000002804D0606D40F0200060650320F8BDDC
:101E500000920B4600220121EFE7000038B504464E
:101E60001248134B0068B0FBF3F04FF47A735843F9
:101E700000906068B0F5827F0DD10B460092002281
:101E80008021204600F016F870B1606D40F020000F
:101E90006065032038BD009830B1401E0090206876
:101EA0008068C0430006F6D5002038BD0C01002034
:101EB00000366E012DE9F8431E46914688460446D9
:101EC000089DFEF70BFE401B351AFEF707FE07467E
:101ED00025480068C0F3CB30684338E0701C37D029
:101EE000FEF7FCFDC01BA84203D215B1009860B3F9
:101EF0002CE02068416821F0E00141606068B0F5A5
:101F0000827F0BD1A068B0F5004F02D0B0F5806F92
:101F100004D12068016821F040010160A06AB0F599
:101F2000005F09D12068016821F400510160206838
:101F3000016841F400510160012084F85100002043
:101F400084F850000320BDE8F8830025401E00906F
:101F50002068816838EA010004D000214945BDD1DC
:101F60000020F0E70121F9E70C0100207047000094
:101F700070B58AB006464FF0F0001C008DF80000E6
:101F80008DF8011013466D468DF8024004D02246AC
:101F90001946E81C00F09EFCE41C2146684600F04F
:101FA00063F9010A2955641C621C2855FF20A854B6
:101FB000A21C082E05D20448694650F8260000F0FD
:101FC00033F90AB070BD0000D8000020FEF78CBDC8
:101FD00030B593B030216846FEF7EAF914210CA819
:101FE000FEF7E6F91D480025016841F080510160C7
:101FF000006800F0805011901948016841F4804158
:1020000001600068022400F48040119001200090DB
:10201000000401908001CDE9064008AA0420A8210F
:1020200082E813000B906846FEF7E2FE08B172B634
:10203000FEE70CA90F2081E831004FF4A0500F906B
:102040004FF48050109005210CA8FEF7E7FD002802
:1020500001D072B6FEE713B030BD00004038024038
:10206000007000400248016841F47001016070474F
:1020700088ED00E070B50C46016889063DD5016821
:1020800021F02001016040680025C1B294F8C90028
:1020900058B3012831D194F8C820501C84F8C800E6
:1020A000A15494F8C800611E415CFF2925D1A17894
:1020B0008A1D904221D32046C91C00F0D5F894F81F
:1020C000C820E31E010AD35CC0B28B4216D1A11E08
:1020D000515C814212D1022084F8C900A07884F8B2
:1020E000CA00E01CC4F8CC000AE0F02905D10120A8
:1020F00084F8C800217084F8C90070BD84F8C95004
:1021000084F8C85070BD000070B5044600680169CD
:10211000E26821F44051114301612169A068E2693C
:1021200008436169114308432168CA6849F20C6396
:102130009A430243CA6020684169A26921F4407150
:102140001143416131492068884202D030498842B8
:1021500002D1FEF70DFE01E0FEF7FAFDE269002371
:10216000192164253226B2F5004F626828D0A0FB01
:102170000101930F9200FEF778F80146B0FBF5F0ED
:102180006FF01802504301EB800006EB0010B0FB2B
:10219000F5F000F0F002B1FBF5F002EB0012B1FB3C
:1021A000F5F06FF01803584301EB800006EB0010C8
:1021B000B0FBF5F000F00F0021681044886070BD9E
:1021C000A0FB010192185B41FEF74FF80146B0FBFE
:1021D000F5F00201B1FBF5F06FF01803584301EB85
:1021E000800006EBC000B0FBF5F000F0F80002EB59
:1021F0004002B1FBF5F0584301EB800006EBC00054
:10220000B0FBF5F000F00700D6E700000010014039
:1022100000140140024803494069FFF72BBF00004A
:10222000D80000207006002010B5002306E00C78CE
:10223000446004682406FCD5491C5B1C9342F6D319
:1022400010BDFEE70907090E002804DB00F1E020BD
:1022500080F80014704700F00F0000F1E02080F8D3
:10226000141D70477047000030B503460020024639
:102270000BE000BF13F8014B521C84F05A0504EB2D
:10228000052484F0A504204480B28A42F2D330BDF4
:102290002DE9F0436149002489B091F8D90402285E
:1022A0002ED100205E4D81F8D90491F81114698077
:1022B0006A68521C6A600B2958D010DC6C4611B356
:1022C00001292DD00A291BD14FF480615548FEF712
:1022D000F3FB01238DF800006A460A210DE00D2969
:1022E0000ED1FFF773FC50480C236A460168009139
:1022F0004168019180680D2102900520FFF738FEAA
:1023000009B0BDE8F0832046FEF7AAF92118EA6873
:102310000A602A8A8A80801DC3B26A460021ECE7DF
:102320008DF800008DF8010040498DF802008DF80D
:1023300003008DF8040009788DF805103C498DF8EC
:1023400006008DF8070009880C230A0A8DF808207A
:102350008DF809108DF80A008DF80B002246012136
:102360000520FFF705FEFEF715F9C9E7A946287015
:1023700080464FF6FF772F4D2F4E01E01D2C07D2E0
:1023800035F81410B9420DD056F82400002207E0A9
:1023900008D935F81410B94204D056F824000122A7
:1023A000FEF797FB641CE4B2202CE7D31C4A89F8A3
:1023B00001800123521C0B210520FFF7D9FD0024C9
:1023C0002820FEF76FFAB84604E02820FEF76AFAE4
:1023D0001D2C18D235F814104746B94204D056F8CF
:1023E00024000122FEF775FBB8464F460C4A641CD8
:1023F0007C700123521C0B210520FFF7B9FDE4B2CC
:10240000202CE2D37CE7F1D935F814104145EDD00A
:1024100056F824000022FEF75CFBE7E7600200208C
:10242000000000200000024084070020F00000208F
:10243000D4000020940000201400002011B581B0C9
:102440000020114C8DF80000024610212046FEF7B6
:1024500040FB9DF80400642340F080008DF80400E8
:10246000012201A90948FEF7FCFF64230122694605
:102470000648FEF749FF012210212046FEF729FBFE
:102480009DF800001CBD0000000002405801002023
:1024900073B50D4D0024224610212846FEF719FB86
:1024A0006423012269460948FEF7DBFF6423012209
:1024B00001A90648FEF7D5FF012210212846FEF7A4
:1024C00008FB20467CBD00000000024058010020AF
:1024D0000024FEF711FBFFF77BFDFFF7AFFBFFF7D3
:1024E0007BFBFFF701FCFFF723FCFFF745FCFFF741
:1024F00067FC00F017F8FFF73DFA00F035F9074DDB
:10250000074E00BFFFF7C4FE641CAC42FAD30024A0
:1025100030213046FEF7D5FAF4E7000080841E0033
:102520000004024010B50C2000F026F81149087094
:1025300040210A2000F0FEF90421002000F0FAF901
:102540004021042000F0F6F94821002000F0F2F9C3
:102550000021012000F0EEF9EC2000F00DF840F031
:1025600010016C2000F0E6F92D21BDE810400C2090
:1025700000F0E0B9FD00002031B582B00020124D1E
:102580008DF8000002464FF4805421462846FEF79D
:10259000A0FA9DF80800642340F080008DF8080040
:1025A000012202A90948FEF75CFF64230122694663
:1025B0000648FEF7A9FE012221462846FEF789FAC1
:1025C0009DF800003EBD000000040240B001002064
:1025D000F8B5064602208DF80000501E14460D4640
:1025E000FF282CD800F03EF9154F0022082138466C
:1025F000FEF76FFA6423012269461248FEF731FFA5
:10260000290C642301220F48FEF72BFF290A6423BB
:1026100001220C48FEF725FF6423012229460948C0
:10262000FEF71FFFA2B2642331460648FEF719FFEA
:10263000012208213846FEF74CFA00F0BFF8F8BD39
:102640000004024008020020F8B506460320174F98
:1026500015460C468DF80000002208213846FEF78A
:1026600038FA6423012269461148FEF7FAFE210C6C
:10267000642301220E48FEF7F4FE210A642301229E
:102680000B48FEF7EEFE6423012221460848FEF7C0
:10269000E8FEAAB2642331460548FEF735FE012262
:1026A00008213846FEF715FAF8BD00000004024084
:1026B000080200201CB500208DF8000005200E4CFB
:1026C0008DF80400002208212046FEF702FA642358
:1026D000012201A90948FEF7C4FE642301226946CC
:1026E0000648FEF711FE012208212046FEF7F1F907
:1026F0009DF800001CBD00000004024008020020FC
:1027000038B5044620208DF8000000F0ABF800F04A
:1027100055F8134D002208212846FEF7DAF9642304
:10272000012269460F48FEF79CFE210C642301221A
:102730000C48FEF796FE210A642301220948FEF7A1
:1027400090FE6423012221460648FEF78AFE0122FC
:1027500008212846FEF7BDF900F030F838BD00002A
:10276000000402400802002070B500F0BDF80446E5
:102770004FF480552846FFF7C3FF102229460D4825
:1027800000F024F80B48102229461030FFF75CFFB8
:102790000849102210310748FDF7DEFD064918B937
:1027A000A4F56F40173802D00020087070BDEE20ED
:1027B000FBE7000090070020FC0000202DE91040FE
:1027C000FFF778FFC007FBD110BD00002DE9F05FD7
:1027D000C1F30B06DFF888800F0BC6F58054154651
:1027E00089468246A24200D8ACB239038B464FF4E8
:1027F00080524046FFF728FF002006E0321818F804
:102800000210FF2903D1401C80B2A042F6D3A0429F
:1028100020D23846FFF774FF002006E01AF80020A7
:102820008319401C08F8032080B2A042F6D3594611
:102830004FF480524FEA080000F02EF8A5420DD068
:10284000A244A1442D1B00264FF480547F1CA542B6
:10285000CBD8C9E7224649465046EDE7BDE8F09F90
:10286000B007002038B50620094C8DF80000002282
:1028700008212046FEF72DF9642301226946054808
:10288000FEF7EFFD012208212046FEF722F938BDB0
:1028900000040240080200202DE9F0410746C8B2BA
:1028A000C0F5807415460E46A24200D8ACB24FF473
:1028B0008078224631463846FFF78AFEA54207D087
:1028C000274426442D1B4446A542F2D8ACB2F0E77B
:1028D000BDE8F08110B5002303E0CC5CC4545B1C60
:1028E000DBB29342F9D310BD7CB50FA00F4D006849
:1028F0000190002208212846FEF7EBF86423042209
:1029000001A90B48FEF7ADFD642302226946084881
:10291000FEF7FAFCBDF80000012244BA082128465F
:10292000FEF7D7F820467CBD90000000000402406E
:102930000802002073B50E4E00244FF48055224645
:1029400029463046FEF7C5F8642301226946094846
:10295000FEF787FD6423012201A90648FEF781FDE9
:10296000012229463046FEF7B4F820467CBD00001F
:1029700000040240B00100204FF04070E1EE100A68
:102980007047000000000000000001020304060779
:10299000080900000000010203040000BC2900082F
:1029A0000000002010010000C4010008CC2A00082B
:1029B00010010020001D0000E001000800000000E0
:1029C0000000000000000000533732325245000082
:1029D00000040240000402400008024000000240DF
:1029E00000040240000402400000024000000240D7
:1029F00000040240000402400000024000000240C7
:102A000000040240000002400008024000080240AA
:102A100000000240000002400008024000000240A6
:102A2000000002400000024000000240000002409E
:102A3000000002400000024000000240000002408E
:102A4000000002400000024000000240000002407E
:102A5000800040000400FFFF00080004010008009F
:102A600001000200040001000004FFFF80000800D4
:102A70000100000200020100FFFFFFFFFFFFFFFF58
:102A8000FFFFFFFFFFFFFFFFFFFF0004FFFF00014D
:102A900000000000001001400044004000480040D9
:102AA000004C0040005000400014014000000000B5
:102AB00023DB793E333303420000000001000000B5
:0C2AC00010000000000000000024F400E2
:040000050800018965
:00000001FF
